{
  "address": "0xF6EfB10e47d6D4C1023BBFa5e6396B00915FbD41",
  "abi": [
    {
      "inputs": [
        {
          "internalType": "contract IEVMVerifier",
          "name": "_verifier",
          "type": "address"
        },
        {
          "internalType": "contract ENS",
          "name": "_ens",
          "type": "address"
        },
        {
          "internalType": "contract INameWrapper",
          "name": "_nameWrapper",
          "type": "address"
        },
        {
          "internalType": "string",
          "name": "_graphqlUrl",
          "type": "string"
        },
        {
          "internalType": "uint256",
          "name": "_l2ResolverCoinType",
          "type": "uint256"
        }
      ],
      "stateMutability": "nonpayable",
      "type": "constructor"
    },
    {
      "inputs": [],
      "name": "CommandTooLong",
      "type": "error"
    },
    {
      "inputs": [
        {
          "internalType": "uint256",
          "name": "value",
          "type": "uint256"
        },
        {
          "internalType": "uint256",
          "name": "max",
          "type": "uint256"
        }
      ],
      "name": "InvalidReference",
      "type": "error"
    },
    {
      "inputs": [
        {
          "internalType": "address",
          "name": "sender",
          "type": "address"
        },
        {
          "internalType": "string[]",
          "name": "urls",
          "type": "string[]"
        },
        {
          "internalType": "bytes",
          "name": "callData",
          "type": "bytes"
        },
        {
          "internalType": "bytes4",
          "name": "callbackFunction",
          "type": "bytes4"
        },
        {
          "internalType": "bytes",
          "name": "extraData",
          "type": "bytes"
        }
      ],
      "name": "OffchainLookup",
      "type": "error"
    },
    {
      "inputs": [
        {
          "internalType": "uint256",
          "name": "actual",
          "type": "uint256"
        },
        {
          "internalType": "uint256",
          "name": "expected",
          "type": "uint256"
        }
      ],
      "name": "ResponseLengthMismatch",
      "type": "error"
    },
    {
      "inputs": [
        {
          "internalType": "uint256",
          "name": "max",
          "type": "uint256"
        }
      ],
      "name": "TooManyCommands",
      "type": "error"
    },
    {
      "anonymous": false,
      "inputs": [
        {
          "indexed": false,
          "internalType": "bytes",
          "name": "name",
          "type": "bytes"
        },
        {
          "indexed": false,
          "internalType": "uint256",
          "name": "coinType",
          "type": "uint256"
        },
        {
          "indexed": false,
          "internalType": "string",
          "name": "graphqlUrl",
          "type": "string"
        },
        {
          "indexed": false,
          "internalType": "uint8",
          "name": "storageType",
          "type": "uint8"
        },
        {
          "indexed": false,
          "internalType": "bytes",
          "name": "storageLocation",
          "type": "bytes"
        },
        {
          "indexed": false,
          "internalType": "bytes",
          "name": "context",
          "type": "bytes"
        }
      ],
      "name": "MetadataChanged",
      "type": "event"
    },
    {
      "anonymous": false,
      "inputs": [
        {
          "indexed": false,
          "internalType": "bytes",
          "name": "name",
          "type": "bytes"
        },
        {
          "indexed": false,
          "internalType": "address",
          "name": "target",
          "type": "address"
        }
      ],
      "name": "TargetSet",
      "type": "event"
    },
    {
      "inputs": [
        {
          "internalType": "bytes[]",
          "name": "values",
          "type": "bytes[]"
        },
        {
          "internalType": "bytes",
          "name": "",
          "type": "bytes"
        }
      ],
      "name": "addrCallback",
      "outputs": [
        {
          "internalType": "bytes",
          "name": "",
          "type": "bytes"
        }
      ],
      "stateMutability": "pure",
      "type": "function"
    },
    {
      "inputs": [
        {
          "internalType": "bytes[]",
          "name": "values",
          "type": "bytes[]"
        },
        {
          "internalType": "bytes",
          "name": "",
          "type": "bytes"
        }
      ],
      "name": "addrCoinTypeCallback",
      "outputs": [
        {
          "internalType": "bytes",
          "name": "",
          "type": "bytes"
        }
      ],
      "stateMutability": "pure",
      "type": "function"
    },
    {
      "inputs": [
        {
          "internalType": "bytes[]",
          "name": "values",
          "type": "bytes[]"
        },
        {
          "internalType": "bytes",
          "name": "",
          "type": "bytes"
        }
      ],
      "name": "contenthashCallback",
      "outputs": [
        {
          "internalType": "bytes",
          "name": "",
          "type": "bytes"
        }
      ],
      "stateMutability": "pure",
      "type": "function"
    },
    {
      "inputs": [],
      "name": "ens",
      "outputs": [
        {
          "internalType": "contract ENS",
          "name": "",
          "type": "address"
        }
      ],
      "stateMutability": "view",
      "type": "function"
    },
    {
      "inputs": [
        {
          "internalType": "bytes",
          "name": "response",
          "type": "bytes"
        },
        {
          "internalType": "bytes",
          "name": "extradata",
          "type": "bytes"
        }
      ],
      "name": "getStorageSlotsCallback",
      "outputs": [],
      "stateMutability": "nonpayable",
      "type": "function"
    },
    {
      "inputs": [
        {
          "internalType": "bytes",
          "name": "name",
          "type": "bytes"
        }
      ],
      "name": "getTarget",
      "outputs": [
        {
          "internalType": "bytes32",
          "name": "node",
          "type": "bytes32"
        },
        {
          "internalType": "address",
          "name": "target",
          "type": "address"
        }
      ],
      "stateMutability": "view",
      "type": "function"
    },
    {
      "inputs": [],
      "name": "graphqlUrl",
      "outputs": [
        {
          "internalType": "string",
          "name": "",
          "type": "string"
        }
      ],
      "stateMutability": "view",
      "type": "function"
    },
    {
      "inputs": [],
      "name": "l2ResolverCoinType",
      "outputs": [
        {
          "internalType": "uint256",
          "name": "",
          "type": "uint256"
        }
      ],
      "stateMutability": "view",
      "type": "function"
    },
    {
      "inputs": [
        {
          "internalType": "bytes",
          "name": "name",
          "type": "bytes"
        }
      ],
      "name": "metadata",
      "outputs": [
        {
          "internalType": "uint256",
          "name": "",
          "type": "uint256"
        },
        {
          "internalType": "string",
          "name": "",
          "type": "string"
        },
        {
          "internalType": "uint8",
          "name": "",
          "type": "uint8"
        },
        {
          "internalType": "bytes",
          "name": "",
          "type": "bytes"
        },
        {
          "internalType": "bytes",
          "name": "",
          "type": "bytes"
        }
      ],
      "stateMutability": "view",
      "type": "function"
    },
    {
      "inputs": [],
      "name": "nameWrapper",
      "outputs": [
        {
          "internalType": "contract INameWrapper",
          "name": "",
          "type": "address"
        }
      ],
      "stateMutability": "view",
      "type": "function"
    },
    {
      "inputs": [
        {
          "internalType": "bytes",
          "name": "name",
          "type": "bytes"
        },
        {
          "internalType": "bytes",
          "name": "data",
          "type": "bytes"
        }
      ],
      "name": "resolve",
      "outputs": [
        {
          "internalType": "bytes",
          "name": "result",
          "type": "bytes"
        }
      ],
      "stateMutability": "view",
      "type": "function"
    },
    {
      "inputs": [
        {
          "internalType": "bytes",
          "name": "name",
          "type": "bytes"
        },
        {
          "internalType": "address",
          "name": "target",
          "type": "address"
        }
      ],
      "name": "setTarget",
      "outputs": [],
      "stateMutability": "nonpayable",
      "type": "function"
    },
    {
      "inputs": [
        {
          "internalType": "bytes4",
          "name": "interfaceId",
          "type": "bytes4"
        }
      ],
      "name": "supportsInterface",
      "outputs": [
        {
          "internalType": "bool",
          "name": "",
          "type": "bool"
        }
      ],
      "stateMutability": "view",
      "type": "function"
    },
    {
      "inputs": [
        {
          "internalType": "bytes[]",
          "name": "values",
          "type": "bytes[]"
        },
        {
          "internalType": "bytes",
          "name": "",
          "type": "bytes"
        }
      ],
      "name": "textCallback",
      "outputs": [
        {
          "internalType": "bytes",
          "name": "",
          "type": "bytes"
        }
      ],
      "stateMutability": "pure",
      "type": "function"
    },
    {
      "inputs": [],
      "name": "verifier",
      "outputs": [
        {
          "internalType": "contract IEVMVerifier",
          "name": "",
          "type": "address"
        }
      ],
      "stateMutability": "view",
      "type": "function"
    }
  ],
  "transactionHash": "0x250abeb447efb1a4849a325377ec80d2412e7299f774bfafd4d18a702746fe75",
  "args": [
    "0xAdef74372444e716C0473dEe1F9Cb3108EFa3818",
    "0x00000000000C2E074eC69A0dFb2997BA6C7d2e1e",
    "0x0635513f179D50A207757E05759CbD106d7dFcE8",
    "https://api.studio.thegraph.com/query/1397/ens-base-sepolia/version/latest",
    2147568180
  ],
  "numDeployments": 1,
  "solcInputHash": "f62af331815cb4e74689ba5fa814dd3e",
  "bytecode": "0x60e0604052346200039d576200287f80380390816200001e81620003a2565b91823960a08183810103126200039d5780516001600160a01b039182821682036200039d57602081015183811681036200039d5760408201519084821682036200039d576060830151936001600160401b0385116200039d57601f93878101858783010112156200039d57808601516001600160401b038111620002a257601f1996620000b28288018916602001620003a2565b99828b5283016020838386010101116200039d5760005b82811062000386575050600090890160200152608001519583811615620003425780821615620002fd57821615620002b85760805260a05260c0528351906001600160401b038211620002a25760019283548481811c9116801562000297575b6020821014620002815782811162000234575b506020918311600114620001d0575081929394600092620001c4575b5050600019600383901b1c191690821b1790555b6002556040516124b69081620003c982396080518181816103a401528181611557015281816120f8015281816122490152612330015260a0518181816105cc0152610b6e015260c051818181610aac0152610ba30152f35b01519050388062000158565b8216908360005260206000209160005b8181106200021d575095838596971062000203575b505050811b0190556200016c565b015160001960f88460031b161c19169055388080620001f5565b8783015184559285019260209283019201620001e0565b8460005260206000208380860160051c8201926020871062000277575b0160051c019085905b8281106200026a5750506200013c565b600081550185906200025a565b9250819262000251565b634e487b7160e01b600052602260045260246000fd5b90607f169062000129565b634e487b7160e01b600052604160045260246000fd5b60405162461bcd60e51b815260206004820152601c60248201527f52656769737472792061646472657373206d75737420626520736574000000006044820152606490fd5b60405162461bcd60e51b815260206004820152601c60248201527f56657269666965722061646472657373206d75737420626520736574000000006044820152606490fd5b606460405162461bcd60e51b815260206004820152602060248201527f4e616d6520577261707065722061646472657373206d757374206265207365746044820152fd5b602082850182018101518c830182015201620000c9565b600080fd5b6040519190601f01601f191682016001600160401b03811183821017620002a25760405256fe6080604052600436101561001257600080fd5b60003560e01c806301ffc9a7146100fd57806315f64386146100f85780632b7ac3f3146100f357806338bf92e6146100c15780633f15457f146100ee5780634062b43f146100e95780635bdaa916146100e45780637e6215ba146100df5780638a596ebe146100da5780639061b923146100d5578063a8e5fbc0146100d0578063d358df77146100cb578063de9abe5e146100c1578063f470901a146100c65763fcd2e381146100c157600080fd5b610544565b610da4565b610ae1565b610a8c565b610942565b6108bc565b61089e565b610771565b6106cd565b6105ac565b610384565b610330565b61011c565b35906001600160e01b03198216820361011757565b600080fd5b34610117576020366003190112610117576004356001600160e01b0319811680910361011757807f9061b92300000000000000000000000000000000000000000000000000000000602092149081156101dd575b81156101b3575b8115610189575b506040519015158152f35b7f01ffc9a7000000000000000000000000000000000000000000000000000000009150143861017e565b7f8a596ebe0000000000000000000000000000000000000000000000000000000081149150610177565b7f15f643860000000000000000000000000000000000000000000000000000000081149150610170565b634e487b7160e01b600052604160045260246000fd5b6040810190811067ffffffffffffffff82111761023957604052565b610207565b6020810190811067ffffffffffffffff82111761023957604052565b610420810190811067ffffffffffffffff82111761023957604052565b90601f8019910116810190811067ffffffffffffffff82111761023957604052565b67ffffffffffffffff811161023957601f01601f191660200190565b9291926102c182610299565b916102cf6040519384610277565b829481845281830111610117578281602093846000960137010152565b9080601f8301121561011757816020610307933591016102b5565b90565b9060208282031261011757813567ffffffffffffffff81116101175761030792016102ec565b346101175760203660031901126101175760043567ffffffffffffffff8111610117576001600160a01b03610375600061037060409436906004016102ec565b611398565b83519182529091166020820152f35b346101175760003660031901126101175760206040516001600160a01b037f0000000000000000000000000000000000000000000000000000000000000000168152f35b67ffffffffffffffff81116102395760051b60200190565b9080601f83011215610117578135906103f8826103c8565b926104066040519485610277565b828452602092838086019160051b8301019280841161011757848301915b8483106104345750505050505090565b823567ffffffffffffffff8111610117578691610456848480948901016102ec565b815201920191610424565b9060406003198301126101175767ffffffffffffffff600435818111610117578361048e916004016103e0565b9260243591821161011757610307916004016102ec565b60005b8381106104b85750506000910152565b81810151838201526020016104a8565b906020916104e1815180928185528580860191016104a5565b601f01601f1916010190565b90602091828152606051808483015260005b818110610520575060409293506000838284010152601f8019910116010190565b60808101518382016040015284016104ff565b9060206103079281815201906104c8565b346101175761055236610461565b508051600110156105a75761058161058f60406105a393015160405192839160208084015260408301906104c8565b03601f198101835282610277565b6040519182916020835260208301906104c8565b0390f35b61147a565b346101175760003660031901126101175760206040516001600160a01b037f0000000000000000000000000000000000000000000000000000000000000000168152f35b90600182811c92168015610620575b602083101461060a57565b634e487b7160e01b600052602260045260246000fd5b91607f16916105ff565b9060009160019081549161063d836105f0565b808352928181169081156106b0575060011461065857505050565b80929394506000527fb10e2d527612073b26eecdfd717e6a320cf44b4afac2b0732d9fcbe2b7fa0cf6916000925b84841061069857505060209250010190565b80546020858501810191909152909301928101610686565b915050602093945060ff929192191683830152151560051b010190565b34610117576000366003190112610117576105a360405161058f816106f18161062a565b0382610277565b9181601f840112156101175782359167ffffffffffffffff8311610117576020838186019501011161011757565b60406003198201126101175767ffffffffffffffff916004358381116101175782610753916004016106f8565b939093926024359182116101175761076d916004016106f8565b9091565b34610117576107966107e8600061079f61078a36610726565b9691839193019061030a565b94810190610e2c565b95936040989395929198518098819582947f3baa6d50000000000000000000000000000000000000000000000000000000008452896001600160a01b0380961660048601611075565b0392165afa92831561089957600093610876575b5082519051908181036108375761082f8461082987610581876040519485936020850152602484016110c6565b306110eb565b602081519101f35b6040517f2918942500000000000000000000000000000000000000000000000000000000815260048101919091526024810191909152604490fd5b0390fd5b61089291933d8091833e61088a8183610277565b810190610f3b565b91386107fc565b6110ba565b34610117576000366003190112610117576020600254604051908152f35b346101175760203660031901126101175760043567ffffffffffffffff8111610117576109346108fc6108f66105a39336906004016106f8565b906123e7565b92959394919060ff610920604051988998895260a060208a015260a08901906104c8565b9216604087015285820360608701526104c8565b9083820360808501526104c8565b3461011757610370600061096461095836610726565b949290959136916102b5565b9290506001600160e01b031961097a8383611490565b167f3b3b57de000000000000000000000000000000000000000000000000000000008114610a78577ff1cb7e06000000000000000000000000000000000000000000000000000000008114610a5b577f59d1d43c000000000000000000000000000000000000000000000000000000008114610a3e577fbc1c58d10000000000000000000000000000000000000000000000000000000014610a2357604051806105a3816104ed565b81610a3992610a31926114bc565b8101906114d9565b612321565b5081610a5592610a4d926114bc565b8101906114fe565b9061223a565b5081610a7292610a6a926114bc565b8101906114e8565b906120db565b5081610a8792610a31926114bc565b61153e565b346101175760003660031901126101175760206040516001600160a01b037f0000000000000000000000000000000000000000000000000000000000000000168152f35b6001600160a01b0381160361011757565b346101175760403660031901126101175760043567ffffffffffffffff811161011757610b129036906004016106f8565b60243591610b1f83610ad0565b610b2f60006103703685856102b5565b506040517f02571be3000000000000000000000000000000000000000000000000000000008152600481018290526001600160a01b03602080836024817f000000000000000000000000000000000000000000000000000000000000000086165afa92831561089957600093610d83575b507f00000000000000000000000000000000000000000000000000000000000000008216908383168214610ca6575b505094610c7081610c3d7f88781081cc340609705af0f96bf3ba64ea267873444e91725bd072f2af0f44d895610c2d610c7e967f9fcbe230acca8f6bcfd2dda7aa896aa97299a423bdac7c8b565819624436a0729b339116146111f6565b6000526000602052604060002090565b906001600160a01b03167fffffffffffffffffffffffff0000000000000000000000000000000000000000825416179055565b60405191829186868461121e565b0390a1610ca1610c8e83836123e7565b9350915060025460405196879687611246565b0390a1005b6040517f6352211e000000000000000000000000000000000000000000000000000000008152600481018690529790935091908390889060249082905afa801561089957610c3d7f88781081cc340609705af0f96bf3ba64ea267873444e91725bd072f2af0f44d895610c2d610c709486947f9fcbe230acca8f6bcfd2dda7aa896aa97299a423bdac7c8b565819624436a0729c610c7e99600092610d56575b50509750959a5050955050610bcf565b610d759250803d10610d7c575b610d6d8183610277565b81019061134d565b3880610d46565b503d610d63565b819350610d9d9083923d8611610d7c57610d6d8183610277565b9290610ba0565b3461011757610db236610461565b508051600110156105a757610581610e0b60406105a393015160208151910151906bffffffffffffffffffffffff19918281169160148110610e17575b50506040805160609290921c6020830152909384925090820190565b60405191829182610533565b8391925060140360031b1b1616803880610def565b91909160c081840312610117578035610e4481610ad0565b92602080830135610e5481610ad0565b9367ffffffffffffffff9160408501358381116101175785019084601f8301121561011757813591610e85836103c8565b92610e936040519485610277565b808452828085019160051b83010191878311610117578301905b828210610ef557505050509360608101358381116101175784610ed19183016103e0565b93610ede60808301610102565b9360a08301359081116101175761030792016102ec565b81358152908301908301610ead565b90929192610f1181610299565b91610f1f6040519384610277565b829482845282820111610117576020610f399301906104a5565b565b90602090818382031261011757825167ffffffffffffffff9384821161011757019080601f83011215610117578151610f73816103c8565b94604090610f8382519788610277565b828752858088019360051b8601019484861161011757868101935b868510610fb057505050505050505090565b845183811161011757820186603f82011215610117578891610fda88838886809601519101610f04565b815201940193610f9e565b90815180825260208080930193019160005b828110611005575050505090565b835185529381019392810192600101610ff7565b908082519081815260208091019281808460051b8301019501936000915b8483106110475750505050505090565b9091929394958480611065600193601f198682030187528a516104c8565b9801930193019194939290611037565b9261109e61030795936001600160a01b036110ac94168652608060208701526080860190610fe5565b908482036040860152611019565b9160608184039101526104c8565b6040513d6000823e3d90fd5b90916110dd61030793604084526040840190611019565b9160208184039101526104c8565b9061030791600080604051936111008561021d565b601e85527f416464726573733a206c6f772d6c6576656c2063616c6c206661696c65640000602086015260208151910182855af13d15611162573d9161114583610299565b926111536040519485610277565b83523d6000602085013e611166565b6060915b919290156111c7575081511561117a575090565b3b156111835790565b606460405162461bcd60e51b815260206004820152601d60248201527f416464726573733a2063616c6c20746f206e6f6e2d636f6e74726163740000006044820152fd5b8251909150156111da5750805190602001fd5b6108729060405191829162461bcd60e51b835260048301610533565b1561011757565b908060209392818452848401376000828201840152601f01601f1916010190565b9161123f6020926001600160a01b03929695966040865260408601916111fd565b9416910152565b94919061125f919796949760c0875260c08701916111fd565b91602090818601528483036040860152600092600190815491611281836105f0565b8083529281811690811561132b57506001146112c9575b50505050906112bb9160ff610307969716606086015284820360808601526104c8565b9160a08184039101526104c8565b6000818152939995509091907fb10e2d527612073b26eecdfd717e6a320cf44b4afac2b0732d9fcbe2b7fa0cf65b828510611318575094989190920101925081905060ff6112bb610307611298565b80548486018c0152938a019381016112f7565b60ff191683860152505090151560051b010191508060ff6112bb610307611298565b90816020910312610117575161030781610ad0565b634e487b7160e01b600052601160045260246000fd5b906001820180921161138657565b611362565b9190820180921161138657565b91909180518310156105a7576020838201015160f81c801561145457906113dd6113d8836113d26113e3956113cc89611378565b86611460565b9661138b565b611378565b90611398565b604080516020810193845290810194909452926114038160608101610581565b5190206001600160a01b03611432611425836000526000602052604060002090565b546001600160a01b031690565b1661143b579190565b9150610307611425836000526000602052604060002090565b50509050600090600090565b908281018082116113865782511061011757016020012090565b634e487b7160e01b600052603260045260246000fd5b6001600160e01b031990358181169392600481106114ad57505050565b60040360031b82901b16169150565b909291928360041161011757831161011757600401916003190190565b90816020910312610117573590565b9190826040910312610117576020823592013590565b91906040838203126101175782359260208101359067ffffffffffffffff821161011757019080601f8301121561011757816020610307933591016102b5565b61158f9061158061158a6115858361158061157b6060987f0000000000000000000000000000000000000000000000000000000000000000611781565b61181f565b61193f565b6118c8565b611973565b90611598611743565b508101906020908183511015611719576004906040906115d46115ce8351603c878201528681526115c88161021d565b83611ef7565b8261205f565b8151936115e08561023e565b6000855282820195818751511515918261170e575b5050611700575b600061161e61161284516001600160a01b031690565b6001600160a01b031690565b845195868092632d43cbef60e21b82525afa938415610899576000946116e5575b5081810180516001600160a01b031695875160808501908151988751998a9287840163ea9cd3bf60e01b9052602484019261167993611a01565b0394601f19958681018a5261168e908a610277565b516001600160a01b031692516001600160a01b031698519051908651998a958601946116b995611a35565b0390810185526116c99085610277565b51630556f18360e41b8152928392610872923060048601611bdf565b6116f991943d8091833e61088a8183610277565b923861163f565b61170982611f24565b6115fc565b5110905081386115f5565b60046040517fb00fd638000000000000000000000000000000000000000000000000000000008152fd5b6040519060a0820182811067ffffffffffffffff82111761023957604052606060808360008152600060208201528260408201526000838201520152565b9061178a611743565b506040516117978161025a565b60209283825261040092833686850137604051936117b48561025a565b8560005b82811061180f5750505060008352600084526040519460a0860186811067ffffffffffffffff821117610239576040526001600160a01b039283168652911690840152604083015260006060830152608082015290565b60608282890101520186906117b8565b611827611743565b50602060408201805160018151801515806118bb575b6118ad575b01905251511161187b576000606082015261185c81611f9d565b6103076115ce6040516115c88161058160208201906000602083019252565b6040517f128e700800000000000000000000000000000000000000000000000000000000815260206004820152602490fd5b6118b686611f24565b611842565b508460608701511061183d565b6118d0611743565b5060206040820180516001815180151580611932575b611924575b01905251511161187b576000606082015261190581611fe9565b6103076115ce6040516115c88161058160208201906002602083019252565b61192d86611f24565b6118eb565b50846060870151106118e6565b90611948611743565b50602060608301511015611719576115ce61030791604051906020820152602081526115c88161021d565b61197b611743565b506060810160208151101561171957604082019081515160001991828201918211611386576119ab828551611ee3565b51908051938414611386576001840190526001600160fd1b0383168303611386577f20000000000000000000000000000000000000000000000000000000000000006119fd9360031b1c179251611ee3565b5290565b91611a27906001600160a01b036103079593168452606060208501526060840190610fe5565b916040818403910152611019565b93906103079593611a6891611a76946001600160a01b03809216885216602087015260c0604087015260c0860190610fe5565b908482036060860152611019565b917ff470901a00000000000000000000000000000000000000000000000000000000608082015260a08184039101526104c8565b93906103079593611a6891611add946001600160a01b03809216885216602087015260c0604087015260c0860190610fe5565b917fde9abe5e00000000000000000000000000000000000000000000000000000000608082015260a08184039101526104c8565b93906103079593611a6891611b44946001600160a01b03809216885216602087015260c0604087015260c0860190610fe5565b917ffcd2e38100000000000000000000000000000000000000000000000000000000608082015260a08184039101526104c8565b93906103079593611a6891611bab946001600160a01b03809216885216602087015260c0604087015260c0860190610fe5565b917f38bf92e600000000000000000000000000000000000000000000000000000000608082015260a08184039101526104c8565b9290949391946001600160a01b0360a085019116845260209060a082860152865180915260c08501918060c08360051b8801019801926000905b838210611c6f57505050505084611c3b918461030796970360408601526104c8565b7f5bdaa9160000000000000000000000000000000000000000000000000000000060608401529160808184039101526104c8565b90919293988380611c8c60019360bf198c82030186528d516104c8565b9b019201920190939291611c19565b60046040820191825151151580611dc8575b611dba575b6000611cc861161283516001600160a01b031690565b60405193848092632d43cbef60e21b82525afa91821561089957600092611d9f575b5060208101928351611d02906001600160a01b031690565b9381519560808401968751966040519788926020840163ea9cd3bf60e01b90526024840192611d3093611a01565b0393601f19948581018852611d459088610277565b516001600160a01b031691516001600160a01b031692519651604051978894611d719460208701611aaa565b039081018452611d819084610277565b604051630556f18360e41b8152928392610872923060048601611bdf565b611db391923d8091833e61088a8183610277565b9038611cea565b611dc381611f24565b611cb2565b506020606082015110611cad565b60046040820191825151151580611ed5575b611ec7575b6000611e0361161283516001600160a01b031690565b60405193848092632d43cbef60e21b82525afa91821561089957600092611eac575b5060208101928351611e3d906001600160a01b031690565b9381519560808401968751966040519788926020840163ea9cd3bf60e01b90526024840192611e6b93611a01565b0393601f19948581018852611e809088610277565b516001600160a01b031691516001600160a01b031692519651604051978894611d719460208701611b11565b611ec091923d8091833e61088a8183610277565b9038611e25565b611ed081611f24565b611ded565b506020606082015110611de8565b80518210156105a75760209160051b010190565b6080611f219193929301519260ff845116938491600183018252611f1b8383611ee3565b52611ee3565b50565b604081019081515160001991828201918211611386576060611f47838651611ee3565b5191018051938414611386576001840190526001600160fd1b0383168303611386577fff00000000000000000000000000000000000000000000000000000000000000611f9a9360031b1c179251611ee3565b52565b60408101805151600019808201918211611386576060611fbe838551611ee3565b5194018051918214611386576001820190526001600160fd1b0381160361138657611f9a9151611ee3565b60408101908151516000199182820191821161138657606061200c838651611ee3565b5191018051938414611386576001840190526001600160fd1b0383168303611386577f0100000000000000000000000000000000000000000000000000000000000000611f9a9360031b1c179251611ee3565b60408101805151909291600019808301928311611386576060612083848751611ee3565b5192018051918214611386576001820190526001600160fd1b0381168103611386577fff00000000000000000000000000000000000000000000000000000000000000611f9a9460f81b169060031b1c179251611ee3565b9061158061211c9261158061158a6115858361158061157b60609a7f0000000000000000000000000000000000000000000000000000000000000000611781565b906004604080519361212d8561023e565b60008552818101938451511515908161222c575b5061221e575b600061215d61161283516001600160a01b031690565b835194858092632d43cbef60e21b82525afa92831561089957600093612203575b5060208101938451612196906001600160a01b031690565b94815196608084019788519786519889926020840163ea9cd3bf60e01b905260248401926121c393611a01565b0393601f199485810189526121d89089610277565b516001600160a01b031691516001600160a01b03169251975185519889946116b99460208701611b78565b61221791933d8091833e61088a8183610277565b913861217e565b61222781611f24565b612147565b602091508201511038612141565b61226d8161158061157b6060967f0000000000000000000000000000000000000000000000000000000000000000611781565b612275611743565b5060206040820180516001815180151580612315575b612307575b01905251511161187b57602091611580826000876122d19501526122b381611fe9565b61158a6115ce6040516115c8816105818a820190600a602083019252565b926122da611743565b508301511015611719576115ce6122f19183611ef7565b604051906122fe8261023e565b60008252611c9b565b61231086611f24565b612290565b5084898701511061228b565b6123548161158061157b6060957f0000000000000000000000000000000000000000000000000000000000000000611781565b9161235d611743565b50602060408401805160018151801515806123db575b6123cd575b01905251511161187b57826000611580926123b795015261239881611fe9565b61158a6115ce6040516115c88161058160208201906003602083019252565b604051906123c48261023e565b60008252611dd6565b6123d688611f24565b612378565b50848689015110612373565b60006103706123fc9261245b959436916102b5565b6002546040516bffffffffffffffffffffffff19606084901b1660208201526014815292509061246790601f1990612435603486610277565b604051968791602083016014916bffffffffffffffffffffffff199060601b1681520190565b03908101865285610277565b92604051612478816106f18161062a565b92600092919056fea264697066735822122057efd8edd61e828b8c697ad27a1b3e1aa9e8aa92e5b54cb205f22f0372e80d4464736f6c63430008130033",
  "devdoc": {
    "kind": "dev",
    "methods": {
      "constructor": {
        "params": {
          "_ens": "The ENS registry address",
          "_graphqlUrl": "The offchain/l2 graphql endpoint url",
          "_l2ResolverCoinType": "The chainId at which the resolver resolves data from. 0 if storageLocation is offChain",
          "_nameWrapper": "The ENS name wrapper address",
          "_verifier": "The chain verifier address"
        }
      },
      "getStorageSlotsCallback(bytes,bytes)": {
        "details": "Internal callback function invoked by CCIP-Read in response to a `getStorageSlots` request."
      },
      "getTarget(bytes)": {
        "details": "Returns the L2 target address that can answer queries for `name`.",
        "params": {
          "name": "DNS encoded ENS name to query"
        },
        "returns": {
          "node": "The node of the name",
          "target": "The L2 resolver address to verify against."
        }
      },
      "metadata(bytes)": {
        "details": "This function provides metadata about the L1 Resolver, including its name, coin type, GraphQL URL, storage type, and encoded information.",
        "params": {
          "name": "The domain name in format (dnsEncoded)"
        },
        "returns": {
          "_0": "coinType The cointype of the chain the target contract locates such as Optimism, Base, Arb, etc",
          "_1": "graphqlUrl The GraphQL URL used by the resolver",
          "_2": "storageType Storage Type (0 for EVM)",
          "_3": "storageLocation The storage identifier. For EVM chains, this is the address of the resolver contract.",
          "_4": "context. An identifier used by l2 graph indexer for Domain schema id (`context-namehash`) allowing multiple resolver contracts to have own namespace."
        }
      },
      "resolve(bytes,bytes)": {
        "details": "Resolve and verify a record stored in l2 target address. It supports subname by fetching target recursively to the nearlest parent.",
        "params": {
          "data": "The actual calldata",
          "name": "DNS encoded ENS name to query"
        },
        "returns": {
          "result": "result of the call"
        }
      },
      "setTarget(bytes,address)": {
        "params": {
          "name": "The encoded name to query.",
          "target": "The L2 resolver address to verify against."
        }
      },
      "supportsInterface(bytes4)": {
        "details": "See {IERC165-supportsInterface}."
      }
    },
    "version": 1
  },
  "userdoc": {
    "kind": "user",
    "methods": {
      "metadata(bytes)": {
        "notice": "Get metadata about the L1 Resolver"
      },
      "setTarget(bytes,address)": {
        "notice": "Set target address to verify aagainst"
      }
    },
    "version": 1
  },
  "storageLayout": {
    "storage": [
      {
        "astId": 18375,
        "contract": "contracts/L1Resolver.sol:L1Resolver",
        "label": "targets",
        "offset": 0,
        "slot": "0",
        "type": "t_mapping(t_bytes32,t_address)"
      },
      {
        "astId": 18392,
        "contract": "contracts/L1Resolver.sol:L1Resolver",
        "label": "graphqlUrl",
        "offset": 0,
        "slot": "1",
        "type": "t_string_storage"
      },
      {
        "astId": 18394,
        "contract": "contracts/L1Resolver.sol:L1Resolver",
        "label": "l2ResolverCoinType",
        "offset": 0,
        "slot": "2",
        "type": "t_uint256"
      }
    ],
    "types": {
      "t_address": {
        "encoding": "inplace",
        "label": "address",
        "numberOfBytes": "20"
      },
      "t_bytes32": {
        "encoding": "inplace",
        "label": "bytes32",
        "numberOfBytes": "32"
      },
      "t_mapping(t_bytes32,t_address)": {
        "encoding": "mapping",
        "key": "t_bytes32",
        "label": "mapping(bytes32 => address)",
        "numberOfBytes": "32",
        "value": "t_address"
      },
      "t_string_storage": {
        "encoding": "bytes",
        "label": "string",
        "numberOfBytes": "32"
      },
      "t_uint256": {
        "encoding": "inplace",
        "label": "uint256",
        "numberOfBytes": "32"
      }
    }
  }
}