{
  "address": "0xe9dA7B5a6C12012cDEdc7DAae1DA233dB0aA6e93",
  "abi": [
    {
      "inputs": [
        {
          "internalType": "contract IEVMVerifier",
          "name": "_verifier",
          "type": "address"
        },
        {
          "internalType": "contract ENS",
          "name": "_ens",
          "type": "address"
        },
        {
          "internalType": "contract INameWrapper",
          "name": "_nameWrapper",
          "type": "address"
        }
      ],
      "stateMutability": "nonpayable",
      "type": "constructor"
    },
    {
      "inputs": [],
      "name": "CommandTooLong",
      "type": "error"
    },
    {
      "inputs": [
        {
          "internalType": "uint256",
          "name": "value",
          "type": "uint256"
        },
        {
          "internalType": "uint256",
          "name": "max",
          "type": "uint256"
        }
      ],
      "name": "InvalidReference",
      "type": "error"
    },
    {
      "inputs": [
        {
          "internalType": "address",
          "name": "sender",
          "type": "address"
        },
        {
          "internalType": "string[]",
          "name": "urls",
          "type": "string[]"
        },
        {
          "internalType": "bytes",
          "name": "callData",
          "type": "bytes"
        },
        {
          "internalType": "bytes4",
          "name": "callbackFunction",
          "type": "bytes4"
        },
        {
          "internalType": "bytes",
          "name": "extraData",
          "type": "bytes"
        }
      ],
      "name": "OffchainLookup",
      "type": "error"
    },
    {
      "inputs": [
        {
          "internalType": "uint256",
          "name": "actual",
          "type": "uint256"
        },
        {
          "internalType": "uint256",
          "name": "expected",
          "type": "uint256"
        }
      ],
      "name": "ResponseLengthMismatch",
      "type": "error"
    },
    {
      "inputs": [
        {
          "internalType": "uint256",
          "name": "max",
          "type": "uint256"
        }
      ],
      "name": "TooManyCommands",
      "type": "error"
    },
    {
      "anonymous": false,
      "inputs": [
        {
          "indexed": true,
          "internalType": "bytes32",
          "name": "node",
          "type": "bytes32"
        },
        {
          "indexed": false,
          "internalType": "address",
          "name": "target",
          "type": "address"
        }
      ],
      "name": "TargetSet",
      "type": "event"
    },
    {
      "inputs": [
        {
          "internalType": "bytes[]",
          "name": "values",
          "type": "bytes[]"
        },
        {
          "internalType": "bytes",
          "name": "",
          "type": "bytes"
        }
      ],
      "name": "addrCallback",
      "outputs": [
        {
          "internalType": "bytes",
          "name": "",
          "type": "bytes"
        }
      ],
      "stateMutability": "pure",
      "type": "function"
    },
    {
      "inputs": [
        {
          "internalType": "bytes[]",
          "name": "values",
          "type": "bytes[]"
        },
        {
          "internalType": "bytes",
          "name": "",
          "type": "bytes"
        }
      ],
      "name": "addrCoinTypeCallback",
      "outputs": [
        {
          "internalType": "bytes",
          "name": "",
          "type": "bytes"
        }
      ],
      "stateMutability": "pure",
      "type": "function"
    },
    {
      "inputs": [
        {
          "internalType": "bytes[]",
          "name": "values",
          "type": "bytes[]"
        },
        {
          "internalType": "bytes",
          "name": "",
          "type": "bytes"
        }
      ],
      "name": "contenthashCallback",
      "outputs": [
        {
          "internalType": "bytes",
          "name": "",
          "type": "bytes"
        }
      ],
      "stateMutability": "pure",
      "type": "function"
    },
    {
      "inputs": [
        {
          "internalType": "bytes",
          "name": "response",
          "type": "bytes"
        },
        {
          "internalType": "bytes",
          "name": "extradata",
          "type": "bytes"
        }
      ],
      "name": "getStorageSlotsCallback",
      "outputs": [],
      "stateMutability": "nonpayable",
      "type": "function"
    },
    {
      "inputs": [
        {
          "internalType": "bytes",
          "name": "name",
          "type": "bytes"
        },
        {
          "internalType": "uint256",
          "name": "offset",
          "type": "uint256"
        }
      ],
      "name": "getTarget",
      "outputs": [
        {
          "internalType": "bytes32",
          "name": "node",
          "type": "bytes32"
        },
        {
          "internalType": "address",
          "name": "target",
          "type": "address"
        }
      ],
      "stateMutability": "view",
      "type": "function"
    },
    {
      "inputs": [
        {
          "internalType": "bytes",
          "name": "name",
          "type": "bytes"
        },
        {
          "internalType": "bytes",
          "name": "data",
          "type": "bytes"
        }
      ],
      "name": "resolve",
      "outputs": [
        {
          "internalType": "bytes",
          "name": "result",
          "type": "bytes"
        }
      ],
      "stateMutability": "view",
      "type": "function"
    },
    {
      "inputs": [
        {
          "internalType": "bytes32",
          "name": "node",
          "type": "bytes32"
        },
        {
          "internalType": "address",
          "name": "target",
          "type": "address"
        }
      ],
      "name": "setTarget",
      "outputs": [],
      "stateMutability": "nonpayable",
      "type": "function"
    },
    {
      "inputs": [
        {
          "internalType": "bytes[]",
          "name": "values",
          "type": "bytes[]"
        },
        {
          "internalType": "bytes",
          "name": "",
          "type": "bytes"
        }
      ],
      "name": "textCallback",
      "outputs": [
        {
          "internalType": "bytes",
          "name": "",
          "type": "bytes"
        }
      ],
      "stateMutability": "pure",
      "type": "function"
    }
  ],
  "transactionHash": "0x9228882109737b389e81cc08ffa05ff24765ba581758b188f51ac23cbd29bd99",
  "args": [
    "0x30844dB565Ba1757085d6b298C1D4E8481Dab8C4",
    "0x00000000000C2E074eC69A0dFb2997BA6C7d2e1e",
    "0x0635513f179D50A207757E05759CbD106d7dFcE8"
  ],
  "numDeployments": 1,
  "solcInputHash": "995b8d5e700b4a89099bc4becfb98a3a",
  "bytecode": "0x60e034620001a257601f6200203338819003918201601f191683019291906001600160401b03841183851017620001a7578160609284926040968752833981010312620001a25780516001600160a01b03918282169190828203620001a25760208101519284841691828503620001a257860151948516808603620001a257156200015f57156200011b5715620000d75760805260a05260c05251611e759081620001be8239608051818181610faf01528181611b5001528181611ca10152611d88015260a05181610447015260c0518161047e0152f35b835162461bcd60e51b815260206004820152601c60248201527f52656769737472792061646472657373206d75737420626520736574000000006044820152606490fd5b845162461bcd60e51b815260206004820152601c60248201527f56657269666965722061646472657373206d75737420626520736574000000006044820152606490fd5b6064865162461bcd60e51b815260206004820152602060248201527f4e616d6520577261707065722061646472657373206d757374206265207365746044820152fd5b600080fd5b634e487b7160e01b600052604160045260246000fdfe6080604052600436101561001257600080fd5b6000803560e01c9081632ec7385a146100905750806338bf92e6146100775780634280bfb51461008b5780635bdaa916146100865780639061b92314610081578063de9abe5e14610077578063f470901a1461007c5763fcd2e3811461007757600080fd5b61036d565b61087a565b610713565b6105eb565b6103e6565b346100e65760403660031901126100e6576004359067ffffffffffffffff82116100e65760406001600160a01b036100d76100ce36600487016101d3565b60243590610dd8565b83519182529091166020820152f35b80fd5b634e487b7160e01b600052604160045260246000fd5b6040810190811067ffffffffffffffff82111761011b57604052565b6100e9565b6020810190811067ffffffffffffffff82111761011b57604052565b610420810190811067ffffffffffffffff82111761011b57604052565b90601f8019910116810190811067ffffffffffffffff82111761011b57604052565b67ffffffffffffffff811161011b57601f01601f191660200190565b9291926101a38261017b565b916101b16040519384610159565b8294818452818301116101ce578281602093846000960137010152565b600080fd5b9080601f830112156101ce578160206101ee93359101610197565b90565b67ffffffffffffffff811161011b5760051b60200190565b9080601f830112156101ce57813590610221826101f1565b9261022f6040519485610159565b828452602092838086019160051b830101928084116101ce57848301915b84831061025d5750505050505090565b823567ffffffffffffffff81116101ce57869161027f848480948901016101d3565b81520192019161024d565b9060406003198301126101ce5767ffffffffffffffff6004358181116101ce57836102b791600401610209565b926024359182116101ce576101ee916004016101d3565b60005b8381106102e15750506000910152565b81810151838201526020016102d1565b9060209161030a815180928185528580860191016102ce565b601f01601f1916010190565b90602091828152606051808483015260005b818110610349575060409293506000838284010152601f8019910116010190565b6080810151838201604001528401610328565b9060206101ee9281815201906102f1565b346101ce5761037b3661028a565b508051600110156103d0576103aa6103b860406103cc93015160405192839160208084015260408301906102f1565b03601f198101835282610159565b6040519182916020835260208301906102f1565b0390f35b610eba565b6001600160a01b038116036101ce57565b346101ce5760403660031901126101ce57600435602435610406816103d5565b6040517f02571be3000000000000000000000000000000000000000000000000000000008152600481018390526001600160a01b03929060209081816024817f000000000000000000000000000000000000000000000000000000000000000089165afa91821561054e578591600093610553575b507f0000000000000000000000000000000000000000000000000000000000000000821691831682146104c3575b50506104bc906104c19433911614610d18565b610d1f565b005b6040517f6352211e0000000000000000000000000000000000000000000000000000000081526004810185905295909250908290869060249082905afa801561054e576104c1956104bc93600092610521575b5050918195506104a9565b6105409250803d10610547575b6105388183610159565b810190610d8d565b3880610516565b503d61052e565b610bdc565b8161056b9294503d8511610547576105388183610159565b913861047b565b9181601f840112156101ce5782359167ffffffffffffffff83116101ce57602083818601950101116101ce57565b60406003198201126101ce5767ffffffffffffffff916004358381116101ce57826105cd91600401610572565b939093926024359182116101ce576105e791600401610572565b9091565b346101ce576106106106626000610619610604366105a0565b96918391930190610902565b94810190610955565b95936040989395929198518098819582947f3baa6d50000000000000000000000000000000000000000000000000000000008452896001600160a01b0380961660048601610b97565b0392165afa92831561054e576000936106f0575b5082519051908181036106b1576106a9846106a3876103aa87604051948593602085015260248401610be8565b30610c0d565b602081519101f35b6040517f2918942500000000000000000000000000000000000000000000000000000000815260048101919091526024810191909152604490fd5b0390fd5b61070c91933d8091833e6107048183610159565b810190610a64565b9138610676565b346101ce57610735600061073a610729366105a0565b94929095913691610197565b610dd8565b9290507fffffffff000000000000000000000000000000000000000000000000000000006107688383610ed0565b167f3b3b57de000000000000000000000000000000000000000000000000000000008114610866577ff1cb7e06000000000000000000000000000000000000000000000000000000008114610849577f59d1d43c00000000000000000000000000000000000000000000000000000000811461082c577fbc1c58d1000000000000000000000000000000000000000000000000000000001461081157604051806103cc81610316565b816108279261081f92610f14565b810190610f31565b611d79565b50816108439261083b92610f14565b810190610f56565b90611c92565b50816108609261085892610f14565b810190610f40565b90611b33565b50816108759261081f92610f14565b610f96565b346101ce576108883661028a565b508051600110156103d0576103aa6108e160406103cc93015160208151910151906bffffffffffffffffffffffff199182811691601481106108ed575b50506040805160609290921c6020830152909384925090820190565b6040519182918261035c565b8391925060140360031b1b16168038806108c5565b906020828203126101ce57813567ffffffffffffffff81116101ce576101ee92016101d3565b35907fffffffff00000000000000000000000000000000000000000000000000000000821682036101ce57565b91909160c0818403126101ce57803561096d816103d5565b9260208083013561097d816103d5565b9367ffffffffffffffff9160408501358381116101ce5785019084601f830112156101ce578135916109ae836101f1565b926109bc6040519485610159565b808452828085019160051b830101918783116101ce578301905b828210610a1e57505050509360608101358381116101ce57846109fa918301610209565b93610a0760808301610928565b9360a08301359081116101ce576101ee92016101d3565b813581529083019083016109d6565b90929192610a3a8161017b565b91610a486040519384610159565b8294828452828201116101ce576020610a629301906102ce565b565b9060209081838203126101ce57825167ffffffffffffffff938482116101ce57019080601f830112156101ce578151610a9c816101f1565b94604090610aac82519788610159565b828752858088019360051b860101948486116101ce57868101935b868510610ad957505050505050505090565b84518381116101ce57820186603f820112156101ce578891610b0388838886809601519101610a2d565b815201940193610ac7565b90815180825260208080930193019160005b828110610b2e575050505090565b835185529381019392810192600101610b20565b90815180825260208092019182818360051b85019501936000915b848310610b6d5750505050505090565b9091929394958480610b8783856001950387528a516102f1565b9801930193019194939290610b5d565b92610bc06101ee95936001600160a01b03610bce94168652608060208701526080860190610b0e565b908482036040860152610b42565b9160608184039101526102f1565b6040513d6000823e3d90fd5b9091610bff6101ee93604084526040840190610b42565b9160208184039101526102f1565b906101ee9160008060405193610c22856100ff565b601e85527f416464726573733a206c6f772d6c6576656c2063616c6c206661696c65640000602086015260208151910182855af13d15610c84573d91610c678361017b565b92610c756040519485610159565b83523d6000602085013e610c88565b6060915b91929015610ce95750815115610c9c575090565b3b15610ca55790565b606460405162461bcd60e51b815260206004820152601d60248201527f416464726573733a2063616c6c20746f206e6f6e2d636f6e74726163740000006044820152fd5b825190915015610cfc5750805190602001fd5b6106ec9060405191829162461bcd60e51b83526004830161035c565b156101ce57565b9060207faf930f9068b0eb51ed43cbf5948d6bab0229ebadb371dd850de50b9d6d30106a9183600052600082526001600160a01b036040600020911690817fffffffffffffffffffffffff0000000000000000000000000000000000000000825416179055604051908152a2565b908160209103126101ce57516101ee816103d5565b634e487b7160e01b600052601160045260246000fd5b9060018201809211610dc657565b610da2565b91908201809211610dc657565b91909180518310156103d0576020838201015160f81c8015610e945790610e1d610e1883610e12610e2395610e0c89610db8565b86610ea0565b96610dcb565b610db8565b90610dd8565b60408051602081019384529081019490945292610e4381606081016103aa565b5190206001600160a01b03610e72610e65836000526000602052604060002090565b546001600160a01b031690565b16610e7b579190565b91506101ee610e65836000526000602052604060002090565b50509050600090600090565b90828101808211610dc6578251106101ce57016020012090565b634e487b7160e01b600052603260045260246000fd5b7fffffffff000000000000000000000000000000000000000000000000000000009035818116939260048110610f0557505050565b60040360031b82901b16169150565b90929192836004116101ce5783116101ce57600401916003190190565b908160209103126101ce573590565b91908260409103126101ce576020823592013590565b91906040838203126101ce5782359260208101359067ffffffffffffffff82116101ce57019080601f830112156101ce578160206101ee93359101610197565b610fe790610fd8610fe2610fdd83610fd8610fd36060987f00000000000000000000000000000000000000000000000000000000000000006111d9565b611277565b611397565b611320565b6113cb565b90610ff061119b565b5081019060209081835110156111715760049060409061102c6110268351603c87820152868152611020816100ff565b8361194f565b82611ab7565b81519361103885610120565b60008552828201958187515115159182611166575b5050611158575b600061107661106a84516001600160a01b031690565b6001600160a01b031690565b845195868092632d43cbef60e21b82525afa93841561054e5760009461113d575b5081810180516001600160a01b031695875160808501908151988751998a9287840163ea9cd3bf60e01b905260248401926110d193611459565b0394601f19958681018a526110e6908a610159565b516001600160a01b031692516001600160a01b031698519051908651998a958601946111119561148d565b0390810185526111219085610159565b51630556f18360e41b81529283926106ec923060048601611637565b61115191943d8091833e6107048183610159565b9238611097565b6111618261197c565b611054565b51109050813861104d565b60046040517fb00fd638000000000000000000000000000000000000000000000000000000008152fd5b6040519060a0820182811067ffffffffffffffff82111761011b57604052606060808360008152600060208201528260408201526000838201520152565b906111e261119b565b506040516111ef8161013c565b602092838252610400928336868501376040519361120c8561013c565b8560005b8281106112675750505060008352600084526040519460a0860186811067ffffffffffffffff82111761011b576040526001600160a01b039283168652911690840152604083015260006060830152608082015290565b6060828289010152018690611210565b61127f61119b565b5060206040820180516001815180151580611313575b611305575b0190525151116112d357600060608201526112b4816119f5565b6101ee611026604051611020816103aa60208201906000602083019252565b6040517f128e700800000000000000000000000000000000000000000000000000000000815260206004820152602490fd5b61130e8661197c565b61129a565b5084606087015110611295565b61132861119b565b506020604082018051600181518015158061138a575b61137c575b0190525151116112d3576000606082015261135d81611a41565b6101ee611026604051611020816103aa60208201906002602083019252565b6113858661197c565b611343565b508460608701511061133e565b906113a061119b565b50602060608301511015611171576110266101ee9160405190602082015260208152611020816100ff565b6113d361119b565b506060810160208151101561117157604082019081515160001991828201918211610dc65761140382855161193b565b51908051938414610dc6576001840190526001600160fd1b0383168303610dc6577f20000000000000000000000000000000000000000000000000000000000000006114559360031b1c17925161193b565b5290565b9161147f906001600160a01b036101ee9593168452606060208501526060840190610b0e565b916040818403910152610b42565b93906101ee95936114c0916114ce946001600160a01b03809216885216602087015260c0604087015260c0860190610b0e565b908482036060860152610b42565b917ff470901a00000000000000000000000000000000000000000000000000000000608082015260a08184039101526102f1565b93906101ee95936114c091611535946001600160a01b03809216885216602087015260c0604087015260c0860190610b0e565b917fde9abe5e00000000000000000000000000000000000000000000000000000000608082015260a08184039101526102f1565b93906101ee95936114c09161159c946001600160a01b03809216885216602087015260c0604087015260c0860190610b0e565b917ffcd2e38100000000000000000000000000000000000000000000000000000000608082015260a08184039101526102f1565b93906101ee95936114c091611603946001600160a01b03809216885216602087015260c0604087015260c0860190610b0e565b917f38bf92e600000000000000000000000000000000000000000000000000000000608082015260a08184039101526102f1565b9290949391946001600160a01b0360a085019116845260209060a082860152865180915260c08501918060c08360051b8801019801926000905b8382106116c75750505050508461169391846101ee96970360408601526102f1565b7f5bdaa9160000000000000000000000000000000000000000000000000000000060608401529160808184039101526102f1565b909192939883806116e460019360bf198c82030186528d516102f1565b9b019201920190939291611671565b60046040820191825151151580611820575b611812575b600061172061106a83516001600160a01b031690565b60405193848092632d43cbef60e21b82525afa91821561054e576000926117f7575b506020810192835161175a906001600160a01b031690565b9381519560808401968751966040519788926020840163ea9cd3bf60e01b9052602484019261178893611459565b0393601f1994858101885261179d9088610159565b516001600160a01b031691516001600160a01b0316925196516040519788946117c99460208701611502565b0390810184526117d99084610159565b604051630556f18360e41b81529283926106ec923060048601611637565b61180b91923d8091833e6107048183610159565b9038611742565b61181b8161197c565b61170a565b506020606082015110611705565b6004604082019182515115158061192d575b61191f575b600061185b61106a83516001600160a01b031690565b60405193848092632d43cbef60e21b82525afa91821561054e57600092611904575b5060208101928351611895906001600160a01b031690565b9381519560808401968751966040519788926020840163ea9cd3bf60e01b905260248401926118c393611459565b0393601f199485810188526118d89088610159565b516001600160a01b031691516001600160a01b0316925196516040519788946117c99460208701611569565b61191891923d8091833e6107048183610159565b903861187d565b6119288161197c565b611845565b506020606082015110611840565b80518210156103d05760209160051b010190565b60806119799193929301519260ff845116938491600183018252611973838361193b565b5261193b565b50565b604081019081515160001991828201918211610dc657606061199f83865161193b565b5191018051938414610dc6576001840190526001600160fd1b0383168303610dc6577fff000000000000000000000000000000000000000000000000000000000000006119f29360031b1c17925161193b565b52565b60408101805151600019808201918211610dc6576060611a1683855161193b565b5194018051918214610dc6576001820190526001600160fd1b03811603610dc6576119f2915161193b565b604081019081515160001991828201918211610dc6576060611a6483865161193b565b5191018051938414610dc6576001840190526001600160fd1b0383168303610dc6577f01000000000000000000000000000000000000000000000000000000000000006119f29360031b1c17925161193b565b60408101805151909291600019808301928311610dc6576060611adb84875161193b565b5192018051918214610dc6576001820190526001600160fd1b0381168103610dc6577fff000000000000000000000000000000000000000000000000000000000000006119f29460f81b169060031b1c17925161193b565b90610fd8611b7492610fd8610fe2610fdd83610fd8610fd360609a7f00000000000000000000000000000000000000000000000000000000000000006111d9565b9060046040805193611b8585610120565b600085528181019384515115159081611c84575b50611c76575b6000611bb561106a83516001600160a01b031690565b835194858092632d43cbef60e21b82525afa92831561054e57600093611c5b575b5060208101938451611bee906001600160a01b031690565b94815196608084019788519786519889926020840163ea9cd3bf60e01b90526024840192611c1b93611459565b0393601f19948581018952611c309089610159565b516001600160a01b031691516001600160a01b031692519751855198899461111194602087016115d0565b611c6f91933d8091833e6107048183610159565b9138611bd6565b611c7f8161197c565b611b9f565b602091508201511038611b99565b611cc581610fd8610fd36060967f00000000000000000000000000000000000000000000000000000000000000006111d9565b611ccd61119b565b5060206040820180516001815180151580611d6d575b611d5f575b0190525151116112d357602091610fd882600087611d29950152611d0b81611a41565b610fe2611026604051611020816103aa8a820190600a602083019252565b92611d3261119b565b50830151101561117157611026611d49918361194f565b60405190611d5682610120565b600082526116f3565b611d688661197c565b611ce8565b50848987015110611ce3565b611dac81610fd8610fd36060957f00000000000000000000000000000000000000000000000000000000000000006111d9565b91611db561119b565b5060206040840180516001815180151580611e33575b611e25575b0190525151116112d357826000610fd892611e0f950152611df081611a41565b610fe2611026604051611020816103aa60208201906003602083019252565b60405190611e1c82610120565b6000825261182e565b611e2e8861197c565b611dd0565b50848689015110611dcb56fea2646970667358221220ff31a0ccab110b2ac93540fc6a5912ecc3487d2db1f13398881a814d3b69a05464736f6c63430008130033",
  "devdoc": {
    "kind": "dev",
    "methods": {
      "getStorageSlotsCallback(bytes,bytes)": {
        "details": "Internal callback function invoked by CCIP-Read in response to a `getStorageSlots` request."
      },
      "getTarget(bytes,uint256)": {
        "details": "Returns the L2 target address that can answer queries for `name`.",
        "params": {
          "name": "DNS encoded ENS name to query",
          "offset": "The offset of the label to query recursively."
        },
        "returns": {
          "node": "The node of the name",
          "target": "The L2 resolver address to verify against."
        }
      },
      "resolve(bytes,bytes)": {
        "details": "Resolve and verify a record stored in l2 target address. It supports subname by fetching target recursively to the nearlest parent.",
        "params": {
          "data": "The actual calldata",
          "name": "DNS encoded ENS name to query"
        },
        "returns": {
          "result": "result of the call"
        }
      },
      "setTarget(bytes32,address)": {
        "params": {
          "node": "The ENS node to query.",
          "target": "The L2 resolver address to verify against."
        }
      }
    },
    "version": 1
  },
  "userdoc": {
    "kind": "user",
    "methods": {
      "setTarget(bytes32,address)": {
        "notice": "Set target address to verify aagainst"
      }
    },
    "version": 1
  },
  "storageLayout": {
    "storage": [
      {
        "astId": 17541,
        "contract": "contracts/L1Resolver.sol:L1Resolver",
        "label": "targets",
        "offset": 0,
        "slot": "0",
        "type": "t_mapping(t_bytes32,t_address)"
      }
    ],
    "types": {
      "t_address": {
        "encoding": "inplace",
        "label": "address",
        "numberOfBytes": "20"
      },
      "t_bytes32": {
        "encoding": "inplace",
        "label": "bytes32",
        "numberOfBytes": "32"
      },
      "t_mapping(t_bytes32,t_address)": {
        "encoding": "mapping",
        "key": "t_bytes32",
        "label": "mapping(bytes32 => address)",
        "numberOfBytes": "32",
        "value": "t_address"
      }
    }
  }
}