{
  "address": "0xDf11Ca83b42F94336E50D02AF0016D5A1c866C5e",
  "abi": [
    {
      "inputs": [
        {
          "internalType": "contract IEVMVerifier",
          "name": "_verifier",
          "type": "address"
        },
        {
          "internalType": "address",
          "name": "_target",
          "type": "address"
        }
      ],
      "stateMutability": "nonpayable",
      "type": "constructor"
    },
    {
      "inputs": [],
      "name": "CommandTooLong",
      "type": "error"
    },
    {
      "inputs": [
        {
          "internalType": "uint256",
          "name": "value",
          "type": "uint256"
        },
        {
          "internalType": "uint256",
          "name": "max",
          "type": "uint256"
        }
      ],
      "name": "InvalidReference",
      "type": "error"
    },
    {
      "inputs": [
        {
          "internalType": "address",
          "name": "sender",
          "type": "address"
        },
        {
          "internalType": "string[]",
          "name": "urls",
          "type": "string[]"
        },
        {
          "internalType": "bytes",
          "name": "callData",
          "type": "bytes"
        },
        {
          "internalType": "bytes4",
          "name": "callbackFunction",
          "type": "bytes4"
        },
        {
          "internalType": "bytes",
          "name": "extraData",
          "type": "bytes"
        }
      ],
      "name": "OffchainLookup",
      "type": "error"
    },
    {
      "inputs": [
        {
          "internalType": "uint256",
          "name": "actual",
          "type": "uint256"
        },
        {
          "internalType": "uint256",
          "name": "expected",
          "type": "uint256"
        }
      ],
      "name": "ResponseLengthMismatch",
      "type": "error"
    },
    {
      "inputs": [
        {
          "internalType": "uint256",
          "name": "max",
          "type": "uint256"
        }
      ],
      "name": "TooManyCommands",
      "type": "error"
    },
    {
      "anonymous": false,
      "inputs": [
        {
          "indexed": true,
          "internalType": "bytes32",
          "name": "node",
          "type": "bytes32"
        },
        {
          "indexed": false,
          "internalType": "string",
          "name": "name",
          "type": "string"
        }
      ],
      "name": "NameChanged",
      "type": "event"
    },
    {
      "anonymous": false,
      "inputs": [
        {
          "indexed": true,
          "internalType": "bytes32",
          "name": "node",
          "type": "bytes32"
        },
        {
          "indexed": true,
          "internalType": "string",
          "name": "indexedKey",
          "type": "string"
        },
        {
          "indexed": false,
          "internalType": "string",
          "name": "key",
          "type": "string"
        },
        {
          "indexed": false,
          "internalType": "string",
          "name": "value",
          "type": "string"
        }
      ],
      "name": "TextChanged",
      "type": "event"
    },
    {
      "inputs": [
        {
          "internalType": "bytes",
          "name": "response",
          "type": "bytes"
        },
        {
          "internalType": "bytes",
          "name": "extradata",
          "type": "bytes"
        }
      ],
      "name": "getStorageSlotsCallback",
      "outputs": [],
      "stateMutability": "nonpayable",
      "type": "function"
    },
    {
      "inputs": [
        {
          "internalType": "bytes32",
          "name": "node",
          "type": "bytes32"
        }
      ],
      "name": "name",
      "outputs": [
        {
          "internalType": "string",
          "name": "",
          "type": "string"
        }
      ],
      "stateMutability": "view",
      "type": "function"
    },
    {
      "inputs": [
        {
          "internalType": "bytes[]",
          "name": "values",
          "type": "bytes[]"
        },
        {
          "internalType": "bytes",
          "name": "",
          "type": "bytes"
        }
      ],
      "name": "nameCallback",
      "outputs": [
        {
          "internalType": "string",
          "name": "",
          "type": "string"
        }
      ],
      "stateMutability": "pure",
      "type": "function"
    },
    {
      "inputs": [
        {
          "internalType": "bytes4",
          "name": "interfaceId",
          "type": "bytes4"
        }
      ],
      "name": "supportsInterface",
      "outputs": [
        {
          "internalType": "bool",
          "name": "",
          "type": "bool"
        }
      ],
      "stateMutability": "view",
      "type": "function"
    },
    {
      "inputs": [
        {
          "internalType": "bytes32",
          "name": "node",
          "type": "bytes32"
        },
        {
          "internalType": "string",
          "name": "key",
          "type": "string"
        }
      ],
      "name": "text",
      "outputs": [
        {
          "internalType": "string",
          "name": "",
          "type": "string"
        }
      ],
      "stateMutability": "view",
      "type": "function"
    },
    {
      "inputs": [
        {
          "internalType": "bytes[]",
          "name": "values",
          "type": "bytes[]"
        },
        {
          "internalType": "bytes",
          "name": "",
          "type": "bytes"
        }
      ],
      "name": "textCallback",
      "outputs": [
        {
          "internalType": "string",
          "name": "",
          "type": "string"
        }
      ],
      "stateMutability": "pure",
      "type": "function"
    }
  ],
  "transactionHash": "0x6fff073cb76bde70f30a76fbb996dd509cd773195a5fb04f010cae26329496e7",
  "args": [
    "0xAdef74372444e716C0473dEe1F9Cb3108EFa3818",
    "0x4166B7e70F14C48980Da362256D1Da9Cc8F95e13"
  ],
  "numDeployments": 1,
  "solcInputHash": "82230a92851c1800498f571d3f1bd7cb",
  "bytecode": "0x60c06040523480156200001157600080fd5b506040516200269a3803806200269a833981810160405281019062000037919062000156565b8173ffffffffffffffffffffffffffffffffffffffff1660808173ffffffffffffffffffffffffffffffffffffffff16815250508073ffffffffffffffffffffffffffffffffffffffff1660a08173ffffffffffffffffffffffffffffffffffffffff168152505050506200019d565b600080fd5b600073ffffffffffffffffffffffffffffffffffffffff82169050919050565b6000620000d982620000ac565b9050919050565b6000620000ed82620000cc565b9050919050565b620000ff81620000e0565b81146200010b57600080fd5b50565b6000815190506200011f81620000f4565b92915050565b6200013081620000cc565b81146200013c57600080fd5b50565b600081519050620001508162000125565b92915050565b6000806040838503121562000170576200016f620000a7565b5b600062000180858286016200010e565b925050602062000193858286016200013f565b9150509250929050565b60805160a0516124c9620001d16000396000818161031d01526105b40152600081816102fc015261059301526124c96000f3fe608060405234801561001057600080fd5b50600436106100625760003560e01c806301ffc9a7146100675780632682dd661461009757806359d1d43c146100c75780635bdaa916146100f7578063691f343114610113578063de9abe5e14610143575b600080fd5b610081600480360381019061007c919061106b565b610173565b60405161008e91906110b3565b60405180910390f35b6100b160048036038101906100ac91906112fa565b610255565b6040516100be91906113f1565b60405180910390f35b6100e160048036038101906100dc91906114a4565b61027b565b6040516100ee91906113f1565b60405180910390f35b610111600480360381019061010c919061155a565b6103ab565b005b61012d600480360381019061012891906115db565b61055a565b60405161013a91906113f1565b60405180910390f35b61015d600480360381019061015891906112fa565b610632565b60405161016a91906113f1565b60405180910390f35b60007f59d1d43c000000000000000000000000000000000000000000000000000000007bffffffffffffffffffffffffffffffffffffffffffffffffffffffff1916827bffffffffffffffffffffffffffffffffffffffffffffffffffffffff1916148061023e57507f691f3431000000000000000000000000000000000000000000000000000000007bffffffffffffffffffffffffffffffffffffffffffffffffffffffff1916827bffffffffffffffffffffffffffffffffffffffffffffffffffffffff1916145b8061024e575061024d82610658565b5b9050919050565b60608260018151811061026b5761026a611608565b5b6020026020010151905092915050565b60606103a463de9abe5e60e01b6040518060200160405280600081525061039586868080601f016020809104026020016040519081016040528093929190818152602001838380828437600081840152601f19601f8201169050808301925050505050505061038789610379600061036b600261035d8f61034f60046103417f00000000000000000000000000000000000000000000000000000000000000007f00000000000000000000000000000000000000000000000000000000000000006106c2565b6107d190919063ffffffff16565b6108b290919063ffffffff16565b61093390919063ffffffff16565b610a1490919063ffffffff16565b6108b290919063ffffffff16565b610ad290919063ffffffff16565b610b349092919063ffffffff16565b9392505050565b600084848101906103bc9190611637565b905060008060008060008088888101906103d691906117f1565b95509550955095509550955060008673ffffffffffffffffffffffffffffffffffffffff16633baa6d508787878c6040518563ffffffff1660e01b81526004016104239493929190611b00565b600060405180830381865afa158015610440573d6000803e3d6000fd5b505050506040513d6000823e3d601f19601f820116820180604052508101906104699190611c7f565b905084518151146104b557805185516040517f291894250000000000000000000000000000000000000000000000000000000081526004016104ac929190611ce1565b60405180910390fd5b60006105508483856040516024016104ce929190611d0a565b604051602081830303815290604052907bffffffffffffffffffffffffffffffffffffffffffffffffffffffff19166020820180517bffffffffffffffffffffffffffffffffffffffffffffffffffffffff83818316178352505050503073ffffffffffffffffffffffffffffffffffffffff16610cbf90919063ffffffff16565b9050805160208201f35b606061062d632682dd6660e01b6040518060200160405280600081525061061e85610610600061060260036105f48b6105e660046105d87f00000000000000000000000000000000000000000000000000000000000000007f00000000000000000000000000000000000000000000000000000000000000006106c2565b6107d190919063ffffffff16565b6108b290919063ffffffff16565b61093390919063ffffffff16565b610a1490919063ffffffff16565b6108b290919063ffffffff16565b610b349092919063ffffffff16565b919050565b60608260018151811061064857610647611608565b5b6020026020010151905092915050565b60007f01ffc9a7000000000000000000000000000000000000000000000000000000007bffffffffffffffffffffffffffffffffffffffffffffffffffffffff1916827bffffffffffffffffffffffffffffffffffffffffffffffffffffffff1916149050919050565b6106ca610fa4565b6000602067ffffffffffffffff8111156106e7576106e66110e4565b5b6040519080825280602002602001820160405280156107155781602001602082028036833780820191505090505b5090506000602067ffffffffffffffff811115610735576107346110e4565b5b60405190808252806020026020018201604052801561076857816020015b60608152602001906001900390816107535790505b50905060008252600081526040518060a001604052808673ffffffffffffffffffffffffffffffffffffffff1681526020018573ffffffffffffffffffffffffffffffffffffffff16815260200183815260200160008152602001828152509250505092915050565b6107d9610fa4565b6000836040015190506000815190506000811180156107fc575060208560600151105b1561080d5761080c8560ff610d0b565b5b6001810182526020856040015151111561085f5760206040517f128e70080000000000000000000000000000000000000000000000000000000081526004016108569190611d41565b60405180910390fd5b6000856060018181525050610875856000610d0b565b6108a7856108a2878760405160200161088e9190611d41565b604051602081830303815290604052610db2565b610d0b565b849250505092915050565b6108ba610fa4565b60208360600151106108f8576040517fb00fd63800000000000000000000000000000000000000000000000000000000815260040160405180910390fd5b61092a8361092585856040516020016109119190611d6b565b604051602081830303815290604052610db2565b610d0b565b82905092915050565b61093b610fa4565b60008360400151905060008151905060008111801561095e575060208560600151105b1561096f5761096e8560ff610d0b565b5b600181018252602085604001515111156109c15760206040517f128e70080000000000000000000000000000000000000000000000000000000081526004016109b89190611d41565b60405180910390fd5b60008560600181815250506109d7856001610d0b565b610a0985610a0487876040516020016109f09190611d41565b604051602081830303815290604052610db2565b610d0b565b849250505092915050565b610a1c610fa4565b6020836060015110610a5a576040517fb00fd63800000000000000000000000000000000000000000000000000000000815260040160405180910390fd5b8260400151518260ff161180610a735750601f8260ff16115b15610abc57818360400151516040517f101586e0000000000000000000000000000000000000000000000000000000008152600401610ab3929190611dce565b60405180910390fd5b610ac98383602017610d0b565b82905092915050565b610ada610fa4565b6020836060015110610b18576040517fb00fd63800000000000000000000000000000000000000000000000000000000815260040160405180910390fd5b610b2b83610b268585610db2565b610d0b565b82905092915050565b6000836040015151118015610b4d575060208360600151105b15610b5e57610b5d8360ff610d0b565b5b30836000015173ffffffffffffffffffffffffffffffffffffffff1663b50f2fbc6040518163ffffffff1660e01b8152600401600060405180830381865afa158015610bae573d6000803e3d6000fd5b505050506040513d6000823e3d601f19601f82011682018060405250810190610bd79190611f79565b846020015185604001518660800151604051602401610bf893929190611fc2565b60405160208183030381529060405263ea9cd3bf60e01b6020820180517bffffffffffffffffffffffffffffffffffffffffffffffffffffffff8381831617835250505050635bdaa91660e01b86600001518760200151886040015189608001518989604051602001610c709695949392919061206b565b6040516020818303038152906040526040517f556f1830000000000000000000000000000000000000000000000000000000008152600401610cb69594939291906121ed565b60405180910390fd5b6060610d03838360006040518060400160405280601e81526020017f416464726573733a206c6f772d6c6576656c2063616c6c206661696c65640000815250610def565b905092915050565b60006001836040015151610d1f9190612284565b9050826060018051809190610d33906122b8565b8152506008610d429190612300565b8260f81b7effffffffffffffffffffffffffffffffffffffffffffffffffffffffffffff1916901c83604001518281518110610d8157610d80611608565b5b60200260200101511783604001518281518110610da157610da0611608565b5b602002602001018181525050505050565b600080836080015190508051915060018201815282818360ff1681518110610ddd57610ddc611608565b5b60200260200101819052505092915050565b606082471015610e34576040517f08c379a0000000000000000000000000000000000000000000000000000000008152600401610e2b906123b4565b60405180910390fd5b6000808673ffffffffffffffffffffffffffffffffffffffff168587604051610e5d9190612410565b60006040518083038185875af1925050503d8060008114610e9a576040519150601f19603f3d011682016040523d82523d6000602084013e610e9f565b606091505b5091509150610eb087838387610ebc565b92505050949350505050565b60608315610f1e576000835103610f1657610ed685610f31565b610f15576040517f08c379a0000000000000000000000000000000000000000000000000000000008152600401610f0c90612473565b60405180910390fd5b5b829050610f29565b610f288383610f54565b5b949350505050565b6000808273ffffffffffffffffffffffffffffffffffffffff163b119050919050565b600082511115610f675781518083602001fd5b806040517f08c379a0000000000000000000000000000000000000000000000000000000008152600401610f9b91906113f1565b60405180910390fd5b6040518060a00160405280600073ffffffffffffffffffffffffffffffffffffffff168152602001600073ffffffffffffffffffffffffffffffffffffffff1681526020016060815260200160008152602001606081525090565b6000604051905090565b600080fd5b600080fd5b60007fffffffff0000000000000000000000000000000000000000000000000000000082169050919050565b61104881611013565b811461105357600080fd5b50565b6000813590506110658161103f565b92915050565b60006020828403121561108157611080611009565b5b600061108f84828501611056565b91505092915050565b60008115159050919050565b6110ad81611098565b82525050565b60006020820190506110c860008301846110a4565b92915050565b600080fd5b6000601f19601f8301169050919050565b7f4e487b7100000000000000000000000000000000000000000000000000000000600052604160045260246000fd5b61111c826110d3565b810181811067ffffffffffffffff8211171561113b5761113a6110e4565b5b80604052505050565b600061114e610fff565b905061115a8282611113565b919050565b600067ffffffffffffffff82111561117a576111796110e4565b5b602082029050602081019050919050565b600080fd5b600080fd5b600067ffffffffffffffff8211156111b0576111af6110e4565b5b6111b9826110d3565b9050602081019050919050565b82818337600083830152505050565b60006111e86111e384611195565b611144565b90508281526020810184848401111561120457611203611190565b5b61120f8482856111c6565b509392505050565b600082601f83011261122c5761122b6110ce565b5b813561123c8482602086016111d5565b91505092915050565b60006112586112538461115f565b611144565b9050808382526020820190506020840283018581111561127b5761127a61118b565b5b835b818110156112c257803567ffffffffffffffff8111156112a05761129f6110ce565b5b8086016112ad8982611217565b8552602085019450505060208101905061127d565b5050509392505050565b600082601f8301126112e1576112e06110ce565b5b81356112f1848260208601611245565b91505092915050565b6000806040838503121561131157611310611009565b5b600083013567ffffffffffffffff81111561132f5761132e61100e565b5b61133b858286016112cc565b925050602083013567ffffffffffffffff81111561135c5761135b61100e565b5b61136885828601611217565b9150509250929050565b600081519050919050565b600082825260208201905092915050565b60005b838110156113ac578082015181840152602081019050611391565b60008484015250505050565b60006113c382611372565b6113cd818561137d565b93506113dd81856020860161138e565b6113e6816110d3565b840191505092915050565b6000602082019050818103600083015261140b81846113b8565b905092915050565b6000819050919050565b61142681611413565b811461143157600080fd5b50565b6000813590506114438161141d565b92915050565b600080fd5b60008083601f840112611464576114636110ce565b5b8235905067ffffffffffffffff81111561148157611480611449565b5b60208301915083600182028301111561149d5761149c61118b565b5b9250929050565b6000806000604084860312156114bd576114bc611009565b5b60006114cb86828701611434565b935050602084013567ffffffffffffffff8111156114ec576114eb61100e565b5b6114f88682870161144e565b92509250509250925092565b60008083601f84011261151a576115196110ce565b5b8235905067ffffffffffffffff81111561153757611536611449565b5b6020830191508360018202830111156115535761155261118b565b5b9250929050565b6000806000806040858703121561157457611573611009565b5b600085013567ffffffffffffffff8111156115925761159161100e565b5b61159e87828801611504565b9450945050602085013567ffffffffffffffff8111156115c1576115c061100e565b5b6115cd87828801611504565b925092505092959194509250565b6000602082840312156115f1576115f0611009565b5b60006115ff84828501611434565b91505092915050565b7f4e487b7100000000000000000000000000000000000000000000000000000000600052603260045260246000fd5b60006020828403121561164d5761164c611009565b5b600082013567ffffffffffffffff81111561166b5761166a61100e565b5b61167784828501611217565b91505092915050565b600073ffffffffffffffffffffffffffffffffffffffff82169050919050565b60006116ab82611680565b9050919050565b60006116bd826116a0565b9050919050565b6116cd816116b2565b81146116d857600080fd5b50565b6000813590506116ea816116c4565b92915050565b60006116fb82611680565b9050919050565b61170b816116f0565b811461171657600080fd5b50565b60008135905061172881611702565b92915050565b600067ffffffffffffffff821115611749576117486110e4565b5b602082029050602081019050919050565b600061176d6117688461172e565b611144565b905080838252602082019050602084028301858111156117905761178f61118b565b5b835b818110156117b957806117a58882611434565b845260208401935050602081019050611792565b5050509392505050565b600082601f8301126117d8576117d76110ce565b5b81356117e884826020860161175a565b91505092915050565b60008060008060008060c0878903121561180e5761180d611009565b5b600061181c89828a016116db565b965050602061182d89828a01611719565b955050604087013567ffffffffffffffff81111561184e5761184d61100e565b5b61185a89828a016117c3565b945050606087013567ffffffffffffffff81111561187b5761187a61100e565b5b61188789828a016112cc565b935050608061189889828a01611056565b92505060a087013567ffffffffffffffff8111156118b9576118b861100e565b5b6118c589828a01611217565b9150509295509295509295565b6118db816116a0565b82525050565b600081519050919050565b600082825260208201905092915050565b6000819050602082019050919050565b61191681611413565b82525050565b6000611928838361190d565b60208301905092915050565b6000602082019050919050565b600061194c826118e1565b61195681856118ec565b9350611961836118fd565b8060005b83811015611992578151611979888261191c565b975061198483611934565b925050600181019050611965565b5085935050505092915050565b600081519050919050565b600082825260208201905092915050565b6000819050602082019050919050565b600081519050919050565b600082825260208201905092915050565b60006119f2826119cb565b6119fc81856119d6565b9350611a0c81856020860161138e565b611a15816110d3565b840191505092915050565b6000611a2c83836119e7565b905092915050565b6000602082019050919050565b6000611a4c8261199f565b611a5681856119aa565b935083602082028501611a68856119bb565b8060005b85811015611aa45784840389528151611a858582611a20565b9450611a9083611a34565b925060208a01995050600181019050611a6c565b50829750879550505050505092915050565b600082825260208201905092915050565b6000611ad2826119cb565b611adc8185611ab6565b9350611aec81856020860161138e565b611af5816110d3565b840191505092915050565b6000608082019050611b1560008301876118d2565b8181036020830152611b278186611941565b90508181036040830152611b3b8185611a41565b90508181036060830152611b4f8184611ac7565b905095945050505050565b6000611b6d611b6884611195565b611144565b905082815260208101848484011115611b8957611b88611190565b5b611b9484828561138e565b509392505050565b600082601f830112611bb157611bb06110ce565b5b8151611bc1848260208601611b5a565b91505092915050565b6000611bdd611bd88461115f565b611144565b90508083825260208201905060208402830185811115611c0057611bff61118b565b5b835b81811015611c4757805167ffffffffffffffff811115611c2557611c246110ce565b5b808601611c328982611b9c565b85526020850194505050602081019050611c02565b5050509392505050565b600082601f830112611c6657611c656110ce565b5b8151611c76848260208601611bca565b91505092915050565b600060208284031215611c9557611c94611009565b5b600082015167ffffffffffffffff811115611cb357611cb261100e565b5b611cbf84828501611c51565b91505092915050565b6000819050919050565b611cdb81611cc8565b82525050565b6000604082019050611cf66000830185611cd2565b611d036020830184611cd2565b9392505050565b60006040820190508181036000830152611d248185611a41565b90508181036020830152611d388184611ac7565b90509392505050565b6000602082019050611d566000830184611cd2565b92915050565b611d6581611413565b82525050565b6000602082019050611d806000830184611d5c565b92915050565b600060ff82169050919050565b6000819050919050565b6000611db8611db3611dae84611d86565b611d93565b611cc8565b9050919050565b611dc881611d9d565b82525050565b6000604082019050611de36000830185611dbf565b611df06020830184611cd2565b9392505050565b600067ffffffffffffffff821115611e1257611e116110e4565b5b602082029050602081019050919050565b600067ffffffffffffffff821115611e3e57611e3d6110e4565b5b611e47826110d3565b9050602081019050919050565b6000611e67611e6284611e23565b611144565b905082815260208101848484011115611e8357611e82611190565b5b611e8e84828561138e565b509392505050565b600082601f830112611eab57611eaa6110ce565b5b8151611ebb848260208601611e54565b91505092915050565b6000611ed7611ed284611df7565b611144565b90508083825260208201905060208402830185811115611efa57611ef961118b565b5b835b81811015611f4157805167ffffffffffffffff811115611f1f57611f1e6110ce565b5b808601611f2c8982611e96565b85526020850194505050602081019050611efc565b5050509392505050565b600082601f830112611f6057611f5f6110ce565b5b8151611f70848260208601611ec4565b91505092915050565b600060208284031215611f8f57611f8e611009565b5b600082015167ffffffffffffffff811115611fad57611fac61100e565b5b611fb984828501611f4b565b91505092915050565b6000606082019050611fd760008301866118d2565b8181036020830152611fe98185611941565b90508181036040830152611ffd8184611a41565b9050949350505050565b600061202261201d61201884611680565b611d93565b611680565b9050919050565b600061203482612007565b9050919050565b600061204682612029565b9050919050565b6120568161203b565b82525050565b61206581611013565b82525050565b600060c082019050612080600083018961204d565b61208d60208301886118d2565b818103604083015261209f8187611941565b905081810360608301526120b38186611a41565b90506120c2608083018561205c565b81810360a08301526120d48184611ac7565b9050979650505050505050565b600081519050919050565b600082825260208201905092915050565b6000819050602082019050919050565b600082825260208201905092915050565b600061212982611372565b612133818561210d565b935061214381856020860161138e565b61214c816110d3565b840191505092915050565b6000612163838361211e565b905092915050565b6000602082019050919050565b6000612183826120e1565b61218d81856120ec565b93508360208202850161219f856120fd565b8060005b858110156121db57848403895281516121bc8582612157565b94506121c78361216b565b925060208a019950506001810190506121a3565b50829750879550505050505092915050565b600060a08201905061220260008301886118d2565b81810360208301526122148187612178565b905081810360408301526122288186611ac7565b9050612237606083018561205c565b81810360808301526122498184611ac7565b90509695505050505050565b7f4e487b7100000000000000000000000000000000000000000000000000000000600052601160045260246000fd5b600061228f82611cc8565b915061229a83611cc8565b92508282039050818111156122b2576122b1612255565b5b92915050565b60006122c382611cc8565b91507fffffffffffffffffffffffffffffffffffffffffffffffffffffffffffffffff82036122f5576122f4612255565b5b600182019050919050565b600061230b82611cc8565b915061231683611cc8565b925082820261232481611cc8565b9150828204841483151761233b5761233a612255565b5b5092915050565b7f416464726573733a20696e73756666696369656e742062616c616e636520666f60008201527f722063616c6c0000000000000000000000000000000000000000000000000000602082015250565b600061239e60268361137d565b91506123a982612342565b604082019050919050565b600060208201905081810360008301526123cd81612391565b9050919050565b600081905092915050565b60006123ea826119cb565b6123f481856123d4565b935061240481856020860161138e565b80840191505092915050565b600061241c82846123df565b915081905092915050565b7f416464726573733a2063616c6c20746f206e6f6e2d636f6e7472616374000000600082015250565b600061245d601d8361137d565b915061246882612427565b602082019050919050565b6000602082019050818103600083015261248c81612450565b905091905056fea2646970667358221220afaaec86b0c7316f6c3a4bf521d82e9308f1718ef909e9b50d9b1eb48dc0b1f064736f6c63430008130033",
  "devdoc": {
    "kind": "dev",
    "methods": {
      "getStorageSlotsCallback(bytes,bytes)": {
        "details": "Internal callback function invoked by CCIP-Read in response to a `getStorageSlots` request."
      },
      "name(bytes32)": {
        "params": {
          "node": "The ENS node to query."
        },
        "returns": {
          "_0": "The associated name."
        }
      },
      "supportsInterface(bytes4)": {
        "details": "See {IERC165-supportsInterface}."
      },
      "text(bytes32,string)": {
        "params": {
          "key": "The text data key to query.",
          "node": "The ENS node to query."
        },
        "returns": {
          "_0": "The associated text data."
        }
      }
    },
    "version": 1
  },
  "userdoc": {
    "kind": "user",
    "methods": {
      "name(bytes32)": {
        "notice": "Returns the address associated with an ENS node."
      },
      "text(bytes32,string)": {
        "notice": "Returns the text data associated with an ENS node and key."
      }
    },
    "version": 1
  },
  "storageLayout": {
    "storage": [],
    "types": null
  }
}