{
  "address": "0xfD2c2598382D8876BcC70f550B22d7F70Dda30b0",
  "abi": [
    {
      "inputs": [],
      "stateMutability": "nonpayable",
      "type": "constructor"
    },
    {
      "inputs": [],
      "name": "InvalidSignature",
      "type": "error"
    },
    {
      "inputs": [],
      "name": "SignatureOutOfDate",
      "type": "error"
    },
    {
      "anonymous": false,
      "inputs": [
        {
          "indexed": true,
          "internalType": "bytes32",
          "name": "node",
          "type": "bytes32"
        },
        {
          "indexed": false,
          "internalType": "string",
          "name": "name",
          "type": "string"
        }
      ],
      "name": "NameChanged",
      "type": "event"
    },
    {
      "anonymous": false,
      "inputs": [
        {
          "indexed": true,
          "internalType": "address",
          "name": "previousOwner",
          "type": "address"
        },
        {
          "indexed": true,
          "internalType": "address",
          "name": "newOwner",
          "type": "address"
        }
      ],
      "name": "OwnershipTransferred",
      "type": "event"
    },
    {
      "anonymous": false,
      "inputs": [
        {
          "indexed": true,
          "internalType": "address",
          "name": "addr",
          "type": "address"
        },
        {
          "indexed": true,
          "internalType": "bytes32",
          "name": "node",
          "type": "bytes32"
        }
      ],
      "name": "ReverseClaimed",
      "type": "event"
    },
    {
      "anonymous": false,
      "inputs": [
        {
          "indexed": true,
          "internalType": "bytes32",
          "name": "node",
          "type": "bytes32"
        },
        {
          "indexed": true,
          "internalType": "string",
          "name": "indexedKey",
          "type": "string"
        },
        {
          "indexed": false,
          "internalType": "string",
          "name": "key",
          "type": "string"
        },
        {
          "indexed": false,
          "internalType": "string",
          "name": "value",
          "type": "string"
        }
      ],
      "name": "TextChanged",
      "type": "event"
    },
    {
      "anonymous": false,
      "inputs": [
        {
          "indexed": true,
          "internalType": "bytes32",
          "name": "node",
          "type": "bytes32"
        },
        {
          "indexed": false,
          "internalType": "uint64",
          "name": "newVersion",
          "type": "uint64"
        }
      ],
      "name": "VersionChanged",
      "type": "event"
    },
    {
      "inputs": [],
      "name": "ParentNode",
      "outputs": [
        {
          "internalType": "bytes32",
          "name": "",
          "type": "bytes32"
        }
      ],
      "stateMutability": "view",
      "type": "function"
    },
    {
      "inputs": [
        {
          "internalType": "address",
          "name": "addr",
          "type": "address"
        },
        {
          "internalType": "uint256",
          "name": "inceptionDate",
          "type": "uint256"
        },
        {
          "internalType": "bytes",
          "name": "signature",
          "type": "bytes"
        }
      ],
      "name": "clearRecordsWithSignature",
      "outputs": [],
      "stateMutability": "nonpayable",
      "type": "function"
    },
    {
      "inputs": [],
      "name": "coinType",
      "outputs": [
        {
          "internalType": "uint256",
          "name": "",
          "type": "uint256"
        }
      ],
      "stateMutability": "view",
      "type": "function"
    },
    {
      "inputs": [
        {
          "internalType": "bytes32",
          "name": "",
          "type": "bytes32"
        }
      ],
      "name": "lastUpdated",
      "outputs": [
        {
          "internalType": "uint256",
          "name": "",
          "type": "uint256"
        }
      ],
      "stateMutability": "view",
      "type": "function"
    },
    {
      "inputs": [
        {
          "internalType": "address",
          "name": "addr",
          "type": "address"
        }
      ],
      "name": "name",
      "outputs": [
        {
          "internalType": "string",
          "name": "",
          "type": "string"
        }
      ],
      "stateMutability": "view",
      "type": "function"
    },
    {
      "inputs": [
        {
          "internalType": "address",
          "name": "addr",
          "type": "address"
        }
      ],
      "name": "node",
      "outputs": [
        {
          "internalType": "bytes32",
          "name": "",
          "type": "bytes32"
        }
      ],
      "stateMutability": "view",
      "type": "function"
    },
    {
      "inputs": [],
      "name": "owner",
      "outputs": [
        {
          "internalType": "address",
          "name": "",
          "type": "address"
        }
      ],
      "stateMutability": "view",
      "type": "function"
    },
    {
      "inputs": [],
      "name": "renounceOwnership",
      "outputs": [],
      "stateMutability": "nonpayable",
      "type": "function"
    },
    {
      "inputs": [
        {
          "internalType": "bytes",
          "name": "_name",
          "type": "bytes"
        },
        {
          "internalType": "bytes",
          "name": "data",
          "type": "bytes"
        }
      ],
      "name": "resolve",
      "outputs": [
        {
          "internalType": "bytes",
          "name": "result",
          "type": "bytes"
        }
      ],
      "stateMutability": "view",
      "type": "function"
    },
    {
      "inputs": [
        {
          "internalType": "address",
          "name": "addr",
          "type": "address"
        },
        {
          "internalType": "string",
          "name": "name",
          "type": "string"
        },
        {
          "internalType": "uint256",
          "name": "inceptionDate",
          "type": "uint256"
        },
        {
          "internalType": "bytes",
          "name": "signature",
          "type": "bytes"
        }
      ],
      "name": "setNameForAddrWithSignature",
      "outputs": [
        {
          "internalType": "bytes32",
          "name": "",
          "type": "bytes32"
        }
      ],
      "stateMutability": "nonpayable",
      "type": "function"
    },
    {
      "inputs": [
        {
          "internalType": "address",
          "name": "addr",
          "type": "address"
        },
        {
          "internalType": "string",
          "name": "key",
          "type": "string"
        },
        {
          "internalType": "string",
          "name": "value",
          "type": "string"
        },
        {
          "internalType": "uint256",
          "name": "inceptionDate",
          "type": "uint256"
        },
        {
          "internalType": "bytes",
          "name": "signature",
          "type": "bytes"
        }
      ],
      "name": "setTextForAddrWithSignature",
      "outputs": [
        {
          "internalType": "bytes32",
          "name": "",
          "type": "bytes32"
        }
      ],
      "stateMutability": "nonpayable",
      "type": "function"
    },
    {
      "inputs": [
        {
          "internalType": "bytes4",
          "name": "interfaceID",
          "type": "bytes4"
        }
      ],
      "name": "supportsInterface",
      "outputs": [
        {
          "internalType": "bool",
          "name": "",
          "type": "bool"
        }
      ],
      "stateMutability": "view",
      "type": "function"
    },
    {
      "inputs": [
        {
          "internalType": "address",
          "name": "addr",
          "type": "address"
        },
        {
          "internalType": "string",
          "name": "key",
          "type": "string"
        }
      ],
      "name": "text",
      "outputs": [
        {
          "internalType": "string",
          "name": "",
          "type": "string"
        }
      ],
      "stateMutability": "view",
      "type": "function"
    },
    {
      "inputs": [
        {
          "internalType": "address",
          "name": "newOwner",
          "type": "address"
        }
      ],
      "name": "transferOwnership",
      "outputs": [],
      "stateMutability": "nonpayable",
      "type": "function"
    }
  ],
  "transactionHash": "0x2bfbc046dddcc1c7b76b87d9d5cdb94337b907303d484d7e66d0d843f6a229f6",
  "args": [],
  "numDeployments": 2,
  "solcInputHash": "776c7519acf1eee16c4cde4c93293488",
  "bytecode": "0x60c06040523480156200001157600080fd5b507f53a2e7cce84726721578c676b4798972d354dd7c62c832415371716693edd31260001b6000620000586200004c6200007060201b60201c565b6200007860201b60201c565b81608081815250508060a0818152505050506200013c565b600033905090565b60008060009054906101000a900473ffffffffffffffffffffffffffffffffffffffff169050816000806101000a81548173ffffffffffffffffffffffffffffffffffffffff021916908373ffffffffffffffffffffffffffffffffffffffff1602179055508173ffffffffffffffffffffffffffffffffffffffff168173ffffffffffffffffffffffffffffffffffffffff167f8be0079c531659141344cd1fd0a4f28419497f9722a3daafe3b4186f6b6457e060405160405180910390a35050565b60805160a05161298b6200017e600039600081816105060152610c6e01526000818161052a0152818161079d01528181610a680152611006015261298b6000f3fe608060405234801561001057600080fd5b50600436106100ea5760003560e01c80638da5cb5b1161008c578063c01f93d311610066578063c01f93d314610273578063c7ee930c146102a3578063d977f6b5146102bf578063f2fde38b146102ef576100ea565b80638da5cb5b146101f55780639061b92314610213578063bffbe61c14610243576100ea565b80631fe93ea8116100c85780631fe93ea81461017f57806324d79eab1461019d578063715018a6146101bb5780637f87032e146101c5576100ea565b806301984892146100ef57806301ffc9a71461011f578063060eb2f51461014f575b600080fd5b610109600480360381019061010491906115c8565b61030b565b6040516101169190611685565b60405180910390f35b610139600480360381019061013491906116ff565b61040a565b6040516101469190611747565b60405180910390f35b61016960048036038101906101649190611798565b6104ec565b60405161017691906117de565b60405180910390f35b610187610504565b60405161019491906117de565b60405180910390f35b6101a5610528565b6040516101b29190611808565b60405180910390f35b6101c361054c565b005b6101df60048036038101906101da9190611a25565b610560565b6040516101ec9190611808565b60405180910390f35b6101fd61060e565b60405161020a9190611ad3565b60405180910390f35b61022d60048036038101906102289190611b4e565b610637565b60405161023a9190611c24565b60405180910390f35b61025d600480360381019061025891906115c8565b610799565b60405161026a9190611808565b60405180910390f35b61028d60048036038101906102889190611c9c565b6107f3565b60405161029a9190611808565b60405180910390f35b6102bd60048036038101906102b89190611d74565b610869565b005b6102d960048036038101906102d49190611de3565b6108b9565b6040516102e69190611685565b60405180910390f35b610309600480360381019061030491906115c8565b6109d5565b005b6060600061031883610a58565b9050600360006004600084815260200190815260200160002060009054906101000a900467ffffffffffffffff1667ffffffffffffffff1667ffffffffffffffff1681526020019081526020016000206000828152602001908152602001600020805461038490611e6e565b80601f01602080910402602001604051908101604052809291908181526020018280546103b090611e6e565b80156103fd5780601f106103d2576101008083540402835291602001916103fd565b820191906000526020600020905b8154815290600101906020018083116103e057829003601f168201915b5050505050915050919050565b60007fd8efbe27000000000000000000000000000000000000000000000000000000007bffffffffffffffffffffffffffffffffffffffffffffffffffffffff1916827bffffffffffffffffffffffffffffffffffffffffffffffffffffffff191614806104d557507f9061b923000000000000000000000000000000000000000000000000000000007bffffffffffffffffffffffffffffffffffffffffffffffffffffffff1916827bffffffffffffffffffffffffffffffffffffffffffffffffffffffff1916145b806104e557506104e482610ab7565b5b9050919050565b60016020528060005260406000206000915090505481565b7f000000000000000000000000000000000000000000000000000000000000000081565b7f000000000000000000000000000000000000000000000000000000000000000081565b610554610b21565b61055e6000610b9f565b565b6000637f87032e60e01b8460405160200161057c929190611efc565b604051602081830303815290604052805190602001208584846105a184848484610c63565b5060006105ad8a610a58565b90506105ba818a8a610d7b565b808a73ffffffffffffffffffffffffffffffffffffffff167f6ada868dd3058cf77a48a74489fd7963688e5464b2b0fa957ace976243270e9260405160405180910390a38095505050505050949350505050565b60008060009054906101000a900473ffffffffffffffffffffffffffffffffffffffff16905090565b606060008383906106489190611f3c565b905060006106a887878080601f016020809104026020016040519081016040528093929190818152602001838380828437600081840152601f19601f8201169050808301925050505050505060018060286106a39190611fca565b610e2f565b50905063691f343160e01b7bffffffffffffffffffffffffffffffffffffffffffffffffffffffff1916827bffffffffffffffffffffffffffffffffffffffffffffffffffffffff191603610709576107008161030b565b92505050610791565b6359d1d43c60e01b7bffffffffffffffffffffffffffffffffffffffffffffffffffffffff1916827bffffffffffffffffffffffffffffffffffffffffffffffffffffffff19160361078e5760008585600490809261076a93929190612008565b8101906107779190612043565b91505061078482826108b9565b9350505050610791565b50505b949350505050565b60007f00000000000000000000000000000000000000000000000000000000000000006107c583610e78565b6040516020016107d69291906120c0565b604051602081830303815290604052805190602001209050919050565b600063c01f93d360e01b87878787604051602001610815959493929190612111565b6040516020818303038152906040528051906020012088848461083a84848484610c63565b5060006108468d610a58565b9050610856818d8d8d8d8d610f00565b8095505050505050979650505050505050565b63c7ee930c60e01b604051602001610881919061214a565b604051602081830303815290604052805190602001208383836108a684848484610c63565b506108b087610ff5565b50505050505050565b606060006108c684610a58565b9050600260006004600084815260200190815260200160002060009054906101000a900467ffffffffffffffff1667ffffffffffffffff1667ffffffffffffffff1681526020019081526020016000206000828152602001908152602001600020836040516109359190612165565b9081526020016040518091039020805461094e90611e6e565b80601f016020809104026020016040519081016040528092919081815260200182805461097a90611e6e565b80156109c75780601f1061099c576101008083540402835291602001916109c7565b820191906000526020600020905b8154815290600101906020018083116109aa57829003601f168201915b505050505091505092915050565b6109dd610b21565b600073ffffffffffffffffffffffffffffffffffffffff168173ffffffffffffffffffffffffffffffffffffffff1603610a4c576040517f08c379a0000000000000000000000000000000000000000000000000000000008152600401610a43906121ee565b60405180910390fd5b610a5581610b9f565b50565b600080610a6483610e78565b90507f000000000000000000000000000000000000000000000000000000000000000081604051602001610a999291906120c0565b60405160208183030381529060405280519060200120915050919050565b60007fc78de5ed000000000000000000000000000000000000000000000000000000007bffffffffffffffffffffffffffffffffffffffffffffffffffffffff1916827bffffffffffffffffffffffffffffffffffffffffffffffffffffffff1916149050919050565b610b29611111565b73ffffffffffffffffffffffffffffffffffffffff16610b4761060e565b73ffffffffffffffffffffffffffffffffffffffff1614610b9d576040517f08c379a0000000000000000000000000000000000000000000000000000000008152600401610b949061225a565b60405180910390fd5b565b60008060009054906101000a900473ffffffffffffffffffffffffffffffffffffffff169050816000806101000a81548173ffffffffffffffffffffffffffffffffffffffff021916908373ffffffffffffffffffffffffffffffffffffffff1602179055508173ffffffffffffffffffffffffffffffffffffffff168173ffffffffffffffffffffffffffffffffffffffff167f8be0079c531659141344cd1fd0a4f28419497f9722a3daafe3b4186f6b6457e060405160405180910390a35050565b600080610cbb8686867f0000000000000000000000000000000000000000000000000000000000000000604051602001610ca094939291906122e3565b60405160208183030381529060405280519060200120611119565b90506000610cc886610a58565b9050610cd586838661114f565b610d0b576040517f8baa579f00000000000000000000000000000000000000000000000000000000815260040160405180910390fd5b600160008281526020019081526020016000205485111580610d3a5750426103e886610d379190612360565b10155b15610d71576040517f50c8f2ec00000000000000000000000000000000000000000000000000000000815260040160405180910390fd5b5050949350505050565b81600360006004600087815260200190815260200160002060009054906101000a900467ffffffffffffffff1667ffffffffffffffff1667ffffffffffffffff16815260200190815260200160002060008581526020019081526020016000209081610de79190612530565b50610df283826111de565b827fb7d29e911041e8d9b843369e890bcb72c9388692ba48b65ac54e7214c4c348f783604051610e229190611685565b60405180910390a2505050565b60008060288484610e409190612602565b1015610e525760008091509150610e70565b600080610e608787876111fa565b915091508160001c819350935050505b935093915050565b600060285b6000811115610ef3576001810390507f3031323334353637383961626364656600000000000000000000000000000000600f84161a81536010830492506001810390507f3031323334353637383961626364656600000000000000000000000000000000600f84161a8153601083049250610e7d565b5060286000209050919050565b828260026000600460008b815260200190815260200160002060009054906101000a900467ffffffffffffffff1667ffffffffffffffff1667ffffffffffffffff16815260200190815260200160002060008981526020019081526020016000208787604051610f71929190612636565b90815260200160405180910390209182610f8c92919061265a565b50610f9786826111de565b8484604051610fa7929190612636565b6040518091039020867f448bc014f1536726cf8d54ff3d6481ed3cbc683c2591ca204274009afa09b1a187878787604051610fe59493929190612757565b60405180910390a3505050505050565b600061100082610e78565b905060007f0000000000000000000000000000000000000000000000000000000000000000826040516020016110379291906120c0565b60405160208183030381529060405280519060200120905060046000828152602001908152602001600020600081819054906101000a900467ffffffffffffffff1680929190611086906127a6565b91906101000a81548167ffffffffffffffff021916908367ffffffffffffffff16021790555050807fc6621ccb8f3f5a04bb6502154b2caf6adf5983fe76dfef1cfc9c42e3579db4446004600084815260200190815260200160002060009054906101000a900467ffffffffffffffff1660405161110491906127e5565b60405180910390a2505050565b600033905090565b60007f19457468657265756d205369676e6564204d6573736167653a0a33320000000060005281601c52603c6000209050919050565b600080600061115e85856112df565b915091506000600481111561117657611175612800565b5b81600481111561118957611188612800565b5b1480156111c157508573ffffffffffffffffffffffffffffffffffffffff168273ffffffffffffffffffffffffffffffffffffffff16145b806111d357506111d2868686611330565b5b925050509392505050565b8060016000848152602001908152602001600020819055505050565b60008060019050845183111561120f57600080fd5b611271565b6000603a8210602f8311161561122f5760308203905061126c565b6047821060408311161561124b57600a6041830301905061126c565b6067821060608311161561126757600a6061830301905061126c565b60ff90505b919050565b60208501845b848110156112d55761128e8183015160001a611214565b6112a06001830184015160001a611214565b60ff811460ff831417156112b9576000945050506112d5565b808260041b17808760081b179650505050600281019050611277565b5050935093915050565b60008060418351036113205760008060006020860151925060408601519150606086015160001a905061131487828585611474565b94509450505050611329565b60006002915091505b9250929050565b60008060008573ffffffffffffffffffffffffffffffffffffffff16631626ba7e60e01b868660405160240161136792919061282f565b604051602081830303815290604052907bffffffffffffffffffffffffffffffffffffffffffffffffffffffff19166020820180517bffffffffffffffffffffffffffffffffffffffffffffffffffffffff83818316178352505050506040516113d1919061289b565b600060405180830381855afa9150503d806000811461140c576040519150601f19603f3d011682016040523d82523d6000602084013e611411565b606091505b509150915081801561142557506020815110155b80156114695750631626ba7e60e01b7bffffffffffffffffffffffffffffffffffffffffffffffffffffffff19168180602001905181019061146791906128c7565b145b925050509392505050565b6000807f7fffffffffffffffffffffffffffffff5d576e7357a4501ddfe92f46681b20a08360001c11156114af57600060039150915061154d565b6000600187878787604051600081526020016040526040516114d49493929190612910565b6020604051602081039080840390855afa1580156114f6573d6000803e3d6000fd5b505050602060405103519050600073ffffffffffffffffffffffffffffffffffffffff168173ffffffffffffffffffffffffffffffffffffffff16036115445760006001925092505061154d565b80600092509250505b94509492505050565b6000604051905090565b600080fd5b600080fd5b600073ffffffffffffffffffffffffffffffffffffffff82169050919050565b60006115958261156a565b9050919050565b6115a58161158a565b81146115b057600080fd5b50565b6000813590506115c28161159c565b92915050565b6000602082840312156115de576115dd611560565b5b60006115ec848285016115b3565b91505092915050565b600081519050919050565b600082825260208201905092915050565b60005b8381101561162f578082015181840152602081019050611614565b60008484015250505050565b6000601f19601f8301169050919050565b6000611657826115f5565b6116618185611600565b9350611671818560208601611611565b61167a8161163b565b840191505092915050565b6000602082019050818103600083015261169f818461164c565b905092915050565b60007fffffffff0000000000000000000000000000000000000000000000000000000082169050919050565b6116dc816116a7565b81146116e757600080fd5b50565b6000813590506116f9816116d3565b92915050565b60006020828403121561171557611714611560565b5b6000611723848285016116ea565b91505092915050565b60008115159050919050565b6117418161172c565b82525050565b600060208201905061175c6000830184611738565b92915050565b6000819050919050565b61177581611762565b811461178057600080fd5b50565b6000813590506117928161176c565b92915050565b6000602082840312156117ae576117ad611560565b5b60006117bc84828501611783565b91505092915050565b6000819050919050565b6117d8816117c5565b82525050565b60006020820190506117f360008301846117cf565b92915050565b61180281611762565b82525050565b600060208201905061181d60008301846117f9565b92915050565b600080fd5b600080fd5b7f4e487b7100000000000000000000000000000000000000000000000000000000600052604160045260246000fd5b6118658261163b565b810181811067ffffffffffffffff821117156118845761188361182d565b5b80604052505050565b6000611897611556565b90506118a3828261185c565b919050565b600067ffffffffffffffff8211156118c3576118c261182d565b5b6118cc8261163b565b9050602081019050919050565b82818337600083830152505050565b60006118fb6118f6846118a8565b61188d565b90508281526020810184848401111561191757611916611828565b5b6119228482856118d9565b509392505050565b600082601f83011261193f5761193e611823565b5b813561194f8482602086016118e8565b91505092915050565b611961816117c5565b811461196c57600080fd5b50565b60008135905061197e81611958565b92915050565b600067ffffffffffffffff82111561199f5761199e61182d565b5b6119a88261163b565b9050602081019050919050565b60006119c86119c384611984565b61188d565b9050828152602081018484840111156119e4576119e3611828565b5b6119ef8482856118d9565b509392505050565b600082601f830112611a0c57611a0b611823565b5b8135611a1c8482602086016119b5565b91505092915050565b60008060008060808587031215611a3f57611a3e611560565b5b6000611a4d878288016115b3565b945050602085013567ffffffffffffffff811115611a6e57611a6d611565565b5b611a7a8782880161192a565b9350506040611a8b8782880161196f565b925050606085013567ffffffffffffffff811115611aac57611aab611565565b5b611ab8878288016119f7565b91505092959194509250565b611acd8161158a565b82525050565b6000602082019050611ae86000830184611ac4565b92915050565b600080fd5b600080fd5b60008083601f840112611b0e57611b0d611823565b5b8235905067ffffffffffffffff811115611b2b57611b2a611aee565b5b602083019150836001820283011115611b4757611b46611af3565b5b9250929050565b60008060008060408587031215611b6857611b67611560565b5b600085013567ffffffffffffffff811115611b8657611b85611565565b5b611b9287828801611af8565b9450945050602085013567ffffffffffffffff811115611bb557611bb4611565565b5b611bc187828801611af8565b925092505092959194509250565b600081519050919050565b600082825260208201905092915050565b6000611bf682611bcf565b611c008185611bda565b9350611c10818560208601611611565b611c198161163b565b840191505092915050565b60006020820190508181036000830152611c3e8184611beb565b905092915050565b60008083601f840112611c5c57611c5b611823565b5b8235905067ffffffffffffffff811115611c7957611c78611aee565b5b602083019150836001820283011115611c9557611c94611af3565b5b9250929050565b600080600080600080600060a0888a031215611cbb57611cba611560565b5b6000611cc98a828b016115b3565b975050602088013567ffffffffffffffff811115611cea57611ce9611565565b5b611cf68a828b01611c46565b9650965050604088013567ffffffffffffffff811115611d1957611d18611565565b5b611d258a828b01611c46565b94509450506060611d388a828b0161196f565b925050608088013567ffffffffffffffff811115611d5957611d58611565565b5b611d658a828b016119f7565b91505092959891949750929550565b600080600060608486031215611d8d57611d8c611560565b5b6000611d9b868287016115b3565b9350506020611dac8682870161196f565b925050604084013567ffffffffffffffff811115611dcd57611dcc611565565b5b611dd9868287016119f7565b9150509250925092565b60008060408385031215611dfa57611df9611560565b5b6000611e08858286016115b3565b925050602083013567ffffffffffffffff811115611e2957611e28611565565b5b611e358582860161192a565b9150509250929050565b7f4e487b7100000000000000000000000000000000000000000000000000000000600052602260045260246000fd5b60006002820490506001821680611e8657607f821691505b602082108103611e9957611e98611e3f565b5b50919050565b6000819050919050565b611eba611eb5826116a7565b611e9f565b82525050565b600081905092915050565b6000611ed6826115f5565b611ee08185611ec0565b9350611ef0818560208601611611565b80840191505092915050565b6000611f088285611ea9565b600482019150611f188284611ecb565b91508190509392505050565b600082905092915050565b600082821b905092915050565b6000611f488383611f24565b82611f5381356116a7565b92506004821015611f9357611f8e7fffffffff0000000000000000000000000000000000000000000000000000000083600403600802611f2f565b831692505b505092915050565b7f4e487b7100000000000000000000000000000000000000000000000000000000600052601160045260246000fd5b6000611fd5826117c5565b9150611fe0836117c5565b9250828201905080821115611ff857611ff7611f9b565b5b92915050565b600080fd5b600080fd5b6000808585111561201c5761201b611ffe565b5b8386111561202d5761202c612003565b5b6001850283019150848603905094509492505050565b6000806040838503121561205a57612059611560565b5b600061206885828601611783565b925050602083013567ffffffffffffffff81111561208957612088611565565b5b6120958582860161192a565b9150509250929050565b6000819050919050565b6120ba6120b582611762565b61209f565b82525050565b60006120cc82856120a9565b6020820191506120dc82846120a9565b6020820191508190509392505050565b60006120f88385611ec0565b93506121058385846118d9565b82840190509392505050565b600061211d8288611ea9565b60048201915061212e8286886120ec565b915061213b8284866120ec565b91508190509695505050505050565b60006121568284611ea9565b60048201915081905092915050565b60006121718284611ecb565b915081905092915050565b7f4f776e61626c653a206e6577206f776e657220697320746865207a65726f206160008201527f6464726573730000000000000000000000000000000000000000000000000000602082015250565b60006121d8602683611600565b91506121e38261217c565b604082019050919050565b60006020820190508181036000830152612207816121cb565b9050919050565b7f4f776e61626c653a2063616c6c6572206973206e6f7420746865206f776e6572600082015250565b6000612244602083611600565b915061224f8261220e565b602082019050919050565b6000602082019050818103600083015261227381612237565b9050919050565b60008160601b9050919050565b60006122928261227a565b9050919050565b60006122a482612287565b9050919050565b6122bc6122b78261158a565b612299565b82525050565b6000819050919050565b6122dd6122d8826117c5565b6122c2565b82525050565b60006122ef82876120a9565b6020820191506122ff82866122ab565b60148201915061230f82856122cc565b60208201915061231f82846122cc565b60208201915081905095945050505050565b7f4e487b7100000000000000000000000000000000000000000000000000000000600052601260045260246000fd5b600061236b826117c5565b9150612376836117c5565b92508261238657612385612331565b5b828204905092915050565b60008190508160005260206000209050919050565b60006020601f8301049050919050565b6000600883026123e67fffffffffffffffffffffffffffffffffffffffffffffffffffffffffffffffff82611f2f565b6123f08683611f2f565b95508019841693508086168417925050509392505050565b6000819050919050565b600061242d612428612423846117c5565b612408565b6117c5565b9050919050565b6000819050919050565b61244783612412565b61245b61245382612434565b8484546123b6565b825550505050565b600090565b612470612463565b61247b81848461243e565b505050565b5b8181101561249f57612494600082612468565b600181019050612481565b5050565b601f8211156124e4576124b581612391565b6124be846123a6565b810160208510156124cd578190505b6124e16124d9856123a6565b830182612480565b50505b505050565b600082821c905092915050565b6000612507600019846008026124e9565b1980831691505092915050565b600061252083836124f6565b9150826002028217905092915050565b612539826115f5565b67ffffffffffffffff8111156125525761255161182d565b5b61255c8254611e6e565b6125678282856124a3565b600060209050601f83116001811461259a5760008415612588578287015190505b6125928582612514565b8655506125fa565b601f1984166125a886612391565b60005b828110156125d0578489015182556001820191506020850194506020810190506125ab565b868310156125ed57848901516125e9601f8916826124f6565b8355505b6001600288020188555050505b505050505050565b600061260d826117c5565b9150612618836117c5565b92508282039050818111156126305761262f611f9b565b5b92915050565b60006126438284866120ec565b91508190509392505050565b600082905092915050565b612664838361264f565b67ffffffffffffffff81111561267d5761267c61182d565b5b6126878254611e6e565b6126928282856124a3565b6000601f8311600181146126c157600084156126af578287013590505b6126b98582612514565b865550612721565b601f1984166126cf86612391565b60005b828110156126f7578489013582556001820191506020850194506020810190506126d2565b868310156127145784890135612710601f8916826124f6565b8355505b6001600288020188555050505b50505050505050565b60006127368385611600565b93506127438385846118d9565b61274c8361163b565b840190509392505050565b6000604082019050818103600083015261277281868861272a565b9050818103602083015261278781848661272a565b905095945050505050565b600067ffffffffffffffff82169050919050565b60006127b182612792565b915067ffffffffffffffff82036127cb576127ca611f9b565b5b600182019050919050565b6127df81612792565b82525050565b60006020820190506127fa60008301846127d6565b92915050565b7f4e487b7100000000000000000000000000000000000000000000000000000000600052602160045260246000fd5b600060408201905061284460008301856117f9565b81810360208301526128568184611beb565b90509392505050565b600081905092915050565b600061287582611bcf565b61287f818561285f565b935061288f818560208601611611565b80840191505092915050565b60006128a7828461286a565b915081905092915050565b6000815190506128c18161176c565b92915050565b6000602082840312156128dd576128dc611560565b5b60006128eb848285016128b2565b91505092915050565b600060ff82169050919050565b61290a816128f4565b82525050565b600060808201905061292560008301876117f9565b6129326020830186612901565b61293f60408301856117f9565b61294c60608301846117f9565b9594505050505056fea264697066735822122064d056b576c53f15f918ab0cbc8cd9058c15fddb5e164956c854c85d5141f05664736f6c63430008130033",
  "devdoc": {
    "kind": "dev",
    "methods": {
      "clearRecordsWithSignature(address,uint256,bytes)": {
        "params": {
          "addr": "The node to update.",
          "signature": "A signature proving ownership of the node."
        }
      },
      "constructor": {
        "details": "Constructor"
      },
      "node(address)": {
        "details": "Returns the node hash for a given account's reverse records.",
        "params": {
          "addr": "The address to hash"
        },
        "returns": {
          "_0": "The ENS node hash."
        }
      },
      "owner()": {
        "details": "Returns the address of the current owner."
      },
      "renounceOwnership()": {
        "details": "Leaves the contract without owner. It will not be possible to call `onlyOwner` functions. Can only be called by the current owner. NOTE: Renouncing ownership will leave the contract without an owner, thereby disabling any functionality that is only available to the owner."
      },
      "setNameForAddrWithSignature(address,string,uint256,bytes)": {
        "details": "Sets the name for an addr using a signature that can be verified with ERC1271.",
        "params": {
          "addr": "The reverse record to set",
          "inceptionDate": "Date from when this signature is valid from",
          "name": "The name of the reverse record",
          "signature": "The resolver of the reverse node"
        },
        "returns": {
          "_0": "The ENS node hash of the reverse record."
        }
      },
      "setTextForAddrWithSignature(address,string,string,uint256,bytes)": {
        "details": "Sets the name for an addr using a signature that can be verified with ERC1271.",
        "params": {
          "addr": "The reverse record to set",
          "inceptionDate": "Date from when this signature is valid from",
          "key": "The key of the text record",
          "signature": "The resolver of the reverse node",
          "value": "The value of the text record"
        },
        "returns": {
          "_0": "The ENS node hash of the reverse record."
        }
      },
      "transferOwnership(address)": {
        "details": "Transfers ownership of the contract to a new account (`newOwner`). Can only be called by the current owner."
      }
    },
    "version": 1
  },
  "userdoc": {
    "kind": "user",
    "methods": {
      "clearRecordsWithSignature(address,uint256,bytes)": {
        "notice": "Increments the record version associated with an ENS node. May only be called by the owner of that node in the ENS registry."
      }
    },
    "notice": "A fallback reverser resolver to resolve when L2 reverse resolver has no names set. The contract will be set under \"default.reverse\" namespace It can only be set by EOA as contract accounts are chain dependent.",
    "version": 1
  },
  "storageLayout": {
    "storage": [
      {
        "astId": 1121,
        "contract": "contracts/DefaultReverseResolver.sol:DefaultReverseResolver",
        "label": "_owner",
        "offset": 0,
        "slot": "0",
        "type": "t_address"
      },
      {
        "astId": 289,
        "contract": "contracts/DefaultReverseResolver.sol:DefaultReverseResolver",
        "label": "lastUpdated",
        "offset": 0,
        "slot": "1",
        "type": "t_mapping(t_bytes32,t_uint256)"
      },
      {
        "astId": 297,
        "contract": "contracts/DefaultReverseResolver.sol:DefaultReverseResolver",
        "label": "versionable_texts",
        "offset": 0,
        "slot": "2",
        "type": "t_mapping(t_uint64,t_mapping(t_bytes32,t_mapping(t_string_memory_ptr,t_string_storage)))"
      },
      {
        "astId": 303,
        "contract": "contracts/DefaultReverseResolver.sol:DefaultReverseResolver",
        "label": "versionable_names",
        "offset": 0,
        "slot": "3",
        "type": "t_mapping(t_uint64,t_mapping(t_bytes32,t_string_storage))"
      },
      {
        "astId": 307,
        "contract": "contracts/DefaultReverseResolver.sol:DefaultReverseResolver",
        "label": "recordVersions",
        "offset": 0,
        "slot": "4",
        "type": "t_mapping(t_bytes32,t_uint64)"
      }
    ],
    "types": {
      "t_address": {
        "encoding": "inplace",
        "label": "address",
        "numberOfBytes": "20"
      },
      "t_bytes32": {
        "encoding": "inplace",
        "label": "bytes32",
        "numberOfBytes": "32"
      },
      "t_mapping(t_bytes32,t_mapping(t_string_memory_ptr,t_string_storage))": {
        "encoding": "mapping",
        "key": "t_bytes32",
        "label": "mapping(bytes32 => mapping(string => string))",
        "numberOfBytes": "32",
        "value": "t_mapping(t_string_memory_ptr,t_string_storage)"
      },
      "t_mapping(t_bytes32,t_string_storage)": {
        "encoding": "mapping",
        "key": "t_bytes32",
        "label": "mapping(bytes32 => string)",
        "numberOfBytes": "32",
        "value": "t_string_storage"
      },
      "t_mapping(t_bytes32,t_uint256)": {
        "encoding": "mapping",
        "key": "t_bytes32",
        "label": "mapping(bytes32 => uint256)",
        "numberOfBytes": "32",
        "value": "t_uint256"
      },
      "t_mapping(t_bytes32,t_uint64)": {
        "encoding": "mapping",
        "key": "t_bytes32",
        "label": "mapping(bytes32 => uint64)",
        "numberOfBytes": "32",
        "value": "t_uint64"
      },
      "t_mapping(t_string_memory_ptr,t_string_storage)": {
        "encoding": "mapping",
        "key": "t_string_memory_ptr",
        "label": "mapping(string => string)",
        "numberOfBytes": "32",
        "value": "t_string_storage"
      },
      "t_mapping(t_uint64,t_mapping(t_bytes32,t_mapping(t_string_memory_ptr,t_string_storage)))": {
        "encoding": "mapping",
        "key": "t_uint64",
        "label": "mapping(uint64 => mapping(bytes32 => mapping(string => string)))",
        "numberOfBytes": "32",
        "value": "t_mapping(t_bytes32,t_mapping(t_string_memory_ptr,t_string_storage))"
      },
      "t_mapping(t_uint64,t_mapping(t_bytes32,t_string_storage))": {
        "encoding": "mapping",
        "key": "t_uint64",
        "label": "mapping(uint64 => mapping(bytes32 => string))",
        "numberOfBytes": "32",
        "value": "t_mapping(t_bytes32,t_string_storage)"
      },
      "t_string_memory_ptr": {
        "encoding": "bytes",
        "label": "string",
        "numberOfBytes": "32"
      },
      "t_string_storage": {
        "encoding": "bytes",
        "label": "string",
        "numberOfBytes": "32"
      },
      "t_uint256": {
        "encoding": "inplace",
        "label": "uint256",
        "numberOfBytes": "32"
      },
      "t_uint64": {
        "encoding": "inplace",
        "label": "uint64",
        "numberOfBytes": "8"
      }
    }
  }
}