{
  "address": "0xF7e3a2861FfA833C39544B7bbE9D94f3219E5b70",
  "abi": [
    {
      "inputs": [
        {
          "internalType": "contract IEVMVerifier",
          "name": "_verifier",
          "type": "address"
        },
        {
          "internalType": "address",
          "name": "_target",
          "type": "address"
        },
        {
          "internalType": "contract IDefaultReverseResolver",
          "name": "_defaultReverseResolver",
          "type": "address"
        }
      ],
      "stateMutability": "nonpayable",
      "type": "constructor"
    },
    {
      "inputs": [],
      "name": "CommandTooLong",
      "type": "error"
    },
    {
      "inputs": [
        {
          "internalType": "uint256",
          "name": "value",
          "type": "uint256"
        },
        {
          "internalType": "uint256",
          "name": "max",
          "type": "uint256"
        }
      ],
      "name": "InvalidReference",
      "type": "error"
    },
    {
      "inputs": [
        {
          "internalType": "address",
          "name": "sender",
          "type": "address"
        },
        {
          "internalType": "string[]",
          "name": "urls",
          "type": "string[]"
        },
        {
          "internalType": "bytes",
          "name": "callData",
          "type": "bytes"
        },
        {
          "internalType": "bytes4",
          "name": "callbackFunction",
          "type": "bytes4"
        },
        {
          "internalType": "bytes",
          "name": "extraData",
          "type": "bytes"
        }
      ],
      "name": "OffchainLookup",
      "type": "error"
    },
    {
      "inputs": [
        {
          "internalType": "uint256",
          "name": "actual",
          "type": "uint256"
        },
        {
          "internalType": "uint256",
          "name": "expected",
          "type": "uint256"
        }
      ],
      "name": "ResponseLengthMismatch",
      "type": "error"
    },
    {
      "inputs": [
        {
          "internalType": "uint256",
          "name": "max",
          "type": "uint256"
        }
      ],
      "name": "TooManyCommands",
      "type": "error"
    },
    {
      "inputs": [
        {
          "internalType": "bytes",
          "name": "response",
          "type": "bytes"
        },
        {
          "internalType": "bytes",
          "name": "extradata",
          "type": "bytes"
        }
      ],
      "name": "getStorageSlotsCallback",
      "outputs": [],
      "stateMutability": "nonpayable",
      "type": "function"
    },
    {
      "inputs": [
        {
          "internalType": "bytes[]",
          "name": "values",
          "type": "bytes[]"
        },
        {
          "internalType": "bytes",
          "name": "callbackdata",
          "type": "bytes"
        }
      ],
      "name": "nameCallback",
      "outputs": [
        {
          "internalType": "string",
          "name": "",
          "type": "string"
        }
      ],
      "stateMutability": "view",
      "type": "function"
    },
    {
      "inputs": [
        {
          "internalType": "bytes",
          "name": "name",
          "type": "bytes"
        },
        {
          "internalType": "bytes",
          "name": "data",
          "type": "bytes"
        }
      ],
      "name": "resolve",
      "outputs": [
        {
          "internalType": "bytes",
          "name": "result",
          "type": "bytes"
        }
      ],
      "stateMutability": "view",
      "type": "function"
    },
    {
      "inputs": [
        {
          "internalType": "bytes4",
          "name": "interfaceId",
          "type": "bytes4"
        }
      ],
      "name": "supportsInterface",
      "outputs": [
        {
          "internalType": "bool",
          "name": "",
          "type": "bool"
        }
      ],
      "stateMutability": "view",
      "type": "function"
    },
    {
      "inputs": [
        {
          "internalType": "bytes[]",
          "name": "values",
          "type": "bytes[]"
        },
        {
          "internalType": "bytes",
          "name": "callbackdata",
          "type": "bytes"
        }
      ],
      "name": "textCallback",
      "outputs": [
        {
          "internalType": "string",
          "name": "",
          "type": "string"
        }
      ],
      "stateMutability": "view",
      "type": "function"
    }
  ],
  "transactionHash": "0x9eac452321494e39dd3b63fcddb8c5644ac235916c8bda64712e06d77d8d317b",
  "args": [
    "0x0e8DA38565915B7e74e2d78F80ba1BF815F34116",
    "0x83C058D2139a6eFA32E42BeB415409000C075563",
    "0xfD2c2598382D8876BcC70f550B22d7F70Dda30b0"
  ],
  "numDeployments": 5,
  "solcInputHash": "7cc7da1092d13c01f4d5f27229751af2",
  "bytecode": "0x60e06040523480156200001157600080fd5b5060405162002d5838038062002d588339818101604052810190620000379190620001d0565b8273ffffffffffffffffffffffffffffffffffffffff1660808173ffffffffffffffffffffffffffffffffffffffff16815250508173ffffffffffffffffffffffffffffffffffffffff1660a08173ffffffffffffffffffffffffffffffffffffffff16815250508073ffffffffffffffffffffffffffffffffffffffff1660c08173ffffffffffffffffffffffffffffffffffffffff16815250505050506200022c565b600080fd5b600073ffffffffffffffffffffffffffffffffffffffff82169050919050565b60006200010e82620000e1565b9050919050565b6000620001228262000101565b9050919050565b620001348162000115565b81146200014057600080fd5b50565b600081519050620001548162000129565b92915050565b620001658162000101565b81146200017157600080fd5b50565b60008151905062000185816200015a565b92915050565b6000620001988262000101565b9050919050565b620001aa816200018b565b8114620001b657600080fd5b50565b600081519050620001ca816200019f565b92915050565b600080600060608486031215620001ec57620001eb620000dc565b5b6000620001fc8682870162000143565b93505060206200020f8682870162000174565b92505060406200022286828701620001b9565b9150509250925092565b60805160a05160c051612ae762000271600039600081816101f2015261063a015260008181610870015261095f01526000818161084f015261093e0152612ae76000f3fe608060405234801561001057600080fd5b50600436106100575760003560e01c806301ffc9a71461005c5780632682dd661461008c5780635bdaa916146100bc5780639061b923146100d8578063de9abe5e14610108575b600080fd5b6100766004803603810190610071919061142f565b610138565b6040516100839190611477565b60405180910390f35b6100a660048036038101906100a191906116be565b6101b2565b6040516100b391906117b5565b60405180910390f35b6100d660048036038101906100d19190611832565b6102bc565b005b6100f260048036038101906100ed9190611832565b61046b565b6040516100ff9190611908565b60405180910390f35b610122600480360381019061011d91906116be565b6105f7565b60405161012f91906117b5565b60405180910390f35b60007f9061b923000000000000000000000000000000000000000000000000000000007bffffffffffffffffffffffffffffffffffffffffffffffffffffffff1916827bffffffffffffffffffffffffffffffffffffffffffffffffffffffff191614806101ab57506101aa82610707565b5b9050919050565b60606000836001815181106101ca576101c961192a565b5b60200260200101515103610297576000828060200190518101906101ee91906119b7565b90507f000000000000000000000000000000000000000000000000000000000000000073ffffffffffffffffffffffffffffffffffffffff166301984892826040518263ffffffff1660e01b81526004016102499190611a05565b600060405180830381865afa158015610266573d6000803e3d6000fd5b505050506040513d6000823e3d601f19601f8201168201806040525081019061028f9190611ac1565b9150506102b6565b826001815181106102ab576102aa61192a565b5b602002602001015190505b92915050565b600084848101906102cd9190611b0a565b905060008060008060008088888101906102e79190611c9f565b95509550955095509550955060008673ffffffffffffffffffffffffffffffffffffffff16633baa6d508787878c6040518563ffffffff1660e01b81526004016103349493929190611f4a565b600060405180830381865afa158015610351573d6000803e3d6000fd5b505050506040513d6000823e3d601f19601f8201168201806040525081019061037a91906120c9565b905084518151146103c657805185516040517f291894250000000000000000000000000000000000000000000000000000000081526004016103bd92919061212b565b60405180910390fd5b60006104618483856040516024016103df929190612154565b604051602081830303815290604052907bffffffffffffffffffffffffffffffffffffffffffffffffffffffff19166020820180517bffffffffffffffffffffffffffffffffffffffffffffffffffffffff83818316178352505050503073ffffffffffffffffffffffffffffffffffffffff1661077190919063ffffffff16565b9050805160208201f35b6060600083839061047c91906121a3565b905060006104dc87878080601f016020809104026020016040519081016040528093929190818152602001838380828437600081840152601f19601f8201169050808301925050505050505060018060286104d79190612231565b6107bd565b50905063691f343160e01b7bffffffffffffffffffffffffffffffffffffffffffffffffffffffff1916827bffffffffffffffffffffffffffffffffffffffffffffffffffffffff191603610563576000858560049080926105409392919061226f565b81019061054d91906122aa565b90506105598183610806565b93505050506105ef565b6359d1d43c60e01b7bffffffffffffffffffffffffffffffffffffffffffffffffffffffff1916827bffffffffffffffffffffffffffffffffffffffffffffffffffffffff1916036105ec57600080868660049080926105c59392919061226f565b8101906105d29190612347565b915091506105e18282856108ef565b9450505050506105ef565b50505b949350505050565b606060008360018151811061060f5761060e61192a565b5b602002602001015151036106e2576000808380602001905181019061063491906123a3565b915091507f000000000000000000000000000000000000000000000000000000000000000073ffffffffffffffffffffffffffffffffffffffff1663d977f6b583836040518363ffffffff1660e01b81526004016106939291906123ff565b600060405180830381865afa1580156106b0573d6000803e3d6000fd5b505050506040513d6000823e3d601f19601f820116820180604052508101906106d99190611ac1565b92505050610701565b826001815181106106f6576106f561192a565b5b602002602001015190505b92915050565b60007f01ffc9a7000000000000000000000000000000000000000000000000000000007bffffffffffffffffffffffffffffffffffffffffffffffffffffffff1916827bffffffffffffffffffffffffffffffffffffffffffffffffffffffff1916149050919050565b60606107b5838360006040518060400160405280601e81526020017f416464726573733a206c6f772d6c6576656c2063616c6c206661696c656400008152506109ed565b905092915050565b600080602884846107ce919061242f565b10156107e057600080915091506107fe565b6000806107ee878787610aba565b915091508160001c819350935050505b935093915050565b60606108e9632682dd6660e01b836040516020016108249190611a05565b6040516020818303038152906040526108da866108cc60006108be60036108b08c6108a260046108947f00000000000000000000000000000000000000000000000000000000000000007f0000000000000000000000000000000000000000000000000000000000000000610b9f565b610cae90919063ffffffff16565b610d8f90919063ffffffff16565b610e1090919063ffffffff16565b610ef190919063ffffffff16565b610d8f90919063ffffffff16565b610faf9092919063ffffffff16565b92915050565b60606109e663de9abe5e60e01b838560405160200161090f9291906123ff565b6040516020818303038152906040526109d7866109c9896109bb60006109ad600261099f8f61099160046109837f00000000000000000000000000000000000000000000000000000000000000007f0000000000000000000000000000000000000000000000000000000000000000610b9f565b610cae90919063ffffffff16565b610d8f90919063ffffffff16565b610e1090919063ffffffff16565b610ef190919063ffffffff16565b610d8f90919063ffffffff16565b61113a90919063ffffffff16565b610faf9092919063ffffffff16565b9392505050565b606082471015610a32576040517f08c379a0000000000000000000000000000000000000000000000000000000008152600401610a29906124d5565b60405180910390fd5b6000808673ffffffffffffffffffffffffffffffffffffffff168587604051610a5b9190612531565b60006040518083038185875af1925050503d8060008114610a98576040519150601f19603f3d011682016040523d82523d6000602084013e610a9d565b606091505b5091509150610aae8783838761119c565b92505050949350505050565b600080600190508451831115610acf57600080fd5b610b31565b6000603a8210602f83111615610aef57603082039050610b2c565b60478210604083111615610b0b57600a60418303019050610b2c565b60678210606083111615610b2757600a60618303019050610b2c565b60ff90505b919050565b60208501845b84811015610b9557610b4e8183015160001a610ad4565b610b606001830184015160001a610ad4565b60ff811460ff83141715610b7957600094505050610b95565b808260041b17808760081b179650505050600281019050610b37565b5050935093915050565b610ba7611368565b6000602067ffffffffffffffff811115610bc457610bc36114a8565b5b604051908082528060200260200182016040528015610bf25781602001602082028036833780820191505090505b5090506000602067ffffffffffffffff811115610c1257610c116114a8565b5b604051908082528060200260200182016040528015610c4557816020015b6060815260200190600190039081610c305790505b50905060008252600081526040518060a001604052808673ffffffffffffffffffffffffffffffffffffffff1681526020018573ffffffffffffffffffffffffffffffffffffffff16815260200183815260200160008152602001828152509250505092915050565b610cb6611368565b600083604001519050600081519050600081118015610cd9575060208560600151105b15610cea57610ce98560ff611211565b5b60018101825260208560400151511115610d3c5760206040517f128e7008000000000000000000000000000000000000000000000000000000008152600401610d339190612548565b60405180910390fd5b6000856060018181525050610d52856000611211565b610d8485610d7f8787604051602001610d6b9190612548565b6040516020818303038152906040526112b8565b611211565b849250505092915050565b610d97611368565b6020836060015110610dd5576040517fb00fd63800000000000000000000000000000000000000000000000000000000815260040160405180910390fd5b610e0783610e028585604051602001610dee9190612572565b6040516020818303038152906040526112b8565b611211565b82905092915050565b610e18611368565b600083604001519050600081519050600081118015610e3b575060208560600151105b15610e4c57610e4b8560ff611211565b5b60018101825260208560400151511115610e9e5760206040517f128e7008000000000000000000000000000000000000000000000000000000008152600401610e959190612548565b60405180910390fd5b6000856060018181525050610eb4856001611211565b610ee685610ee18787604051602001610ecd9190612548565b6040516020818303038152906040526112b8565b611211565b849250505092915050565b610ef9611368565b6020836060015110610f37576040517fb00fd63800000000000000000000000000000000000000000000000000000000815260040160405180910390fd5b8260400151518260ff161180610f505750601f8260ff16115b15610f9957818360400151516040517f101586e0000000000000000000000000000000000000000000000000000000008152600401610f909291906125d5565b60405180910390fd5b610fa68383602017611211565b82905092915050565b6000836040015151118015610fc8575060208360600151105b15610fd957610fd88360ff611211565b5b30836000015173ffffffffffffffffffffffffffffffffffffffff1663b50f2fbc6040518163ffffffff1660e01b8152600401600060405180830381865afa158015611029573d6000803e3d6000fd5b505050506040513d6000823e3d601f19601f8201168201806040525081019061105291906126df565b84602001518560400151866080015160405160240161107393929190612728565b60405160208183030381529060405263ea9cd3bf60e01b6020820180517bffffffffffffffffffffffffffffffffffffffffffffffffffffffff8381831617835250505050635bdaa91660e01b866000015187602001518860400151896080015189896040516020016110eb969594939291906127d1565b6040516020818303038152906040526040517f556f1830000000000000000000000000000000000000000000000000000000008152600401611131959493929190612953565b60405180910390fd5b611142611368565b6020836060015110611180576040517fb00fd63800000000000000000000000000000000000000000000000000000000815260040160405180910390fd5b6111938361118e85856112b8565b611211565b82905092915050565b606083156111fe5760008351036111f6576111b6856112f5565b6111f5576040517f08c379a00000000000000000000000000000000000000000000000000000000081526004016111ec90612a07565b60405180910390fd5b5b829050611209565b6112088383611318565b5b949350505050565b60006001836040015151611225919061242f565b905082606001805180919061123990612a27565b81525060086112489190612a6f565b8260f81b7effffffffffffffffffffffffffffffffffffffffffffffffffffffffffffff1916901c836040015182815181106112875761128661192a565b5b602002602001015117836040015182815181106112a7576112a661192a565b5b602002602001018181525050505050565b600080836080015190508051915060018201815282818360ff16815181106112e3576112e261192a565b5b60200260200101819052505092915050565b6000808273ffffffffffffffffffffffffffffffffffffffff163b119050919050565b60008251111561132b5781518083602001fd5b806040517f08c379a000000000000000000000000000000000000000000000000000000000815260040161135f91906117b5565b60405180910390fd5b6040518060a00160405280600073ffffffffffffffffffffffffffffffffffffffff168152602001600073ffffffffffffffffffffffffffffffffffffffff1681526020016060815260200160008152602001606081525090565b6000604051905090565b600080fd5b600080fd5b60007fffffffff0000000000000000000000000000000000000000000000000000000082169050919050565b61140c816113d7565b811461141757600080fd5b50565b60008135905061142981611403565b92915050565b600060208284031215611445576114446113cd565b5b60006114538482850161141a565b91505092915050565b60008115159050919050565b6114718161145c565b82525050565b600060208201905061148c6000830184611468565b92915050565b600080fd5b6000601f19601f8301169050919050565b7f4e487b7100000000000000000000000000000000000000000000000000000000600052604160045260246000fd5b6114e082611497565b810181811067ffffffffffffffff821117156114ff576114fe6114a8565b5b80604052505050565b60006115126113c3565b905061151e82826114d7565b919050565b600067ffffffffffffffff82111561153e5761153d6114a8565b5b602082029050602081019050919050565b600080fd5b600080fd5b600067ffffffffffffffff821115611574576115736114a8565b5b61157d82611497565b9050602081019050919050565b82818337600083830152505050565b60006115ac6115a784611559565b611508565b9050828152602081018484840111156115c8576115c7611554565b5b6115d384828561158a565b509392505050565b600082601f8301126115f0576115ef611492565b5b8135611600848260208601611599565b91505092915050565b600061161c61161784611523565b611508565b9050808382526020820190506020840283018581111561163f5761163e61154f565b5b835b8181101561168657803567ffffffffffffffff81111561166457611663611492565b5b80860161167189826115db565b85526020850194505050602081019050611641565b5050509392505050565b600082601f8301126116a5576116a4611492565b5b81356116b5848260208601611609565b91505092915050565b600080604083850312156116d5576116d46113cd565b5b600083013567ffffffffffffffff8111156116f3576116f26113d2565b5b6116ff85828601611690565b925050602083013567ffffffffffffffff8111156117205761171f6113d2565b5b61172c858286016115db565b9150509250929050565b600081519050919050565b600082825260208201905092915050565b60005b83811015611770578082015181840152602081019050611755565b60008484015250505050565b600061178782611736565b6117918185611741565b93506117a1818560208601611752565b6117aa81611497565b840191505092915050565b600060208201905081810360008301526117cf818461177c565b905092915050565b600080fd5b60008083601f8401126117f2576117f1611492565b5b8235905067ffffffffffffffff81111561180f5761180e6117d7565b5b60208301915083600182028301111561182b5761182a61154f565b5b9250929050565b6000806000806040858703121561184c5761184b6113cd565b5b600085013567ffffffffffffffff81111561186a576118696113d2565b5b611876878288016117dc565b9450945050602085013567ffffffffffffffff811115611899576118986113d2565b5b6118a5878288016117dc565b925092505092959194509250565b600081519050919050565b600082825260208201905092915050565b60006118da826118b3565b6118e481856118be565b93506118f4818560208601611752565b6118fd81611497565b840191505092915050565b6000602082019050818103600083015261192281846118cf565b905092915050565b7f4e487b7100000000000000000000000000000000000000000000000000000000600052603260045260246000fd5b600073ffffffffffffffffffffffffffffffffffffffff82169050919050565b600061198482611959565b9050919050565b61199481611979565b811461199f57600080fd5b50565b6000815190506119b18161198b565b92915050565b6000602082840312156119cd576119cc6113cd565b5b60006119db848285016119a2565b91505092915050565b60006119ef82611959565b9050919050565b6119ff816119e4565b82525050565b6000602082019050611a1a60008301846119f6565b92915050565b600067ffffffffffffffff821115611a3b57611a3a6114a8565b5b611a4482611497565b9050602081019050919050565b6000611a64611a5f84611a20565b611508565b905082815260208101848484011115611a8057611a7f611554565b5b611a8b848285611752565b509392505050565b600082601f830112611aa857611aa7611492565b5b8151611ab8848260208601611a51565b91505092915050565b600060208284031215611ad757611ad66113cd565b5b600082015167ffffffffffffffff811115611af557611af46113d2565b5b611b0184828501611a93565b91505092915050565b600060208284031215611b2057611b1f6113cd565b5b600082013567ffffffffffffffff811115611b3e57611b3d6113d2565b5b611b4a848285016115db565b91505092915050565b6000611b5e826119e4565b9050919050565b611b6e81611b53565b8114611b7957600080fd5b50565b600081359050611b8b81611b65565b92915050565b600081359050611ba08161198b565b92915050565b600067ffffffffffffffff821115611bc157611bc06114a8565b5b602082029050602081019050919050565b6000819050919050565b611be581611bd2565b8114611bf057600080fd5b50565b600081359050611c0281611bdc565b92915050565b6000611c1b611c1684611ba6565b611508565b90508083825260208201905060208402830185811115611c3e57611c3d61154f565b5b835b81811015611c675780611c538882611bf3565b845260208401935050602081019050611c40565b5050509392505050565b600082601f830112611c8657611c85611492565b5b8135611c96848260208601611c08565b91505092915050565b60008060008060008060c08789031215611cbc57611cbb6113cd565b5b6000611cca89828a01611b7c565b9650506020611cdb89828a01611b91565b955050604087013567ffffffffffffffff811115611cfc57611cfb6113d2565b5b611d0889828a01611c71565b945050606087013567ffffffffffffffff811115611d2957611d286113d2565b5b611d3589828a01611690565b9350506080611d4689828a0161141a565b92505060a087013567ffffffffffffffff811115611d6757611d666113d2565b5b611d7389828a016115db565b9150509295509295509295565b600081519050919050565b600082825260208201905092915050565b6000819050602082019050919050565b611db581611bd2565b82525050565b6000611dc78383611dac565b60208301905092915050565b6000602082019050919050565b6000611deb82611d80565b611df58185611d8b565b9350611e0083611d9c565b8060005b83811015611e31578151611e188882611dbb565b9750611e2383611dd3565b925050600181019050611e04565b5085935050505092915050565b600081519050919050565b600082825260208201905092915050565b6000819050602082019050919050565b600082825260208201905092915050565b6000611e86826118b3565b611e908185611e6a565b9350611ea0818560208601611752565b611ea981611497565b840191505092915050565b6000611ec08383611e7b565b905092915050565b6000602082019050919050565b6000611ee082611e3e565b611eea8185611e49565b935083602082028501611efc85611e5a565b8060005b85811015611f385784840389528151611f198582611eb4565b9450611f2483611ec8565b925060208a01995050600181019050611f00565b50829750879550505050505092915050565b6000608082019050611f5f60008301876119f6565b8181036020830152611f718186611de0565b90508181036040830152611f858185611ed5565b90508181036060830152611f9981846118cf565b905095945050505050565b6000611fb7611fb284611559565b611508565b905082815260208101848484011115611fd357611fd2611554565b5b611fde848285611752565b509392505050565b600082601f830112611ffb57611ffa611492565b5b815161200b848260208601611fa4565b91505092915050565b600061202761202284611523565b611508565b9050808382526020820190506020840283018581111561204a5761204961154f565b5b835b8181101561209157805167ffffffffffffffff81111561206f5761206e611492565b5b80860161207c8982611fe6565b8552602085019450505060208101905061204c565b5050509392505050565b600082601f8301126120b0576120af611492565b5b81516120c0848260208601612014565b91505092915050565b6000602082840312156120df576120de6113cd565b5b600082015167ffffffffffffffff8111156120fd576120fc6113d2565b5b6121098482850161209b565b91505092915050565b6000819050919050565b61212581612112565b82525050565b6000604082019050612140600083018561211c565b61214d602083018461211c565b9392505050565b6000604082019050818103600083015261216e8185611ed5565b9050818103602083015261218281846118cf565b90509392505050565b600082905092915050565b600082821b905092915050565b60006121af838361218b565b826121ba81356113d7565b925060048210156121fa576121f57fffffffff0000000000000000000000000000000000000000000000000000000083600403600802612196565b831692505b505092915050565b7f4e487b7100000000000000000000000000000000000000000000000000000000600052601160045260246000fd5b600061223c82612112565b915061224783612112565b925082820190508082111561225f5761225e612202565b5b92915050565b600080fd5b600080fd5b6000808585111561228357612282612265565b5b838611156122945761229361226a565b5b6001850283019150848603905094509492505050565b6000602082840312156122c0576122bf6113cd565b5b60006122ce84828501611bf3565b91505092915050565b60006122ea6122e584611a20565b611508565b90508281526020810184848401111561230657612305611554565b5b61231184828561158a565b509392505050565b600082601f83011261232e5761232d611492565b5b813561233e8482602086016122d7565b91505092915050565b6000806040838503121561235e5761235d6113cd565b5b600061236c85828601611bf3565b925050602083013567ffffffffffffffff81111561238d5761238c6113d2565b5b61239985828601612319565b9150509250929050565b600080604083850312156123ba576123b96113cd565b5b60006123c8858286016119a2565b925050602083015167ffffffffffffffff8111156123e9576123e86113d2565b5b6123f585828601611a93565b9150509250929050565b600060408201905061241460008301856119f6565b8181036020830152612426818461177c565b90509392505050565b600061243a82612112565b915061244583612112565b925082820390508181111561245d5761245c612202565b5b92915050565b7f416464726573733a20696e73756666696369656e742062616c616e636520666f60008201527f722063616c6c0000000000000000000000000000000000000000000000000000602082015250565b60006124bf602683611741565b91506124ca82612463565b604082019050919050565b600060208201905081810360008301526124ee816124b2565b9050919050565b600081905092915050565b600061250b826118b3565b61251581856124f5565b9350612525818560208601611752565b80840191505092915050565b600061253d8284612500565b915081905092915050565b600060208201905061255d600083018461211c565b92915050565b61256c81611bd2565b82525050565b60006020820190506125876000830184612563565b92915050565b600060ff82169050919050565b6000819050919050565b60006125bf6125ba6125b58461258d565b61259a565b612112565b9050919050565b6125cf816125a4565b82525050565b60006040820190506125ea60008301856125c6565b6125f7602083018461211c565b9392505050565b600067ffffffffffffffff821115612619576126186114a8565b5b602082029050602081019050919050565b600061263d612638846125fe565b611508565b905080838252602082019050602084028301858111156126605761265f61154f565b5b835b818110156126a757805167ffffffffffffffff81111561268557612684611492565b5b8086016126928982611a93565b85526020850194505050602081019050612662565b5050509392505050565b600082601f8301126126c6576126c5611492565b5b81516126d684826020860161262a565b91505092915050565b6000602082840312156126f5576126f46113cd565b5b600082015167ffffffffffffffff811115612713576127126113d2565b5b61271f848285016126b1565b91505092915050565b600060608201905061273d60008301866119f6565b818103602083015261274f8185611de0565b905081810360408301526127638184611ed5565b9050949350505050565b600061278861278361277e84611959565b61259a565b611959565b9050919050565b600061279a8261276d565b9050919050565b60006127ac8261278f565b9050919050565b6127bc816127a1565b82525050565b6127cb816113d7565b82525050565b600060c0820190506127e660008301896127b3565b6127f360208301886119f6565b81810360408301526128058187611de0565b905081810360608301526128198186611ed5565b905061282860808301856127c2565b81810360a083015261283a81846118cf565b9050979650505050505050565b600081519050919050565b600082825260208201905092915050565b6000819050602082019050919050565b600082825260208201905092915050565b600061288f82611736565b6128998185612873565b93506128a9818560208601611752565b6128b281611497565b840191505092915050565b60006128c98383612884565b905092915050565b6000602082019050919050565b60006128e982612847565b6128f38185612852565b93508360208202850161290585612863565b8060005b85811015612941578484038952815161292285826128bd565b945061292d836128d1565b925060208a01995050600181019050612909565b50829750879550505050505092915050565b600060a08201905061296860008301886119f6565b818103602083015261297a81876128de565b9050818103604083015261298e81866118cf565b905061299d60608301856127c2565b81810360808301526129af81846118cf565b90509695505050505050565b7f416464726573733a2063616c6c20746f206e6f6e2d636f6e7472616374000000600082015250565b60006129f1601d83611741565b91506129fc826129bb565b602082019050919050565b60006020820190508181036000830152612a20816129e4565b9050919050565b6000612a3282612112565b91507fffffffffffffffffffffffffffffffffffffffffffffffffffffffffffffffff8203612a6457612a63612202565b5b600182019050919050565b6000612a7a82612112565b9150612a8583612112565b9250828202612a9381612112565b91508282048414831517612aaa57612aa9612202565b5b509291505056fea264697066735822122030d2d39c55db05e43cc7652a743f9fc5c103fc49663b9a67ee668dfb221e9f0c64736f6c63430008130033",
  "devdoc": {
    "kind": "dev",
    "methods": {
      "getStorageSlotsCallback(bytes,bytes)": {
        "details": "Internal callback function invoked by CCIP-Read in response to a `getStorageSlots` request."
      },
      "resolve(bytes,bytes)": {
        "details": "Resolve and verify a record stored in l2 target address. It supports fallback to the default resolver",
        "params": {
          "data": "The actual calldata",
          "name": "DNS encoded ENS name to query"
        },
        "returns": {
          "result": "result of the call"
        }
      },
      "supportsInterface(bytes4)": {
        "details": "See {IERC165-supportsInterface}."
      }
    },
    "version": 1
  },
  "userdoc": {
    "kind": "user",
    "methods": {},
    "version": 1
  },
  "storageLayout": {
    "storage": [],
    "types": null
  }
}