{
  "address": "0x3B9C5406592AbfB836217D57f7e156810aD986c5",
  "abi": [
    {
      "inputs": [
        {
          "internalType": "bytes32",
          "name": "node",
          "type": "bytes32"
        }
      ],
      "name": "NotAuthorized",
      "type": "error"
    },
    {
      "anonymous": false,
      "inputs": [
        {
          "indexed": true,
          "internalType": "bytes32",
          "name": "node",
          "type": "bytes32"
        },
        {
          "indexed": true,
          "internalType": "uint256",
          "name": "contentType",
          "type": "uint256"
        }
      ],
      "name": "ABIChanged",
      "type": "event"
    },
    {
      "anonymous": false,
      "inputs": [
        {
          "indexed": true,
          "internalType": "bytes32",
          "name": "node",
          "type": "bytes32"
        },
        {
          "indexed": false,
          "internalType": "address",
          "name": "a",
          "type": "address"
        }
      ],
      "name": "AddrChanged",
      "type": "event"
    },
    {
      "anonymous": false,
      "inputs": [
        {
          "indexed": true,
          "internalType": "bytes32",
          "name": "node",
          "type": "bytes32"
        },
        {
          "indexed": false,
          "internalType": "uint256",
          "name": "coinType",
          "type": "uint256"
        },
        {
          "indexed": false,
          "internalType": "bytes",
          "name": "newAddress",
          "type": "bytes"
        }
      ],
      "name": "AddressChanged",
      "type": "event"
    },
    {
      "anonymous": false,
      "inputs": [
        {
          "indexed": true,
          "internalType": "bytes32",
          "name": "node",
          "type": "bytes32"
        },
        {
          "indexed": true,
          "internalType": "address",
          "name": "operator",
          "type": "address"
        },
        {
          "indexed": false,
          "internalType": "bytes",
          "name": "name",
          "type": "bytes"
        },
        {
          "indexed": false,
          "internalType": "bool",
          "name": "approved",
          "type": "bool"
        }
      ],
      "name": "Approval",
      "type": "event"
    },
    {
      "anonymous": false,
      "inputs": [
        {
          "indexed": true,
          "internalType": "bytes32",
          "name": "node",
          "type": "bytes32"
        },
        {
          "indexed": false,
          "internalType": "bytes",
          "name": "hash",
          "type": "bytes"
        }
      ],
      "name": "ContenthashChanged",
      "type": "event"
    },
    {
      "anonymous": false,
      "inputs": [
        {
          "indexed": true,
          "internalType": "bytes32",
          "name": "node",
          "type": "bytes32"
        },
        {
          "indexed": false,
          "internalType": "bytes",
          "name": "name",
          "type": "bytes"
        },
        {
          "indexed": false,
          "internalType": "uint16",
          "name": "resource",
          "type": "uint16"
        },
        {
          "indexed": false,
          "internalType": "bytes",
          "name": "record",
          "type": "bytes"
        }
      ],
      "name": "DNSRecordChanged",
      "type": "event"
    },
    {
      "anonymous": false,
      "inputs": [
        {
          "indexed": true,
          "internalType": "bytes32",
          "name": "node",
          "type": "bytes32"
        },
        {
          "indexed": false,
          "internalType": "bytes",
          "name": "name",
          "type": "bytes"
        },
        {
          "indexed": false,
          "internalType": "uint16",
          "name": "resource",
          "type": "uint16"
        }
      ],
      "name": "DNSRecordDeleted",
      "type": "event"
    },
    {
      "anonymous": false,
      "inputs": [
        {
          "indexed": true,
          "internalType": "bytes32",
          "name": "node",
          "type": "bytes32"
        },
        {
          "indexed": false,
          "internalType": "bytes",
          "name": "lastzonehash",
          "type": "bytes"
        },
        {
          "indexed": false,
          "internalType": "bytes",
          "name": "zonehash",
          "type": "bytes"
        }
      ],
      "name": "DNSZonehashChanged",
      "type": "event"
    },
    {
      "anonymous": false,
      "inputs": [
        {
          "indexed": true,
          "internalType": "bytes32",
          "name": "node",
          "type": "bytes32"
        },
        {
          "indexed": true,
          "internalType": "bytes4",
          "name": "interfaceID",
          "type": "bytes4"
        },
        {
          "indexed": false,
          "internalType": "address",
          "name": "implementer",
          "type": "address"
        }
      ],
      "name": "InterfaceChanged",
      "type": "event"
    },
    {
      "anonymous": false,
      "inputs": [
        {
          "indexed": true,
          "internalType": "bytes32",
          "name": "node",
          "type": "bytes32"
        },
        {
          "indexed": false,
          "internalType": "string",
          "name": "name",
          "type": "string"
        }
      ],
      "name": "NameChanged",
      "type": "event"
    },
    {
      "anonymous": false,
      "inputs": [
        {
          "indexed": true,
          "internalType": "bytes32",
          "name": "node",
          "type": "bytes32"
        },
        {
          "indexed": false,
          "internalType": "bytes32",
          "name": "x",
          "type": "bytes32"
        },
        {
          "indexed": false,
          "internalType": "bytes32",
          "name": "y",
          "type": "bytes32"
        }
      ],
      "name": "PubkeyChanged",
      "type": "event"
    },
    {
      "anonymous": false,
      "inputs": [
        {
          "indexed": true,
          "internalType": "bytes32",
          "name": "node",
          "type": "bytes32"
        },
        {
          "indexed": true,
          "internalType": "string",
          "name": "indexedKey",
          "type": "string"
        },
        {
          "indexed": false,
          "internalType": "string",
          "name": "key",
          "type": "string"
        },
        {
          "indexed": false,
          "internalType": "string",
          "name": "value",
          "type": "string"
        }
      ],
      "name": "TextChanged",
      "type": "event"
    },
    {
      "anonymous": false,
      "inputs": [
        {
          "indexed": true,
          "internalType": "bytes32",
          "name": "node",
          "type": "bytes32"
        },
        {
          "indexed": false,
          "internalType": "uint64",
          "name": "newVersion",
          "type": "uint64"
        }
      ],
      "name": "VersionChanged",
      "type": "event"
    },
    {
      "inputs": [
        {
          "internalType": "bytes32",
          "name": "node",
          "type": "bytes32"
        },
        {
          "internalType": "uint256",
          "name": "contentTypes",
          "type": "uint256"
        }
      ],
      "name": "ABI",
      "outputs": [
        {
          "internalType": "uint256",
          "name": "",
          "type": "uint256"
        },
        {
          "internalType": "bytes",
          "name": "",
          "type": "bytes"
        }
      ],
      "stateMutability": "view",
      "type": "function"
    },
    {
      "inputs": [
        {
          "internalType": "bytes32",
          "name": "node",
          "type": "bytes32"
        }
      ],
      "name": "addr",
      "outputs": [
        {
          "internalType": "address payable",
          "name": "",
          "type": "address"
        }
      ],
      "stateMutability": "view",
      "type": "function"
    },
    {
      "inputs": [
        {
          "internalType": "bytes32",
          "name": "node",
          "type": "bytes32"
        },
        {
          "internalType": "uint256",
          "name": "coinType",
          "type": "uint256"
        }
      ],
      "name": "addr",
      "outputs": [
        {
          "internalType": "bytes",
          "name": "",
          "type": "bytes"
        }
      ],
      "stateMutability": "view",
      "type": "function"
    },
    {
      "inputs": [
        {
          "internalType": "bytes",
          "name": "name",
          "type": "bytes"
        },
        {
          "internalType": "address",
          "name": "operator",
          "type": "address"
        },
        {
          "internalType": "bool",
          "name": "approved",
          "type": "bool"
        }
      ],
      "name": "approve",
      "outputs": [],
      "stateMutability": "nonpayable",
      "type": "function"
    },
    {
      "inputs": [
        {
          "internalType": "bytes32",
          "name": "node",
          "type": "bytes32"
        }
      ],
      "name": "clearRecords",
      "outputs": [],
      "stateMutability": "nonpayable",
      "type": "function"
    },
    {
      "inputs": [
        {
          "internalType": "bytes32",
          "name": "node",
          "type": "bytes32"
        }
      ],
      "name": "contenthash",
      "outputs": [
        {
          "internalType": "bytes",
          "name": "",
          "type": "bytes"
        }
      ],
      "stateMutability": "view",
      "type": "function"
    },
    {
      "inputs": [
        {
          "internalType": "bytes32",
          "name": "node",
          "type": "bytes32"
        },
        {
          "internalType": "bytes32",
          "name": "name",
          "type": "bytes32"
        },
        {
          "internalType": "uint16",
          "name": "resource",
          "type": "uint16"
        }
      ],
      "name": "dnsRecord",
      "outputs": [
        {
          "internalType": "bytes",
          "name": "",
          "type": "bytes"
        }
      ],
      "stateMutability": "view",
      "type": "function"
    },
    {
      "inputs": [
        {
          "internalType": "bytes",
          "name": "name",
          "type": "bytes"
        },
        {
          "internalType": "uint256",
          "name": "offset",
          "type": "uint256"
        },
        {
          "internalType": "address",
          "name": "operator",
          "type": "address"
        }
      ],
      "name": "getAuthorisedNode",
      "outputs": [
        {
          "internalType": "bytes32",
          "name": "node",
          "type": "bytes32"
        },
        {
          "internalType": "bool",
          "name": "authorized",
          "type": "bool"
        }
      ],
      "stateMutability": "view",
      "type": "function"
    },
    {
      "inputs": [
        {
          "internalType": "bytes32",
          "name": "node",
          "type": "bytes32"
        },
        {
          "internalType": "bytes32",
          "name": "name",
          "type": "bytes32"
        }
      ],
      "name": "hasDNSRecords",
      "outputs": [
        {
          "internalType": "bool",
          "name": "",
          "type": "bool"
        }
      ],
      "stateMutability": "view",
      "type": "function"
    },
    {
      "inputs": [
        {
          "internalType": "bytes32",
          "name": "node",
          "type": "bytes32"
        },
        {
          "internalType": "bytes4",
          "name": "interfaceID",
          "type": "bytes4"
        }
      ],
      "name": "interfaceImplementer",
      "outputs": [
        {
          "internalType": "address",
          "name": "",
          "type": "address"
        }
      ],
      "stateMutability": "view",
      "type": "function"
    },
    {
      "inputs": [
        {
          "internalType": "bytes[]",
          "name": "data",
          "type": "bytes[]"
        }
      ],
      "name": "multicall",
      "outputs": [
        {
          "internalType": "bytes[]",
          "name": "results",
          "type": "bytes[]"
        }
      ],
      "stateMutability": "nonpayable",
      "type": "function"
    },
    {
      "inputs": [
        {
          "internalType": "bytes32",
          "name": "nodehash",
          "type": "bytes32"
        },
        {
          "internalType": "bytes[]",
          "name": "data",
          "type": "bytes[]"
        }
      ],
      "name": "multicallWithNodeCheck",
      "outputs": [
        {
          "internalType": "bytes[]",
          "name": "results",
          "type": "bytes[]"
        }
      ],
      "stateMutability": "nonpayable",
      "type": "function"
    },
    {
      "inputs": [
        {
          "internalType": "bytes32",
          "name": "node",
          "type": "bytes32"
        }
      ],
      "name": "name",
      "outputs": [
        {
          "internalType": "string",
          "name": "",
          "type": "string"
        }
      ],
      "stateMutability": "view",
      "type": "function"
    },
    {
      "inputs": [],
      "name": "owner",
      "outputs": [
        {
          "internalType": "address",
          "name": "",
          "type": "address"
        }
      ],
      "stateMutability": "view",
      "type": "function"
    },
    {
      "inputs": [
        {
          "internalType": "bytes32",
          "name": "node",
          "type": "bytes32"
        }
      ],
      "name": "pubkey",
      "outputs": [
        {
          "internalType": "bytes32",
          "name": "x",
          "type": "bytes32"
        },
        {
          "internalType": "bytes32",
          "name": "y",
          "type": "bytes32"
        }
      ],
      "stateMutability": "view",
      "type": "function"
    },
    {
      "inputs": [
        {
          "internalType": "bytes32",
          "name": "",
          "type": "bytes32"
        }
      ],
      "name": "recordVersions",
      "outputs": [
        {
          "internalType": "uint64",
          "name": "",
          "type": "uint64"
        }
      ],
      "stateMutability": "view",
      "type": "function"
    },
    {
      "inputs": [
        {
          "internalType": "bytes",
          "name": "",
          "type": "bytes"
        },
        {
          "internalType": "bytes",
          "name": "data",
          "type": "bytes"
        }
      ],
      "name": "resolve",
      "outputs": [
        {
          "internalType": "bytes",
          "name": "",
          "type": "bytes"
        }
      ],
      "stateMutability": "view",
      "type": "function"
    },
    {
      "inputs": [
        {
          "internalType": "bytes32",
          "name": "node",
          "type": "bytes32"
        },
        {
          "internalType": "uint256",
          "name": "contentType",
          "type": "uint256"
        },
        {
          "internalType": "bytes",
          "name": "data",
          "type": "bytes"
        }
      ],
      "name": "setABI",
      "outputs": [],
      "stateMutability": "nonpayable",
      "type": "function"
    },
    {
      "inputs": [
        {
          "internalType": "bytes32",
          "name": "node",
          "type": "bytes32"
        },
        {
          "internalType": "uint256",
          "name": "coinType",
          "type": "uint256"
        },
        {
          "internalType": "bytes",
          "name": "a",
          "type": "bytes"
        }
      ],
      "name": "setAddr",
      "outputs": [],
      "stateMutability": "nonpayable",
      "type": "function"
    },
    {
      "inputs": [
        {
          "internalType": "bytes32",
          "name": "node",
          "type": "bytes32"
        },
        {
          "internalType": "address",
          "name": "a",
          "type": "address"
        }
      ],
      "name": "setAddr",
      "outputs": [],
      "stateMutability": "nonpayable",
      "type": "function"
    },
    {
      "inputs": [
        {
          "internalType": "bytes32",
          "name": "node",
          "type": "bytes32"
        },
        {
          "internalType": "bytes",
          "name": "hash",
          "type": "bytes"
        }
      ],
      "name": "setContenthash",
      "outputs": [],
      "stateMutability": "nonpayable",
      "type": "function"
    },
    {
      "inputs": [
        {
          "internalType": "bytes32",
          "name": "node",
          "type": "bytes32"
        },
        {
          "internalType": "bytes",
          "name": "data",
          "type": "bytes"
        }
      ],
      "name": "setDNSRecords",
      "outputs": [],
      "stateMutability": "nonpayable",
      "type": "function"
    },
    {
      "inputs": [
        {
          "internalType": "bytes32",
          "name": "node",
          "type": "bytes32"
        },
        {
          "internalType": "bytes4",
          "name": "interfaceID",
          "type": "bytes4"
        },
        {
          "internalType": "address",
          "name": "implementer",
          "type": "address"
        }
      ],
      "name": "setInterface",
      "outputs": [],
      "stateMutability": "nonpayable",
      "type": "function"
    },
    {
      "inputs": [
        {
          "internalType": "bytes32",
          "name": "node",
          "type": "bytes32"
        },
        {
          "internalType": "string",
          "name": "newName",
          "type": "string"
        }
      ],
      "name": "setName",
      "outputs": [],
      "stateMutability": "nonpayable",
      "type": "function"
    },
    {
      "inputs": [
        {
          "internalType": "bytes32",
          "name": "node",
          "type": "bytes32"
        },
        {
          "internalType": "bytes32",
          "name": "x",
          "type": "bytes32"
        },
        {
          "internalType": "bytes32",
          "name": "y",
          "type": "bytes32"
        }
      ],
      "name": "setPubkey",
      "outputs": [],
      "stateMutability": "nonpayable",
      "type": "function"
    },
    {
      "inputs": [
        {
          "internalType": "bytes32",
          "name": "node",
          "type": "bytes32"
        },
        {
          "internalType": "string",
          "name": "key",
          "type": "string"
        },
        {
          "internalType": "string",
          "name": "value",
          "type": "string"
        }
      ],
      "name": "setText",
      "outputs": [],
      "stateMutability": "nonpayable",
      "type": "function"
    },
    {
      "inputs": [
        {
          "internalType": "bytes32",
          "name": "node",
          "type": "bytes32"
        },
        {
          "internalType": "bytes",
          "name": "hash",
          "type": "bytes"
        }
      ],
      "name": "setZonehash",
      "outputs": [],
      "stateMutability": "nonpayable",
      "type": "function"
    },
    {
      "inputs": [
        {
          "internalType": "bytes4",
          "name": "interfaceID",
          "type": "bytes4"
        }
      ],
      "name": "supportsInterface",
      "outputs": [
        {
          "internalType": "bool",
          "name": "",
          "type": "bool"
        }
      ],
      "stateMutability": "view",
      "type": "function"
    },
    {
      "inputs": [
        {
          "internalType": "bytes32",
          "name": "node",
          "type": "bytes32"
        },
        {
          "internalType": "string",
          "name": "key",
          "type": "string"
        }
      ],
      "name": "text",
      "outputs": [
        {
          "internalType": "string",
          "name": "",
          "type": "string"
        }
      ],
      "stateMutability": "view",
      "type": "function"
    },
    {
      "inputs": [
        {
          "internalType": "bytes32",
          "name": "node",
          "type": "bytes32"
        }
      ],
      "name": "zonehash",
      "outputs": [
        {
          "internalType": "bytes",
          "name": "",
          "type": "bytes"
        }
      ],
      "stateMutability": "view",
      "type": "function"
    }
  ],
  "transactionHash": "0x0a546737c60645ae5a418ea702e2476a3db31fc5b68a93e2bb44d89e4b1d3c96",
  "args": [],
  "numDeployments": 1,
  "solcInputHash": "995b8d5e700b4a89099bc4becfb98a3a",
  "bytecode": "0x6080806040523461001657612b0c908161001c8239f35b600080fdfe6080604052600436101561001257600080fd5b60003560e01c8063017f8fe8146101f757806301ffc9a7146101f25780630af179d7146101ed5780630e4fb893146101e857806310f13a8c146101e3578063124a319c146101de5780632203ab56146101d957806329cd62ea146101d4578063304e6ade146101cf5780633603d758146101ca5780633b3b57de146101c55780634cbf6ba4146101c057806359d1d43c146101bb5780635c98042b146101b6578063623195b0146101b1578063691f3431146101ac57806377372213146101a75780638b95dd71146101a25780638da5cb5b1461019d5780639061b92314610198578063a8fa568214610193578063ac9650d81461018e578063bc1c58d114610189578063c869023314610184578063ce3decdc1461017f578063d5fa2b001461017a578063d700ff3314610175578063e32954eb14610170578063e59d895d1461016b5763f1cb7e061461016657600080fd5b611a23565b611933565b611820565b6117ea565b6116f0565b61162b565b6115c8565b611578565b611492565b611365565b6112fb565b6112c9565b6111bf565b61108f565b61103f565b610f7f565b610f14565b610e98565b610e30565b610e12565b610d62565b610c04565b610b48565b610b19565b610a6b565b610984565b610872565b6106b6565b61037b565b6102f7565b634e487b7160e01b600052604160045260246000fd5b6040810190811067ffffffffffffffff82111761022e57604052565b6101fc565b90601f8019910116810190811067ffffffffffffffff82111761022e57604052565b67ffffffffffffffff811161022e57601f01601f191660200190565b92919261027d82610255565b9161028b6040519384610233565b8294818452818301116102a8578281602093846000960137010152565b600080fd5b9080601f830112156102a8578160206102c893359101610271565b90565b604435906001600160a01b03821682036102a857565b602435906001600160a01b03821682036102a857565b346102a85760603660031901126102a85760043567ffffffffffffffff81116102a85761033f61032d60409236906004016102ad565b6103356102cb565b9060243590611ace565b825191825215156020820152f35b600435906001600160e01b0319821682036102a857565b602435906001600160e01b0319821682036102a857565b346102a85760203660031901126102a8576103df6001600160e01b03196103a061034d565b167f8295fc200000000000000000000000000000000000000000000000000000000081149081156103e3575b5060405190151581529081906020820190565b0390f35b7f59d1d43c00000000000000000000000000000000000000000000000000000000811491508115610416575b50386103cc565b7fc869023300000000000000000000000000000000000000000000000000000000811491508115610449575b503861040f565b7f691f34310000000000000000000000000000000000000000000000000000000081149150811561047c575b5038610442565b7f124a319c000000000000000000000000000000000000000000000000000000008114915081156104af575b5038610475565b7fa8fa56820000000000000000000000000000000000000000000000000000000081149150811561062a575b81156104e9575b50386104a8565b7fbc1c58d10000000000000000000000000000000000000000000000000000000081149150811561051c575b50386104e2565b7f3b3b57de00000000000000000000000000000000000000000000000000000000811491508115610600575b8115610556575b5038610515565b7f2203ab5600000000000000000000000000000000000000000000000000000000811491508115610589575b503861054f565b7fd700ff33000000000000000000000000000000000000000000000000000000008114915081156105bc575b5038610582565b7f4fbf0433000000000000000000000000000000000000000000000000000000008114915081156105ef575b50386105b5565b6301ffc9a760e01b915014386105e8565b7ff1cb7e060000000000000000000000000000000000000000000000000000000081149150610548565b7f5c98042b00000000000000000000000000000000000000000000000000000000811491506104db565b9181601f840112156102a85782359167ffffffffffffffff83116102a857602083818601950101116102a857565b9060406003198301126102a857600435916024359067ffffffffffffffff82116102a8576106b291600401610654565b9091565b346102a8576106c436610682565b916106ce81611e3a565b156102a85790600091829060609081946107036106f5836000526000602052604060002090565b5467ffffffffffffffff1690565b92610717610712368a89610271565b612354565b965b61073161072d896020810151905151111590565b1590565b1561083f5761ffff83168061079d57505050506040916107558387015161ffff1690565b94610780610762886124ef565b945180610772602082018861230a565b0390601f1982018152610233565b6107898761257f565b905b610794886123a1565b95919390610719565b6107ac899892939694986124ef565b9060408a01906107c86107c1835161ffff1690565b61ffff1690565b1480159061082c575b6107dd575b505061078b565b92978491979860208b9894980199808b51906107f891611e90565b91511592610807368f8c610271565b90610812968a61265c565b5161ffff16945193926108248761257f565b9038806107d6565b5061083a61072d8389612321565b6107d1565b94939650969496805161084e57005b61086a6108709861085f8689611e90565b965115973691610271565b9261265c565b005b346102a85760603660031901126102a85760043567ffffffffffffffff81116102a8576108a39036906004016102ad565b6108ab6102e1565b6044359081151582036102a8576108c433600085611ace565b92909215610952578161094d8261093f6001600160a01b039461092e7f4118949b5ca9f612d518b6fa4b6fb8c5575022357d9d71f7375c4053f259db63976109168a600052600b602052604060002090565b906001600160a01b0316600052602052604060002090565b9060ff801983541691151516179055565b604051938493169683611c82565b0390a3005b6040517f8f5a547c00000000000000000000000000000000000000000000000000000000815260048101849052602490fd5b346102a85760603660031901126102a85767ffffffffffffffff6004356024358281116102a8576109b9903690600401610654565b6044929192358481116102a8576109d4903690600401610654565b9190936109e084611e3a565b156102a857610a657f448bc014f1536726cf8d54ff3d6481ed3cbc683c2591ca204274009afa09b1a193600097868952886020526040892054168852600a60205260408820868952602052610a4e818860408b20602060405180928a8a83378a820190815203019020611f35565b610a588484612a9a565b9660405194859485612aaf565b0390a380f35b346102a85760403660031901126102a8576020610a91610a89610364565b600435612899565b6001600160a01b0360405191168152f35b60005b838110610ab55750506000910152565b8181015183820152602001610aa5565b90602091610ade81518092818552858086019101610aa2565b601f01601f1916010190565b9060406102c892603c81528160208201520190610ac5565b6040906102c8939281528160208201520190610ac5565b346102a85760403660031901126102a857610b386024356004356120b1565b906103df60405192839283610b02565b346102a85760603660031901126102a857602435600435604435610b6b82611e3a565b156102a8577f1d6f5e03d3f63eb58751986629a5439baee5079ff04f345becb66e23eb154e469060405193610b9f85610212565b808552602085019482865260016000968688528760205267ffffffffffffffff6040892054168852600960205260408820878952602052604088209251835551910155610bfe6040519283928360209093929193604081019481520152565b0390a280f35b346102a857610c1236610682565b9091610c1d81611e3a565b156102a85760009181835260209383855267ffffffffffffffff806040862054168552600386526040852084865286526040852090831161022e57610c6c83610c668354611e9d565b83611eee565b8495601f8411600114610cd457508285967fe379c1624ed7e714cc0937528a32359d69d5281337765313dba4e081b72d7578959691610cc9575b508360011b906000198560031b1c19161790555b610bfe604051928392836122f9565b905082013538610ca6565b601f19841696610ce983600052602060002090565b9187905b898210610d4a575050847fe379c1624ed7e714cc0937528a32359d69d5281337765313dba4e081b72d757896979810610d30575b5050600183811b019055610cba565b830135600019600386901b60f8161c191690553880610d21565b80600184958294958901358155019401920190610ced565b346102a85760203660031901126102a857600435610d7f81611e3a565b156102a857600090808252816020526040822080549067ffffffffffffffff80831691818314610e0d577fc6621ccb8f3f5a04bb6502154b2caf6adf5983fe76dfef1cfc9c42e3579db44493826001610bfe9501169067ffffffffffffffff1916179055838552846020526040852054166040519182918291909167ffffffffffffffff6020820193169052565b611a81565b346102a85760203660031901126102a8576020610a91600435612152565b346102a8576040806003193601126102a8578061ffff60209260043560009080825281865267ffffffffffffffff838320541682526006865282822090825285528181206024358252855220541615159051908152f35b9060206102c8928181520190610ac5565b346102a857610efe610f056103df610eaf36610682565b6000949194928084526020958691858352604095869167ffffffffffffffff83832054168252600a85528282209082528452208386519485938437820190815203019020825195868092612007565b0385610233565b51928284938452830190610ac5565b346102a8576020806003193601126102a857610f6490610f6b604060043560009080825281855267ffffffffffffffff838320541682526004855282822090825284522060405193848092612007565b0383610233565b6103df604051928284938452830190610ac5565b346102a85760603660031901126102a85767ffffffffffffffff6024356004356044358381116102a857610fb7903690600401610654565b610fc083611e3a565b156102a8576000198401848111610e0d5784166102a85761101891600095848752866020526040872054168652600160205260408620848752602052611013856040882090600052602052604060002090565b611f35565b7faa121bbeef5f32f5961a2a28966e769023910fc9479059ee3495d4c1a696efe38380a380f35b346102a8576020806003193601126102a857610f6490610f6b604060043560009080825281855267ffffffffffffffff838320541682526008855282822090825284522060405193848092612007565b346102a85761109d36610682565b90916110a881611e3a565b156102a85760009181835260209383855267ffffffffffffffff806040862054168552600886526040852084865286526040852090831161022e576110f183610c668354611e9d565b8495601f841160011461114c57508285967fb7d29e911041e8d9b843369e890bcb72c9388692ba48b65ac54e7214c4c348f7959691610cc957508360011b906000198560031b1c1916179055610bfe604051928392836122f9565b601f1984169661116183600052602060002090565b9187905b8982106111a7575050847fb7d29e911041e8d9b843369e890bcb72c9388692ba48b65ac54e7214c4c348f796979810610d30575050600183811b019055610cba565b80600184958294958901358155019401920190611165565b346102a85760603660031901126102a85767ffffffffffffffff6024356004356044358381116102a8576111f79036906004016102ad565b9061120181611e3a565b156102a857611284928161127f927f65412581168e88a1e60c6459d7f44ae83ad0832e670826c05a4e2476b57af7526040518061123f888783610b02565b0390a2603c8214611287575b6000958187528660205260408720541686526002602052604086209086526020526040852090600052602052604060002090565b6121b2565b80f35b807f52d7d861f09ab3d26239d492e8968629f95e9e318cf0b73bfddc441522a15fd260206112b487612279565b6001600160a01b0360405191168152a261124b565b346102a85760003660031901126102a85760206112ef6001198036013560f01c36030190565b3560601c604051908152f35b346102a85760403660031901126102a85767ffffffffffffffff6004358181116102a85761132d9036906004016102ad565b506024359081116102a85761135161134c6103df9236906004016102ad565b612873565b604051918291602083526020830190610ac5565b346102a85760603660031901126102a85760043560443561ffff811681036102a8576113ee6113f39160406103df94600090808252816020526113c967ffffffffffffffff848420541667ffffffffffffffff166000526005602052604060002090565b9082526020528181206024358252602052209061ffff16600052602052604060002090565b61209d565b60405191829182610e87565b9181601f840112156102a85782359167ffffffffffffffff83116102a8576020808501948460051b0101116102a857565b602080820190808352835180925260408301928160408460051b8301019501936000915b8483106114645750505050505090565b9091929394958480611482600193603f198682030187528a51610ac5565b9801930193019194939290611454565b346102a8576020806003193601126102a85760043567ffffffffffffffff81116102a8576114c49036906004016113ff565b916114ce83611ca2565b916040916114de83519485610233565b848452601f196114ed86611ca2565b0160005b8181106115695750505060005b848110611512578251806103df8682611430565b80600080611524611564948987611cc9565b90611533885180938193611dc4565b0390305af4611549611543611df6565b91611c16565b6115538287611e26565b5261155e8186611e26565b50611cba565b6114fe565b606086820184015282016114f1565b346102a8576020806003193601126102a857610f6490610f6b604060043560009080825281855267ffffffffffffffff838320541682526003855282822090825284522060405193848092612007565b346102a8576020806003193601126102a857600435600081815280835260408082205467ffffffffffffffff1680835260098086528284208585528652828420549184528552818320938352929093528290206001015482519182526020820152f35b346102a85761163936610682565b919061164482611e3a565b156102a8576116ae7f8f15ed4b723ef428f250961da8315675b507046737e19319fc1a4d81bfe87f8591610bfe60009585875260209087825260409367ffffffffffffffff858a205416808a5260048452858a20898b5284526116b5868b20875198898092612007565b0388610233565b895260048352848920888a5283526116d08282878c20611f35565b6116e38551968688978852870190610ac5565b92858403908601526122d8565b346102a8576040806003193601126102a8576004359061170e6102e1565b61171783611e3a565b156102a85761172461228c565b9060601b602082015261173683611e3a565b156102a85761127f82847f65412581168e88a1e60c6459d7f44ae83ad0832e670826c05a4e2476b57af7526112849551806117718782610aea565b0390a2847f52d7d861f09ab3d26239d492e8968629f95e9e318cf0b73bfddc441522a15fd260206117a186612279565b6001600160a01b03855191168152a26000948086528560205267ffffffffffffffff8287205416865260026020528186209086526020528420603c600052602052604060002090565b346102a85760203660031901126102a8576004356000526000602052602067ffffffffffffffff60406000205416604051908152f35b346102a8576040806003193601126102a85760043560243567ffffffffffffffff81116102a8576118559036906004016113ff565b92909161186184611ca2565b9261186e83519485610233565b848452601f1961187d86611ca2565b0160005b8181106119225750508115159160005b8681106118a5578451806103df8882611430565b6118f190846118f6575b6000806118bd838b88611cc9565b906118cc8a5180938193611dc4565b0390305af46118dc611543611df6565b6118e68289611e26565b5261155e8188611e26565b611891565b61191d8361191761191161190b858d8a611cc9565b90611d0b565b90611d1c565b14611d39565b6118af565b806060602080938901015201611881565b346102a85760603660031901126102a85760043561194f610364565b906119586102cb565b9061196281611e3a565b156102a8577f7c69f06bea0bdef565b709e93a147836b0063ba2dd89f02d0b7e8d931e6a6daa6001600160e01b03196000948386528560205267ffffffffffffffff60408720541686526007602052604086208487526020526119dc8160408820906001600160e01b031916600052602052604060002090565b80547fffffffffffffffffffffffff0000000000000000000000000000000000000000166001600160a01b0396909616958617905560405194855216928060208101610a65565b346102a8576040806003193601126102a857610efe906103df60043591610f0581600085815260209581875267ffffffffffffffff838320541682526002875282822090825286528181206024358252865220825195868092612007565b634e487b7160e01b600052601160045260246000fd5b9060018201809211610e0d57565b9060028201809211610e0d57565b9060048201809211610e0d57565b91908201809211610e0d57565b92919092611b17611b11611b0b611ae58785611c71565b517fff000000000000000000000000000000000000000000000000000000000000001690565b60f81c90565b60ff1690565b8015611ba157611b4d91611b47611b4283611b3c8795611b368b611a97565b86611c2c565b98611ac1565b611a97565b90611ace565b604080516020810193845280820196909652855293611b6d606082610233565b519020908315611b7c57509190565b819350611b9a906109166102c893600052600b602052604060002090565b5460ff1690565b505060008052600b6020529150611bdb611b9a837fdf7de25b7f1fd6d0b5205f0e18f1f35bd7b8d84cce336588d184533ce43a6f76610916565b918215611bea575b5060009190565b9091506001600160a01b03611c086001198036013560f01c36030190565b3560601c9116149038611be3565b156102a857565b805182116102a8576020012090565b90828101808211610e0d578251106102a857016020012090565b634e487b7160e01b600052603260045260246000fd5b8051601f1015611c6c57603f0190565b611c46565b908151811015611c6c570160200190565b90611c9a602091949394604084526040840190610ac5565b931515910152565b67ffffffffffffffff811161022e5760051b60200190565b6000198114610e0d5760010190565b9190811015611c6c5760051b81013590601e19813603018212156102a857019081359167ffffffffffffffff83116102a85760200182360381136102a8579190565b906024116102a85760040190602090565b359060208110611d2a575090565b6000199060200360031b1b1690565b15611d4057565b60846040517f08c379a000000000000000000000000000000000000000000000000000000000815260206004820152603460248201527f6d756c746963616c6c3a20416c6c207265636f726473206d757374206861766560448201527f2061206d61746368696e67206e616d65686173680000000000000000000000006064820152fd5b908092918237016000815290565b604051906020820182811067ffffffffffffffff82111761022e5760405260008252565b3d15611e21573d90611e0782610255565b91611e156040519384610233565b82523d6000602084013e565b606090565b8051821015611c6c5760209160051b010190565b611e4d6001198036013560f01c36030190565b3560601c3314908115611e5e575090565b9050600052600b60205260ff611e8b336040600020906001600160a01b0316600052602052604060002090565b541690565b91908203918211610e0d57565b90600182811c92168015611ecd575b6020831014611eb757565b634e487b7160e01b600052602260045260246000fd5b91607f1691611eac565b818110611ee2575050565b60008155600101611ed7565b9190601f8111611efd57505050565b611f29926000526020600020906020601f840160051c83019310611f2b575b601f0160051c0190611ed7565b565b9091508190611f1c565b90929167ffffffffffffffff811161022e57611f5b81611f558454611e9d565b84611eee565b6000601f8211600114611f955781929394600092611f8a575b50508160011b916000199060031b1c1916179055565b013590503880611f74565b601f19821694611faa84600052602060002090565b91805b878110611fe5575083600195969710611fcb575b505050811b019055565b0135600019600384901b60f8161c19169055388080611fc1565b90926020600181928686013581550194019101611fad565b6102c89054611e9d565b906000929180549161201883611e9d565b91828252600193848116908160001461207a575060011461203a575b50505050565b90919394506000526020928360002092846000945b838610612066575050505001019038808080612034565b80548587018301529401938590820161204f565b9294505050602093945060ff191683830152151560051b01019038808080612034565b90611f29610f649260405193848092612007565b9190600092808452602084815260409067ffffffffffffffff82872054168652600192838252828720908752815281862090835b858111156120fb575050505050506102c8611dd2565b858116151580612138575b61211157841b6120e5565b80885291905294819020905192506102c891508290612131908290612007565b0382610233565b5080885282825261214b84892054611e9d565b1515612106565b6000908082528160205267ffffffffffffffff604083205416825260026020526040822090825260205260408120603c825260205261213161219d6040832060405192838092612007565b8051156121ae576102c89150612279565b5090565b919091825167ffffffffffffffff811161022e576121d481611f558454611e9d565b602080601f831160011461220f5750819293946000926122045750508160011b916000199060031b1c1916179055565b015190503880611f74565b90601f1983169561222585600052602060002090565b926000905b8882106122615750508360019596971061224857505050811b019055565b015160001960f88460031b161c19169055388080611fc1565b8060018596829496860151815501950193019061222a565b60148151036102a8576020015160601c90565b6040519061229982610212565b6014825260203681840137565b906122b082610255565b6122bd6040519182610233565b82815280926122ce601f1991610255565b0190602036910137565b908060209392818452848401376000828201840152601f01601f1916010190565b9160206102c89381815201916122d8565b9061231d60209282815194859201610aa2565b0190565b908151815181149283612335575b50505090565b61234b9293508161234591611c1d565b92611c1d565b1438808061232f565b9060405160e081019080821067ffffffffffffffff83111761022e57611f299160405260008060208301528060408301528060608301528060808301528060a08301528194825260c08201525b60c08101908151908160208201528051805183101561203457826123c491612497565b8201809211610e0d5760a06124336124136123fa856123f56123ea612455988851612459565b61ffff166040880152565b611aa5565b6123f5612408828751612459565b61ffff166060870152565b61242e612421828651612477565b63ffffffff166080860152565b611ab3565b9161244b6124456107c1858451612459565b93611aa5565b9182910152611ac1565b9052565b60028201808311610e0d578151106102a857016002015161ffff1690565b60048201808311610e0d578151106102a857016004015163ffffffff1690565b81905b80518310156124da576124ad8382611c71565b5160f81c9260018085018511610e0d5784820101809111610e0d579261249a57508103908111610e0d5790565b60246000634e487b7160e01b81526001600452fd5b6102c890602081519101516125048183612497565b915b9091808301808411610e0d578251106102a857612522816122a6565b9260208091818601940101915b818110156125515760001991036101000a019081199051169082511617905290565b919283518152818101809111610e0d5792818101809111610e0d5791601f1981019081111561252f57611a81565b80519060c060a082015191015190808203918211610e0d576102c892612506565b61ffff809116908114610e0d5760010190565b61ffff6125cc6102c89593606084526060840190610ac5565b931660208201526040818403910152610ac5565b61ffff168015610e0d576000190190565b6125fb8154611e9d565b9081612605575050565b81601f60009311600114612617575055565b908083918252612636601f60208420940160051c840160018501611ed7565b5555565b9061ffff612655602092959495604085526040850190610ac5565b9416910152565b9691946126759088949792958651602088012098612506565b90156127a25750836126ec866126dd856126dd866127046126ff886126ec7f03528ed0c2a3ebc993b12ce3c16bb382f9c7d88ef7d8a1bf290eaf35955a12079f6126dd6127279e6126dd6127229f67ffffffffffffffff166000526005602052604060002090565b90600052602052604060002090565b9061ffff16600052602052604060002090565b611ffd565b61273b5767ffffffffffffffff166000526005602052604060002090565b6125f1565b6127366040519283928361263a565b0390a2565b612788612764866126dd866126dd8667ffffffffffffffff166000526006602052604060002090565b612778612773825461ffff1690565b6125e0565b61ffff1661ffff19825416179055565b67ffffffffffffffff166000526005602052604060002090565b908161127f866126ec896126dd886126dd8861280b7f52a608b3303a48862d07a73d82fa221318c0027fbbcfb1b2329bface3f19ff2b9f886126ec6127369f926126dd61282a9f946126dd6126ff9667ffffffffffffffff166000526005602052604060002090565b156128365767ffffffffffffffff166000526005602052604060002090565b604051938493846125b3565b61278861285f866126dd866126dd8667ffffffffffffffff166000526006602052604060002090565b61277861286e825461ffff1690565b6125a0565b60008091602081519101305afa612888611df6565b90156128915790565b602081519101fd5b906128ff6128f2826128d9856126dd6128bf6106f5836000526000602052604060002090565b67ffffffffffffffff166000526007602052604060002090565b906001600160e01b031916600052602052604060002090565b546001600160a01b031690565b916001600160a01b0392838116612a93575061291d61292991612152565b6001600160a01b031690565b91821615612a8c576040519060208201916301ffc9a760e01b918284528161295f60248201906301ffc9a760e01b602083019252565b0391612973601f1993848101835282610233565b6000809581925190885afa612986611df6565b9015908115612a7f575b8115612a48575b50612a4057604051602081019384526001600160e01b031991909116602482015260449182018152839283929091906129d09082610233565b5190855afa6129dd611df6565b9015908115612a33575b81156129fc575b506129f7575090565b905090565b7fff000000000000000000000000000000000000000000000000000000000000009150611ae5612a2b91611c5c565b1615386129ee565b90506020815110906129e7565b505050905090565b7fff000000000000000000000000000000000000000000000000000000000000009150611ae5612a7791611c5c565b161538612997565b9050602081511090612990565b5050600090565b9250505090565b81604051928392833781016000815203902090565b9290612ac8906102c895936040865260408601916122d8565b9260208185039101526122d856fea26469706673582212204516031ce0af6a497dd4ffbfa96d934bb4126b525bc22de875724376999d737964736f6c63430008130033",
  "devdoc": {
    "kind": "dev",
    "methods": {
      "ABI(bytes32,uint256)": {
        "params": {
          "contentTypes": "A bitwise OR of the ABI formats accepted by the caller.",
          "node": "The ENS node to query"
        },
        "returns": {
          "_0": "contentType The content type of the return value",
          "_1": "data The ABI data"
        }
      },
      "addr(bytes32)": {
        "params": {
          "node": "The ENS node to query."
        },
        "returns": {
          "_0": "The associated address."
        }
      },
      "approve(bytes,address,bool)": {
        "details": "Approve an operator to be able to updated records on a node."
      },
      "clearRecords(bytes32)": {
        "params": {
          "node": "The node to update."
        }
      },
      "contenthash(bytes32)": {
        "params": {
          "node": "The ENS node to query."
        },
        "returns": {
          "_0": "The associated contenthash."
        }
      },
      "dnsRecord(bytes32,bytes32,uint16)": {
        "params": {
          "name": "the keccak-256 hash of the fully-qualified name for which to fetch the record",
          "node": "the namehash of the node for which to fetch the record",
          "resource": "the ID of the resource as per https://en.wikipedia.org/wiki/List_of_DNS_record_types"
        },
        "returns": {
          "_0": "the DNS record in wire format if present, otherwise empty"
        }
      },
      "hasDNSRecords(bytes32,bytes32)": {
        "params": {
          "name": "the namehash of the node for which to check the records",
          "node": "the namehash of the node for which to check the records"
        }
      },
      "interfaceImplementer(bytes32,bytes4)": {
        "params": {
          "interfaceID": "The EIP 165 interface ID to check for.",
          "node": "The ENS node to query."
        },
        "returns": {
          "_0": "The address that implements this interface, or 0 if the interface is unsupported."
        }
      },
      "name(bytes32)": {
        "params": {
          "node": "The ENS node to query."
        },
        "returns": {
          "_0": "The associated name."
        }
      },
      "pubkey(bytes32)": {
        "params": {
          "node": "The ENS node to query"
        },
        "returns": {
          "x": "The X coordinate of the curve point for the public key.",
          "y": "The Y coordinate of the curve point for the public key."
        }
      },
      "setABI(bytes32,uint256,bytes)": {
        "params": {
          "contentType": "The content type of the ABI",
          "data": "The ABI data.",
          "node": "The node to update."
        }
      },
      "setAddr(bytes32,address)": {
        "params": {
          "a": "The address to set.",
          "node": "The node to update."
        }
      },
      "setContenthash(bytes32,bytes)": {
        "params": {
          "hash": "The contenthash to set",
          "node": "The node to update."
        }
      },
      "setDNSRecords(bytes32,bytes)": {
        "params": {
          "data": "the DNS wire format records to set",
          "node": "the namehash of the node for which to set the records"
        }
      },
      "setInterface(bytes32,bytes4,address)": {
        "params": {
          "implementer": "The address of a contract that implements this interface for this node.",
          "interfaceID": "The EIP 165 interface ID.",
          "node": "The node to update."
        }
      },
      "setName(bytes32,string)": {
        "params": {
          "node": "The node to update."
        }
      },
      "setPubkey(bytes32,bytes32,bytes32)": {
        "params": {
          "node": "The ENS node to query",
          "x": "the X coordinate of the curve point for the public key.",
          "y": "the Y coordinate of the curve point for the public key."
        }
      },
      "setText(bytes32,string,string)": {
        "params": {
          "key": "The key to set.",
          "node": "The node to update.",
          "value": "The text data value to set."
        }
      },
      "setZonehash(bytes32,bytes)": {
        "params": {
          "hash": "The zonehash to set",
          "node": "The node to update."
        }
      },
      "text(bytes32,string)": {
        "params": {
          "key": "The text data key to query.",
          "node": "The ENS node to query."
        },
        "returns": {
          "_0": "The associated text data."
        }
      },
      "zonehash(bytes32)": {
        "params": {
          "node": "The ENS node to query."
        },
        "returns": {
          "_0": "The associated contenthash."
        }
      }
    },
    "version": 1
  },
  "userdoc": {
    "kind": "user",
    "methods": {
      "ABI(bytes32,uint256)": {
        "notice": "Returns the ABI associated with an ENS node. Defined in EIP205."
      },
      "addr(bytes32)": {
        "notice": "Returns the address associated with an ENS node."
      },
      "clearRecords(bytes32)": {
        "notice": "Increments the record version associated with an ENS node. May only be called by the owner of that node in the ENS registry."
      },
      "contenthash(bytes32)": {
        "notice": "Returns the contenthash associated with an ENS node."
      },
      "dnsRecord(bytes32,bytes32,uint16)": {
        "notice": "Obtain a DNS record."
      },
      "hasDNSRecords(bytes32,bytes32)": {
        "notice": "Check if a given node has records."
      },
      "interfaceImplementer(bytes32,bytes4)": {
        "notice": "Returns the address of a contract that implements the specified interface for this name. If an implementer has not been set for this interfaceID and name, the resolver will query the contract at `addr()`. If `addr()` is set, a contract exists at that address, and that contract implements EIP165 and returns `true` for the specified interfaceID, its address will be returned."
      },
      "name(bytes32)": {
        "notice": "Returns the name associated with an ENS node, for reverse records. Defined in EIP181."
      },
      "pubkey(bytes32)": {
        "notice": "Returns the SECP256k1 public key associated with an ENS node. Defined in EIP 619."
      },
      "setABI(bytes32,uint256,bytes)": {
        "notice": "Sets the ABI associated with an ENS node. Nodes may have one ABI of each content type. To remove an ABI, set it to the empty string."
      },
      "setAddr(bytes32,address)": {
        "notice": "Sets the address associated with an ENS node. May only be called by the owner of that node in the ENS registry."
      },
      "setContenthash(bytes32,bytes)": {
        "notice": "Sets the contenthash associated with an ENS node. May only be called by the owner of that node in the ENS registry."
      },
      "setDNSRecords(bytes32,bytes)": {
        "notice": "Set one or more DNS records.  Records are supplied in wire-format. Records with the same node/name/resource must be supplied one after the other to ensure the data is updated correctly. For example, if the data was supplied:     a.example.com IN A 1.2.3.4     a.example.com IN A 5.6.7.8     www.example.com IN CNAME a.example.com. then this would store the two A records for a.example.com correctly as a single RRSET, however if the data was supplied:     a.example.com IN A 1.2.3.4     www.example.com IN CNAME a.example.com.     a.example.com IN A 5.6.7.8 then this would store the first A record, the CNAME, then the second A record which would overwrite the first."
      },
      "setInterface(bytes32,bytes4,address)": {
        "notice": "Sets an interface associated with a name. Setting the address to 0 restores the default behaviour of querying the contract at `addr()` for interface support."
      },
      "setName(bytes32,string)": {
        "notice": "Sets the name associated with an ENS node, for reverse records. May only be called by the owner of that node in the ENS registry."
      },
      "setPubkey(bytes32,bytes32,bytes32)": {
        "notice": "Sets the SECP256k1 public key associated with an ENS node."
      },
      "setText(bytes32,string,string)": {
        "notice": "Sets the text data associated with an ENS node and key. May only be called by the owner of that node in the ENS registry."
      },
      "setZonehash(bytes32,bytes)": {
        "notice": "setZonehash sets the hash for the zone. May only be called by the owner of that node in the ENS registry."
      },
      "text(bytes32,string)": {
        "notice": "Returns the text data associated with an ENS node and key."
      },
      "zonehash(bytes32)": {
        "notice": "zonehash obtains the hash for the zone."
      }
    },
    "notice": "A delegated resolver that allows the resolver owner to add an operator to update records of a node on behalf of the owner. address.",
    "version": 1
  },
  "storageLayout": {
    "storage": [
      {
        "astId": 4396,
        "contract": "@ensdomains/ens-contracts/contracts/resolvers/DelegatableResolver.sol:DelegatableResolver",
        "label": "recordVersions",
        "offset": 0,
        "slot": "0",
        "type": "t_mapping(t_bytes32,t_uint64)"
      },
      {
        "astId": 4475,
        "contract": "@ensdomains/ens-contracts/contracts/resolvers/DelegatableResolver.sol:DelegatableResolver",
        "label": "versionable_abis",
        "offset": 0,
        "slot": "1",
        "type": "t_mapping(t_uint64,t_mapping(t_bytes32,t_mapping(t_uint256,t_bytes_storage)))"
      },
      {
        "astId": 4629,
        "contract": "@ensdomains/ens-contracts/contracts/resolvers/DelegatableResolver.sol:DelegatableResolver",
        "label": "versionable_addresses",
        "offset": 0,
        "slot": "2",
        "type": "t_mapping(t_uint64,t_mapping(t_bytes32,t_mapping(t_uint256,t_bytes_storage)))"
      },
      {
        "astId": 4820,
        "contract": "@ensdomains/ens-contracts/contracts/resolvers/DelegatableResolver.sol:DelegatableResolver",
        "label": "versionable_hashes",
        "offset": 0,
        "slot": "3",
        "type": "t_mapping(t_uint64,t_mapping(t_bytes32,t_bytes_storage))"
      },
      {
        "astId": 4910,
        "contract": "@ensdomains/ens-contracts/contracts/resolvers/DelegatableResolver.sol:DelegatableResolver",
        "label": "versionable_zonehashes",
        "offset": 0,
        "slot": "4",
        "type": "t_mapping(t_uint64,t_mapping(t_bytes32,t_bytes_storage))"
      },
      {
        "astId": 4920,
        "contract": "@ensdomains/ens-contracts/contracts/resolvers/DelegatableResolver.sol:DelegatableResolver",
        "label": "versionable_records",
        "offset": 0,
        "slot": "5",
        "type": "t_mapping(t_uint64,t_mapping(t_bytes32,t_mapping(t_bytes32,t_mapping(t_uint16,t_bytes_storage))))"
      },
      {
        "astId": 4928,
        "contract": "@ensdomains/ens-contracts/contracts/resolvers/DelegatableResolver.sol:DelegatableResolver",
        "label": "versionable_nameEntriesCount",
        "offset": 0,
        "slot": "6",
        "type": "t_mapping(t_uint64,t_mapping(t_bytes32,t_mapping(t_bytes32,t_uint16)))"
      },
      {
        "astId": 5640,
        "contract": "@ensdomains/ens-contracts/contracts/resolvers/DelegatableResolver.sol:DelegatableResolver",
        "label": "versionable_interfaces",
        "offset": 0,
        "slot": "7",
        "type": "t_mapping(t_uint64,t_mapping(t_bytes32,t_mapping(t_bytes4,t_address)))"
      },
      {
        "astId": 5832,
        "contract": "@ensdomains/ens-contracts/contracts/resolvers/DelegatableResolver.sol:DelegatableResolver",
        "label": "versionable_names",
        "offset": 0,
        "slot": "8",
        "type": "t_mapping(t_uint64,t_mapping(t_bytes32,t_string_storage))"
      },
      {
        "astId": 5919,
        "contract": "@ensdomains/ens-contracts/contracts/resolvers/DelegatableResolver.sol:DelegatableResolver",
        "label": "versionable_pubkeys",
        "offset": 0,
        "slot": "9",
        "type": "t_mapping(t_uint64,t_mapping(t_bytes32,t_struct(PublicKey)5912_storage))"
      },
      {
        "astId": 6022,
        "contract": "@ensdomains/ens-contracts/contracts/resolvers/DelegatableResolver.sol:DelegatableResolver",
        "label": "versionable_texts",
        "offset": 0,
        "slot": "10",
        "type": "t_mapping(t_uint64,t_mapping(t_bytes32,t_mapping(t_string_memory_ptr,t_string_storage)))"
      },
      {
        "astId": 3572,
        "contract": "@ensdomains/ens-contracts/contracts/resolvers/DelegatableResolver.sol:DelegatableResolver",
        "label": "operators",
        "offset": 0,
        "slot": "11",
        "type": "t_mapping(t_bytes32,t_mapping(t_address,t_bool))"
      }
    ],
    "types": {
      "t_address": {
        "encoding": "inplace",
        "label": "address",
        "numberOfBytes": "20"
      },
      "t_bool": {
        "encoding": "inplace",
        "label": "bool",
        "numberOfBytes": "1"
      },
      "t_bytes32": {
        "encoding": "inplace",
        "label": "bytes32",
        "numberOfBytes": "32"
      },
      "t_bytes4": {
        "encoding": "inplace",
        "label": "bytes4",
        "numberOfBytes": "4"
      },
      "t_bytes_storage": {
        "encoding": "bytes",
        "label": "bytes",
        "numberOfBytes": "32"
      },
      "t_mapping(t_address,t_bool)": {
        "encoding": "mapping",
        "key": "t_address",
        "label": "mapping(address => bool)",
        "numberOfBytes": "32",
        "value": "t_bool"
      },
      "t_mapping(t_bytes32,t_bytes_storage)": {
        "encoding": "mapping",
        "key": "t_bytes32",
        "label": "mapping(bytes32 => bytes)",
        "numberOfBytes": "32",
        "value": "t_bytes_storage"
      },
      "t_mapping(t_bytes32,t_mapping(t_address,t_bool))": {
        "encoding": "mapping",
        "key": "t_bytes32",
        "label": "mapping(bytes32 => mapping(address => bool))",
        "numberOfBytes": "32",
        "value": "t_mapping(t_address,t_bool)"
      },
      "t_mapping(t_bytes32,t_mapping(t_bytes32,t_mapping(t_uint16,t_bytes_storage)))": {
        "encoding": "mapping",
        "key": "t_bytes32",
        "label": "mapping(bytes32 => mapping(bytes32 => mapping(uint16 => bytes)))",
        "numberOfBytes": "32",
        "value": "t_mapping(t_bytes32,t_mapping(t_uint16,t_bytes_storage))"
      },
      "t_mapping(t_bytes32,t_mapping(t_bytes32,t_uint16))": {
        "encoding": "mapping",
        "key": "t_bytes32",
        "label": "mapping(bytes32 => mapping(bytes32 => uint16))",
        "numberOfBytes": "32",
        "value": "t_mapping(t_bytes32,t_uint16)"
      },
      "t_mapping(t_bytes32,t_mapping(t_bytes4,t_address))": {
        "encoding": "mapping",
        "key": "t_bytes32",
        "label": "mapping(bytes32 => mapping(bytes4 => address))",
        "numberOfBytes": "32",
        "value": "t_mapping(t_bytes4,t_address)"
      },
      "t_mapping(t_bytes32,t_mapping(t_string_memory_ptr,t_string_storage))": {
        "encoding": "mapping",
        "key": "t_bytes32",
        "label": "mapping(bytes32 => mapping(string => string))",
        "numberOfBytes": "32",
        "value": "t_mapping(t_string_memory_ptr,t_string_storage)"
      },
      "t_mapping(t_bytes32,t_mapping(t_uint16,t_bytes_storage))": {
        "encoding": "mapping",
        "key": "t_bytes32",
        "label": "mapping(bytes32 => mapping(uint16 => bytes))",
        "numberOfBytes": "32",
        "value": "t_mapping(t_uint16,t_bytes_storage)"
      },
      "t_mapping(t_bytes32,t_mapping(t_uint256,t_bytes_storage))": {
        "encoding": "mapping",
        "key": "t_bytes32",
        "label": "mapping(bytes32 => mapping(uint256 => bytes))",
        "numberOfBytes": "32",
        "value": "t_mapping(t_uint256,t_bytes_storage)"
      },
      "t_mapping(t_bytes32,t_string_storage)": {
        "encoding": "mapping",
        "key": "t_bytes32",
        "label": "mapping(bytes32 => string)",
        "numberOfBytes": "32",
        "value": "t_string_storage"
      },
      "t_mapping(t_bytes32,t_struct(PublicKey)5912_storage)": {
        "encoding": "mapping",
        "key": "t_bytes32",
        "label": "mapping(bytes32 => struct PubkeyResolver.PublicKey)",
        "numberOfBytes": "32",
        "value": "t_struct(PublicKey)5912_storage"
      },
      "t_mapping(t_bytes32,t_uint16)": {
        "encoding": "mapping",
        "key": "t_bytes32",
        "label": "mapping(bytes32 => uint16)",
        "numberOfBytes": "32",
        "value": "t_uint16"
      },
      "t_mapping(t_bytes32,t_uint64)": {
        "encoding": "mapping",
        "key": "t_bytes32",
        "label": "mapping(bytes32 => uint64)",
        "numberOfBytes": "32",
        "value": "t_uint64"
      },
      "t_mapping(t_bytes4,t_address)": {
        "encoding": "mapping",
        "key": "t_bytes4",
        "label": "mapping(bytes4 => address)",
        "numberOfBytes": "32",
        "value": "t_address"
      },
      "t_mapping(t_string_memory_ptr,t_string_storage)": {
        "encoding": "mapping",
        "key": "t_string_memory_ptr",
        "label": "mapping(string => string)",
        "numberOfBytes": "32",
        "value": "t_string_storage"
      },
      "t_mapping(t_uint16,t_bytes_storage)": {
        "encoding": "mapping",
        "key": "t_uint16",
        "label": "mapping(uint16 => bytes)",
        "numberOfBytes": "32",
        "value": "t_bytes_storage"
      },
      "t_mapping(t_uint256,t_bytes_storage)": {
        "encoding": "mapping",
        "key": "t_uint256",
        "label": "mapping(uint256 => bytes)",
        "numberOfBytes": "32",
        "value": "t_bytes_storage"
      },
      "t_mapping(t_uint64,t_mapping(t_bytes32,t_bytes_storage))": {
        "encoding": "mapping",
        "key": "t_uint64",
        "label": "mapping(uint64 => mapping(bytes32 => bytes))",
        "numberOfBytes": "32",
        "value": "t_mapping(t_bytes32,t_bytes_storage)"
      },
      "t_mapping(t_uint64,t_mapping(t_bytes32,t_mapping(t_bytes32,t_mapping(t_uint16,t_bytes_storage))))": {
        "encoding": "mapping",
        "key": "t_uint64",
        "label": "mapping(uint64 => mapping(bytes32 => mapping(bytes32 => mapping(uint16 => bytes))))",
        "numberOfBytes": "32",
        "value": "t_mapping(t_bytes32,t_mapping(t_bytes32,t_mapping(t_uint16,t_bytes_storage)))"
      },
      "t_mapping(t_uint64,t_mapping(t_bytes32,t_mapping(t_bytes32,t_uint16)))": {
        "encoding": "mapping",
        "key": "t_uint64",
        "label": "mapping(uint64 => mapping(bytes32 => mapping(bytes32 => uint16)))",
        "numberOfBytes": "32",
        "value": "t_mapping(t_bytes32,t_mapping(t_bytes32,t_uint16))"
      },
      "t_mapping(t_uint64,t_mapping(t_bytes32,t_mapping(t_bytes4,t_address)))": {
        "encoding": "mapping",
        "key": "t_uint64",
        "label": "mapping(uint64 => mapping(bytes32 => mapping(bytes4 => address)))",
        "numberOfBytes": "32",
        "value": "t_mapping(t_bytes32,t_mapping(t_bytes4,t_address))"
      },
      "t_mapping(t_uint64,t_mapping(t_bytes32,t_mapping(t_string_memory_ptr,t_string_storage)))": {
        "encoding": "mapping",
        "key": "t_uint64",
        "label": "mapping(uint64 => mapping(bytes32 => mapping(string => string)))",
        "numberOfBytes": "32",
        "value": "t_mapping(t_bytes32,t_mapping(t_string_memory_ptr,t_string_storage))"
      },
      "t_mapping(t_uint64,t_mapping(t_bytes32,t_mapping(t_uint256,t_bytes_storage)))": {
        "encoding": "mapping",
        "key": "t_uint64",
        "label": "mapping(uint64 => mapping(bytes32 => mapping(uint256 => bytes)))",
        "numberOfBytes": "32",
        "value": "t_mapping(t_bytes32,t_mapping(t_uint256,t_bytes_storage))"
      },
      "t_mapping(t_uint64,t_mapping(t_bytes32,t_string_storage))": {
        "encoding": "mapping",
        "key": "t_uint64",
        "label": "mapping(uint64 => mapping(bytes32 => string))",
        "numberOfBytes": "32",
        "value": "t_mapping(t_bytes32,t_string_storage)"
      },
      "t_mapping(t_uint64,t_mapping(t_bytes32,t_struct(PublicKey)5912_storage))": {
        "encoding": "mapping",
        "key": "t_uint64",
        "label": "mapping(uint64 => mapping(bytes32 => struct PubkeyResolver.PublicKey))",
        "numberOfBytes": "32",
        "value": "t_mapping(t_bytes32,t_struct(PublicKey)5912_storage)"
      },
      "t_string_memory_ptr": {
        "encoding": "bytes",
        "label": "string",
        "numberOfBytes": "32"
      },
      "t_string_storage": {
        "encoding": "bytes",
        "label": "string",
        "numberOfBytes": "32"
      },
      "t_struct(PublicKey)5912_storage": {
        "encoding": "inplace",
        "label": "struct PubkeyResolver.PublicKey",
        "members": [
          {
            "astId": 5909,
            "contract": "@ensdomains/ens-contracts/contracts/resolvers/DelegatableResolver.sol:DelegatableResolver",
            "label": "x",
            "offset": 0,
            "slot": "0",
            "type": "t_bytes32"
          },
          {
            "astId": 5911,
            "contract": "@ensdomains/ens-contracts/contracts/resolvers/DelegatableResolver.sol:DelegatableResolver",
            "label": "y",
            "offset": 0,
            "slot": "1",
            "type": "t_bytes32"
          }
        ],
        "numberOfBytes": "64"
      },
      "t_uint16": {
        "encoding": "inplace",
        "label": "uint16",
        "numberOfBytes": "2"
      },
      "t_uint256": {
        "encoding": "inplace",
        "label": "uint256",
        "numberOfBytes": "32"
      },
      "t_uint64": {
        "encoding": "inplace",
        "label": "uint64",
        "numberOfBytes": "8"
      }
    }
  }
}